:020000040800F2
:10000000A81B0020CD0100080509000861080008B0
:10001000010900088D030008C12700080000000046
:100020000000000000000000000000003D1F00086C
:10003000BD060008000000005B0200085120000817
:10004000E7010008E7010008E7010008991D000822
:10005000E7010008E7010008E7010008E7010008E0
:10006000E7010008E7010008C1060008E7010008F1
:10007000E7010008E7010008E7010008E7010008C0
:10008000E7010008E7010008E7010008E7010008B0
:10009000E7010008E7010008E7010008E7010008A0
:1000A000E7010008E7010008E7010008E701000890
:1000B000E7010008E7010008E7010008E701000880
:1000C000E7010008E7010008E7010008E701000870
:1000D000E701000871240008ED2400087D250008D0
:1000E000E7010008E7010008E7010008E701000850
:1000F000E7010008E7010008E7010008E701000840
:10010000E7010008E7010008E7010008E70100082F
:10011000E7010008E7010008E7010008E70100081F
:10012000E7010008E7010008E7010008E70100080F
:1001300000F002F800F03AF80AA090E8000C8244BF
:100140008344AAF10107DA4501D100F02FF8AFF29C
:10015000090EBAE80F0013F0010F18BFFB1A43F0A5
:1001600001031847002B0000202B0000103A24BF89
:1001700078C878C1FAD8520724BF30C830C144BF0C
:1001800004680C607047000000230024002500264E
:10019000103A28BF78C1FBD8520728BF30C148BFEA
:1001A0000B6070471FB51FBD10B510BD00F08BF878
:1001B0001146FFF7F7FF02F07DFB00F0A9F803B44A
:1001C000FFF7F2FF03BC00F0ADF8000009488047DC
:1001D00009480047FEE7FEE7FEE7FEE7FEE7FEE729
:1001E000FEE7FEE7FEE7FEE704480549054A064B41
:1001F000704700006120000831010008A8150020A8
:10020000A81B0020A8170020A8170020EFF31080DB
:1002100072B6704780F310887047204C204D2560DF
:100220004FF0000484F309881E4C4FF0010525703F
:100230001D4C4FF08055256062B6FEE730B41A4C75
:100240004FF08055256030BC704730B4164C4FF0ED
:100250008055256030BC704700BF72B6EFF309804F
:1002600028B1203880E8F00F10490968086000B50F
:100270000F4880475DF804EB0E480F490A7802707A
:100280000A480E490A680260106890E8F00F2030B2
:1002900080F309884EF0040E62B6704720ED00E04E
:1002A0000000FFFF5E00002004ED00E0640000207D
:1002B0004510000853000020540000206C0000206E
:1002C000704770477047754600F028F8AE46050045
:1002D0006946534620F00700854618B020B5FFF761
:1002E00083FFBDE820404FF000064FF000074FF0BD
:1002F00000084FF0000B21F00701AC46ACE8C00944
:10030000ACE8C009ACE8C009ACE8C0098D4670474C
:100310000446AFF300802046FFF751FF00487047C6
:100320004415002001491820ABBEFEE7260002005C
:10033000704710B5012001F025FB002001F022FBE1
:1003400010BD000008B50146002000900348009051
:100350000098084400900098008808BD006C004098
:1003600008B500220092044A0092009A02440092CA
:10037000009A116008BD0000006C004010B502F04A
:1003800021FA00F08DFA00F0BEFA10BD00BFFEE7C2
:1003900010B5002000F072FB0549C860802088700D
:1003A000044848600448886000200870487010BD08
:1003B00080070020B00700203008002010B5012081
:1003C00000F05CFB0549C8608020887004484860E4
:1003D0000448886000200870487010BD9007002015
:1003E000B00800203009002010B5022000F046FBC4
:1003F0000549C860802088700448486004488860C7
:1004000000200870487010BDA0070020B00900202F
:10041000300A002021B1026842F00102026004E0CB
:1004200002684FF6FE731A400260704701684FF68B
:10043000FE72114001600021016041608160C16075
:100440004B49884208D14A490839496841F00F01AF
:10045000474A083A51608AE045491431884208D138
:1004600043490839496841F0F001414A083A51606E
:100470007DE03F492831884208D13D490839496823
:1004800041F470613A4A083A516070E038493C31B1
:10049000884208D136490839496841F47041344AE4
:1004A000083A516063E032495031884208D13049FE
:1004B0000839496841F470212D4A083A516056E0E4
:1004C0002B496431884208D129490839496841F4E7
:1004D0007001274A083A516049E02549783188423D
:1004E00008D123490839496841F07061204A083A27
:1004F00051603CE01F49884206D1011F096841F064
:100500000F01021F116032E01A491431884208D1EC
:100510001849091F096841F0F001164A121F1160BD
:1005200025E014492831884208D11249091F096879
:1005300041F470610F4A121F116018E00D493C31FF
:10054000884208D10B49091F096841F47041094AE2
:10055000121F11600BE007495031884207D105494D
:10056000091F096841F47021024A121F1160704787
:1005700008000240080402400146486880B2704703
:1005800010B50022026847F6F0739A430C6A8B6834
:1005900023430C6923434C6923438C692343CC696F
:1005A00023434C6A23438C6A23431A430260CB687B
:1005B00043600B6883604B68C36010BDF0B58BB0BF
:1005C00007460D4616461C460121084601F0AAF9C9
:1005D0000D4804803846FFF729FF0095019600205A
:1005E00002900394049080200590002006900790CC
:1005F00008904FF40050099000200A906946384650
:10060000FFF7BEFF0BB0F0BD1C00002010B5044684
:10061000012C04D0022C15D0032C3FD128E000215E
:100620002048FFF7F7FE204801881E4800F044F8F4
:10063000012240211D4801F0FEFF01211948FFF76A
:10064000E9FE2CE0002117481430FFF7E3FE1648BE
:1006500001881448143000F02FF80122402114487A
:1006600001F0E9FF01210F481430FFF7D3FE16E037
:1006700000210C482838FFF7CDFE0B4801880948B7
:10068000283800F019F8012240210A4801F0D3FF70
:10069000012104482838FFF7BDFE00E000BF00BF7D
:1006A00010BD0000580002401C000020003801402E
:1006B000004400400048004041607047704700001F
:1006C00010B500F081F9102000F01EF870B1102173
:1006D000084800F0B8F818B901200749087002E08E
:1006E000002005490870102000F008F800F07EF99D
:1006F00010BD0000000C01401E00002001490860F0
:100700007047000014040140014600200022074BFE
:100710001B6803EA0102054B14331B680B4013B13D
:100720000AB1012000E000207047000000040140F1
:100730002DE9F04102460025002600200023002478
:10074000002791F803C00CF00F0591F803C00CF0DE
:10075000100CBCF1000F03D091F802C04CEA050563
:1007600091F800C0BCF1000F31D0146800202BE0DC
:100770004FF0010C0CFA00F3B1F800C00CEA0306CC
:100780009E4220D183004FF00F0C0CFA03F7BC43BC
:1007900005FA03FC4CEA040491F803C0BCF1280FED
:1007A00006D14FF0010C0CFA00FCC2F814C00AE0AC
:1007B00091F803C0BCF1480F05D14FF0010C0CFAC1
:1007C00000FCC2F810C0401C0828D1D31460B1F856
:1007D00000C0BCF1FF0F34DD546800202EE000F1B2
:1007E000080C4FF0010808FA0CF3B1F800C00CEA4D
:1007F00003069E4221D183004FF00F0C0CFA03F741
:10080000BC4305FA03FC4CEA040491F803C0BCF1B4
:10081000280F05D100F1080C08FA0CF8C2F8148072
:1008200091F803C0BCF1480F07D100F1080C4FF05C
:10083000010808FA0CF8C2F81080401C0828CED332
:100840005460BDE8F0810246002093680B400BB174
:10085000012000E00020704741617047016170474E
:1008600000BFFEE70146CA1701EB92729210A1EB9E
:10087000820292B9642091FBF0F200FB121050B991
:100880004FF4C87091FBF0F200FB121008B9012080
:1008900070470020FCE70120FAE70020F8E700009D
:1008A00008B50121142001F05DF84FF4F060ADF8B7
:1008B000000010208DF8030003208DF80200694627
:1008C0000D48FFF735FF4FF48070ADF800001020A1
:1008D0008DF8030003208DF8020069460748FFF7F2
:1008E00027FF4FF4F0610448FFF7B8FF4FF4807121
:1008F0000248FFF7B3FF08BD0010014000080140A7
:1009000000BFFEE7704710B54FF4407000F03AF8B2
:1009100010BD000070B5002100230F22C47804B37D
:10092000154C246804F4E064C4F5E064210AC1F1C4
:100930000403CA40447804FA03F184781440214344
:1009400009010E4C0678A155047804F01F05012416
:10095000AC4005786D11AD0005F1E025C5F800410A
:1009600009E0047804F01F050124AC40044D06782A
:10097000761145F8264070BD0CED00E000E400E083
:1009800080E100E002490143024A11607047000023
:100990000000FA050CED00E010B500F013F800F0CF
:1009A0003FFD00F067FD00F087FD00F00FFD00F057
:1009B000E1FC00F01BFE00F0BFFD00F0E5FD00F0E3
:1009C00002F810BD7047704706480078012808D12A
:1009D00005480078FF2804D203480078401C0249EB
:1009E000087070475E0000205100002010B5002400
:1009F0001A480078012830D1FFF708FC044618484F
:100A0000007820B116480078401E15490870144837
:100A10000078F8B913480078E0B900F049FE1248B0
:100A20001249097850F82100114908600F480078F0
:100A30001049097888420DD00D480068806B401C31
:100A40000B49096888630C480068401C0A49086023
:100A5000FFF7FBFB2046FFF7DDFB10BD5E0000202B
:100A60005100002052000020DC0F00205400002024
:100A70006C000020530000203800002070B50546AF
:100A800000260F48007808B1002070BDFFF7BEFBBC
:100A900006460C480468006820B10A4800684068AF
:100AA000084908603046FFF7B5FB3CB103202070D1
:100AB000258100206060204600F04EFC2046E4E7DF
:100AC000510000203C0000202DE9F04105460E4673
:100AD000144600272878032803D001202070BDE8A1
:100AE000F0813148007810B102202070F7E72F48DC
:100AF000007810B10D202070F1E7FFF787FB074663
:100B0000288940B12889401E28813846FFF782FB9A
:100B100000202070E3E72648006890F8300040F09D
:100B200001002349096881F8300000202049096844
:100B300081F831001E480068C662284600F0CEFBEE
:100B40003846FFF767FB00F079FDFFF75FFB0746CC
:100B50001748006890F8310020B1012809D0022818
:100B600006D102E0002020700BE00E20207008E08B
:100B700000BF29460E48006800F09AFB0A2020704A
:100B800000BF00BF00200A49096881F83000084909
:100B9000096881F8310006490968C8613846FFF7DD
:100BA00039FB00BF9BE700005100002052000020ED
:100BB0006400002070B5044600252078032801D089
:100BC000012070BDFFF722FB0546A07A60B100232B
:100BD00001221946204600F029FB2846FFF71AFBA0
:100BE00000F02CFD0020ECE720894FF6FF718842D1
:100BF00007D22089401C20812846FFF70BFB0020EC
:100C0000DFE72846FFF706FB3320DAE710B50B488D
:100C1000007890B900F04CFD094800780949087047
:100C200009480749097850F8210008490860084632
:100C3000006807490860FFF7F0FA10BD5E00002069
:100C40005400002053000020DC0F00206C00002026
:100C50006400002010B50024022000F0F5F9FFF731
:100C6000D5FA044600200B4908602046FFF7D2FA67
:100C7000642000F0E9F9FFF7C9FA04460548006866
:100C8000054908600120054908702046FFF7C2FAAF
:100C900010BD00006000002048000020500000202F
:100CA000704700002DE9FE4F06460F4690461C4651
:100CB0004FF00009FFF7AAFA81461F48007828B1D3
:100CC0004846FFF7A7FA3C20BDE8FE8F1B4850F8C6
:100CD000240060BB0120194941F824004846FFF771
:100CE00099FA002342463946304600F009F9824617
:100CF0000020009001900346024651460290204693
:100D000000F0ECFC054635B90D48007801280CD1FF
:100D100000F094FC09E0FFF779FA814600200749CA
:100D200041F824004846FFF775FA2846CCE74846C4
:100D3000FFF770FA2820C7E751000020DC0F0020E1
:100D40005E0000202DE9F04F85B081468A4693462B
:100D50001C46DDE90F78129D00200390FFF756FA3C
:100D600003902348007830B10398FFF753FA3C20F2
:100D700005B0BDE8F08F1F4850F8240088BB012063
:100D80001C4941F824000398FFF744FA2A464146DB
:100D9000384600F0B3FD2B465A465146484600F00F
:100DA000AFF804901198CDE9008002953A462046AC
:100DB0000E9B049900F092FC064636B90E48007866
:100DC00001280CD100F03AFC09E0FFF71FFA03906C
:100DD0000020084941F824000398FFF71BFA304629
:100DE000C6E7FFE70398FFF715FA2820C0E70000E1
:100DF00051000020DC0F00205E000020704770478B
:100E00002DE9F04106460F4614464FF000081548FC
:100E1000007818B112202070BDE8F081FFF7F6F9D4
:100E20008046FF2E03D11048006890F832600F48CA
:100E300050F826502DB94046FFF7ECF943202070BA
:100E4000EAE7012D05D14046FFF7E4F94320207081
:100E5000E2E7EF644046FFF7DDF90020207000BFB5
:100E6000DAE700005100002064000020DC0F0020C1
:100E7000704700002DE9F04707460D464FF0000A85
:100E8000002028606860FFF7C1F98246FF2F03D178
:100E90001948006890F83270184850F827402CB96B
:100EA0005046FFF7B7F94320BDE8F087012C04D185
:100EB0005046FFF7AFF94320F6E7207C00F0010031
:100EC00020B95046FFF7A6F94520EDE70026D4F8F3
:100ED0000C90D4F808805046FFF79CF900E0761C8F
:100EE00058F8041B0029FAD0B0002860A9EB0600CE
:100EF000800068600020D7E764000020DC0F00203D
:100F000070B5044610464FF080750560051F2846F1
:100F10002C606FF00106051F28462E604FF0123638
:100F2000051F28462E604FF00336051F28462E6009
:100F30004FF00236051F28462E607610051F284602
:100F40002E60051F284629604FF01136051F2846E0
:100F50002E604FF01036051F28462E604FF00936E0
:100F6000051F28462E604FF00836051F28462E60C4
:100F70004FF00736051F28462E604FF00636051F36
:100F800028462E604FF00536051F28462E604FF08C
:100F90000436051F28462E6070BD00002DE9F04183
:100FA00005464FF00008FFF731F98046FF2D05D1C7
:100FB0002048006890F83250012608E01D4800687B
:100FC00090F83200A84201D1012600E000261A481C
:100FD00050F825402CB94046FFF71CF94820BDE8E1
:100FE000F081012C04D14046FFF714F94320F6E7C5
:100FF00094F834701148C05D94F8351088430F4957
:10100000C8550846C05D30B994F836100C480078D1
:1010100088430B49087094F8300040F0080084F8C9
:1010200030004046FFF7F6F8012E01D100F006FB34
:101030000020D4E764000020DC0F002056000020D0
:10104000550000207047000070B50546002617487F
:10105000007800B170BD1648007800B1FAE71DB302
:10106000FFF7D4F806461348006890F83440124859
:10107000005D1049096891F8351088430E490855FC
:101080000846005D40B90B48006890F836100B48E0
:10109000007888430949087006480068C5623046F0
:1010A000FFF7B8F800F0CAFA00BFD3E751000020FC
:1010B000520000206400002056000020550000204F
:1010C0002DE9F04105460E4617461C4612480078A9
:1010D00010B15520BDE8F0811048007808B13220E9
:1010E000F8E74FF47A7060434FF47A71B0FBF1F196
:1010F0004FF461606843C6EB061200EB820038448F
:1011000000EB4002C2EBC01001EBC0084046FFF705
:101110009BFF0020DEE7000051000020520000206D
:1011200070B504460025FFF771F8054602480460D3
:101130002846FFF76FF870BD7C00002070B50026D0
:1011400000F072F8FFF762F8064631480068401C6C
:101150002F4908603046FFF75DF82E4800780128D7
:1011600053D12D48007820B1012804D0022809D19C
:1011700003E001250BE0002509E0012501202649B7
:10118000087004E0012500202349087000BF00BF5B
:1011900005B970BD2148046833E0FFF737F806460B
:1011A000E06A50B3E06A401EE062E06A28BB94F84F
:1011B000300000F0370040B114F8300F00F0C800E4
:1011C000207001206070303C02E0002084F8310083
:1011D00094F8300000F0080078B93434A078104951
:1011E000097808430E49087020780E49085C617838
:1011F000084314F834190B4A505464693046FFF719
:1012000009F894F832003F28C7D100BFC1E70000B9
:101210007C0000205E000020740000207000002090
:101220005500002056000020704700002DE9F04FC7
:1012300005460F4690469946A87A19490E5C05F175
:101240000B00805D11F800B00BEBC60000F0FF0A48
:10125000144850F82A4000202034E0602760207CA9
:1012600020EA0800207484F81190207C203C00F0D3
:10127000080068B994F836000B49097808430A4910
:1012800008700A48805D94F835100843074988556E
:101290002946204600F00CF85046BDE8F08F0000CB
:1012A000642B0008DC0F00205500002056000020B1
:1012B00010B590F8342001F10B039B5C90F8354099
:1012C000A34301F10B04A35423469B5C23B98B7AFF
:1012D00090F83640A3438B7210BD000010B51B4A36
:1012E0001268D061194A126892F8343000F10B028A
:1012F000D25C164B1B6893F835301A43134B1B68AE
:1013000093F8344000F10B031A55827A0F4B1B6897
:1013100093F836301A4382720C4A126892F83410ED
:101320000B4A525C094B1B6893F835309A43084BC3
:101330005A541A46525C42B9044A126892F836303E
:10134000044A12789A43034B1A7010BD64000020BF
:101350005600002055000020014600228A7200201D
:1013600005E0002301F10B021354421CD0B20828FF
:10137000F7D370472DE9F0415021114800F02CF9C6
:1013800000250DE0681C86B20D4800EB051400EB4B
:1013900006170020207067600AA0E060681C85B214
:1013A000042DEFD3064800EB051400202070606088
:1013B00004A0E060024804490860BDE8F081000034
:1013C0008C0B00203F0000004000002070B5C821B9
:1013D000114800F001F900230FE0581C85B203EB1F
:1013E00083000D4901EB800405EB850001EB8006CD
:1013F000002020706660581C83B2092BEDD303EBEC
:101400008300054901EB80040020207060600846DD
:101410000249086070BD0000C40A00203C000020A2
:1014200000200A4908600A4908700A4908700A49F8
:1014300008700A4908700A4908600A4908600A49A0
:1014400008600A4908600A49087070477C0000205B
:1014500051000020520000205F0000205E000020AC
:1014600038000020600000204C00002048000020D0
:101470005000002000210A4A1170002004E00021E1
:10148000084A1154411CC8B20828F8D30021064A62
:101490001170064A1170064A1160064A11607047C1
:1014A000550000205600002053000020540000206A
:1014B0006C0000206400002070B54FF47C71194866
:1014C00000F08AF84FF48071174800F085F8002486
:1014D00013E0601CC5B2C4EBC40000EB400011492E
:1014E00001EB8003C5EBC50000EB400001EB80067B
:1014F0005E610EA0D864601CC4B20B2CE9D3C4EBAF
:10150000C40000EB4000074901EB80030020586154
:1015100006A0D86400200649086002480549086012
:1015200070BD0000DC100020DC0F00203F00000038
:10153000700000206800002000B587B00320002163
:1015400080220A4BCDE90132CDE903104FF6FF703E
:101550003F23074A00900748FFF7F4FB06AA06A1BD
:101560003F20FFF74DFC07B000BD0000DC0D002060
:10157000D80F00201118000875432F4F532D4949EB
:101580002049646C6500000000B587B0032000218D
:1015900080220A4BCDE90132CDE903104FF6FE70EF
:1015A0003E23074A00900748FFF7CCFB06AA06A196
:1015B0003E20FFF725FC07B000BD0000DC0B00203B
:1015C000D80D00203918000875432F4F532D494975
:1015D000205374617400000004E0002200F8012B25
:1015E0004A1E91B20029F8D1704700002DE9F04160
:1015F00078211048FFF7F0FF00240DE0601C86B250
:1016000004EB44000B4901EBC00506EB460001EB7F
:10161000C0072F60601C84B2042CEFD304EB44009D
:10162000044901EBC0050020286008460249086013
:10163000BDE8F081CC1400207800002010B5002413
:10164000FEF7E4FD044613480078F8B91248007824
:10165000E0B900F02DF811481149097850F821003F
:10166000104908600E4800780F49097888420DD06B
:101670000C480068806B401C0A49096888630B4865
:101680000068401C09490860FEF7D8FD2046FEF7B7
:10169000C1FD10BD5100002052000020DC0F0020D1
:1016A000540000206C00002053000020380000206F
:1016B0000649074A1278885C0649095C034A515C6E
:1016C00001EBC001044A117070470000642B000850
:1016D0005500002056000020540000202DE9F84F4E
:1016E00005460F4690469946DDE90AAB002000907A
:1016F000FEF78CFD00903F480468002C74D018342D
:1017000054F8040C3B4908600098FEF783FD44F848
:10171000187CA576002020766076606144F814BCC1
:1017200044F80CAC44F8108C0C9824F8080C24F8FD
:10173000069C0020E077E810207705F00700E076AF
:10174000217F01208840A077E17E012088406077DA
:1017500000206060E060A0602062A0626062E062E1
:10176000206325A06063183C002606E0002104F1F8
:10177000500040F82610701CC6B2002EF6D020464D
:10178000FFF78EFA2046FFF739FBFEF73FFD00908A
:101790001A4840F825401A48006860610020A0619E
:1017A0001748006810B11648006884611448046046
:1017B0003434A07813490978084312490870207816
:1017C0001149085C6178084314F834190E4A5054E2
:1017D0000E480078401C0D4908700098FEF71AFD6D
:1017E0000020BDE8F88FFFE70098FEF713FD4220C8
:1017F000F7E70000680000203F000000DC0F002039
:101800007000002055000020560000205F000020DE
:10181000002400BF00BFFEF7F9FC0446054800683D
:10182000401C044908602046FEF7F4FCFFF7E7FA85
:10183000F1E7000060000020002400BF02E0C820A3
:10184000FFF702FC194800780028F8D01848006813
:101850006421B0FBF1F0164908600846006828B919
:10186000002014490870FF20FFF798FB00BFFEF727
:10187000CDFC0446104800681049086000200E495D
:1018800008602046FEF7C6FC0C4800680849096855
:10189000B0FBF1F0C0F1640006490870FFF7E8FA08
:1018A00000F00EF86420FFF7CFFBE0E750000020C7
:1018B0004800002044000020600000204C00002070
:1018C0007CB5002514E069462846FFF7D3FA0646A2
:1018D00066B9094850F8254044B1012C06D0D4E936
:1018E000020100EB810060640198A064681CC5B22D
:1018F0003F2DE8D97CBD0000DC0F002002F0010381
:1019000043B102F002032BB102E0491E002308C0DC
:101910000029FAD1704700000149086270470000B1
:1019200000000E4229B1064A52690243044B5A6133
:1019300004E0034A52698243014B5A617047000038
:101940000010024029B1064AD2690243044BDA6111
:1019500004E0034AD2698243014BDA617047000018
:101960000010024029B1064A92690243044B9A6171
:1019700004E0034A92698243014B9A617047000078
:1019800000100240014908607047000040044242D4
:1019900030B500210022002400232D4D6D6805F094
:1019A0000C0121B1042905D0082923D105E0294DD6
:1019B000056022E0274D05601FE0254D6D6805F4A8
:1019C0007012234D6D6805F48034022505EB9242B8
:1019D0001CB9214D554305600BE01D4D6D6805F4A4
:1019E00000351DB11C4D5543056002E0194D5543AE
:1019F000056002E0174D056000BF00BF144D6D6823
:101A000005F0F0010909154D6B5C0568DD40456086
:101A10000F4D6D6805F4E061090A104D6B5C456877
:101A2000DD4085600A4D6D6805F46051C90A0B4DB3
:101A30006B5C4568DD40C560054D6D6805F440414F
:101A4000890B074D6B5CC568B5FBF3F5056130BDCF
:101A50000010024000127A0000093D00240000201E
:101A60003400002010B501460022002300204A1156
:101A7000012A02D1094C236806E0022A02D1074C50
:101A8000236A01E0054C636A01F01F0201249440BF
:101A90001C400CB1012000E0002010BD00100240ED
:101AA0000149086070470000800442420149086013
:101AB000704700003C0442420249096A0143014A5E
:101AC0001162704700100240024909888143014AAF
:101AD00011807047042800407CB500240420FEF7E4
:101AE00031FC45F2510188424AD001214FF0C050EB
:101AF000FFF728FF0120FFF70FFFFEF71AFC012078
:101B0000FFF7CEFF04E0601CC4B20A2000F088FE9C
:101B10006120FFF7A7FF08B9FA2CF4DBFA2C01DBF0
:101B200001207CBD4FF40070FFF7C6FF0120FFF7D6
:101B3000BDFF00F0E7F900F0EFF90121084600F0E1
:101B400039F900F0DFF900F03BF849F63F4000F0CA
:101B5000C9F900F0D7F91948807818494978174D24
:101B6000CDE900102B78EA79A979A88800F048F926
:101B700000F030F845F250010420FEF7F1FB16E0CA
:101B800000F01EF80D4880780C4949780B4DCDE9DE
:101B900000102B78EA79A979A88800F031F900F0D3
:101BA00019F80121084600F005F900F0ABF900F042
:101BB00015F900F019F80020B3E70000BA0A002078
:101BC0000348008840F01000014908807047000079
:101BD00004280040034800884FF6EF71084001498F
:101BE000088070470428004070B5002600240025B6
:101BF00000F07AF806463848B6FBF0F4374800881B
:101C0000A0423CD035490C8040F2B27510E0284625
:101C1000FEF728FE40B1B4F5B77F02D3A4F5B77440
:101C200004E0681C85B206E0A4F26D14681C85B25D
:101C3000B4F5B67FEBD800BF29488580002516E0B3
:101C400027498888FEF70EFE30B1012D04D11D2CE6
:101C500001D31D3C09E00CE02248405DA04203D8BE
:101C60002048405D241A00E003E0681C85B21C2C6B
:101C7000E6D200BF681C1A498871601CC8711648FA
:101C8000B6FBF0F100FB11644FF46160B4FBF0F0BF
:101C9000134908704FF46160B4FBF0F100FB114090
:101CA0003C21B0FBF1F00E4948704FF46160B4FB89
:101CB000F0F100FB11403C21B0FBF1F201FB1200FE
:101CC000074988700B46DA799979988800F028F8E6
:101CD00003490872002070BD8051010022000020DD
:101CE000B00A0020582B0008002103480188001F7B
:101CF000008841EA004070471C280040014600204F
:101D0000064A12880A40D0B2044A121F12880A40BA
:101D100012B108B1012000E0002070470428004003
:101D2000F0B503460C461546642093FBF0F0C6B2AE
:101D3000642093FBF0F700FB1730C1B2132E02DDD5
:101D400001F16400C1B20846CF1701EB977701EBB0
:101D5000A707BAB2072092FBF0F700FB172082B268
:101D60005719601EDFF82CC01CF80000384482B2FE
:101D7000CF1701EB9777BF10A1EB87071FB9032C93
:101D800001DA501E82B2072092FBF0F700FB172009
:101D9000C0B2F0BD4C2B000810B50120FFF7AEFF1C
:101DA00008B1FFF721FF0120FFF78EFE00F0AAF82F
:101DB00010BD000029B1064A12880243044B1A8064
:101DC00004E0034A12888243014B1A8070470000E6
:101DD0000028004010B5FFF77FFE10BD08B50320B6
:101DE0008DF8000006208DF8010000208DF802001B
:101DF00001208DF803006846FEF78CFD08BD000049
:101E00002DE9F05F06460F4690469946DDE90AAB9C
:101E1000002440F2B270864203DB40F63300864273
:101E200002DD0120BDE8F09F40F2B2750AE02846CD
:101E3000FEF718FD10B12048044401E01F48044497
:101E4000681C85B2B542F2DB781EC7B2002510E0EF
:101E50001B48405D40F2A321484304EBC0143046C8
:101E6000FEF700FD18B1012D01D116480444681C8D
:101E700085B2BD42ECDBA8F1010040F2A32148434A
:101E800004EBC014C9EB4910C0EB092004EB0014AB
:101E9000CAEB0A1004EB80045C4401214FF0C050EF
:101EA000FFF750FD0120FFF737FD204600F00CF84A
:101EB00000F028F80020B5E70085E2018033E10159
:101EC000582B00088051010000B50246FFF778FE4C
:101ED000100C03490880091D0A80FFF77BFE00BD36
:101EE0001828004000B50246FFF76AFEC2F303401F
:101EF00003490880091D0A80FFF76CFE00BD000041
:101F00000828004000BF0348008800F02000002897
:101F1000F9D0704704280040074800884FF6F77151
:101F200008400549088000BF0348008800F0080009
:101F30000028F9D07047000004280040704710B511
:101F400000F002F810BD00000CB5002001900090D8
:101F50003348006840F480303149086000BF3048A1
:101F6000006800F4003000900198401C0190009837
:101F700018B90198B0F5A06FF1D12948006800F4B4
:101F8000003010B10120009001E000200090009886
:101F9000012843D12348006840F01000214908601F
:101FA0000846006820F0030008600846006840F01A
:101FB000020008601A4840681949486008464068AD
:101FC00048600846406840F48060486008464068C1
:101FD00020F47C1048600846406840F4E8104860EF
:101FE0000846006840F08070086000BF0C48006838
:101FF00000F000700028F9D00948406820F0030084
:10200000074948600846406840F00200486000BF49
:102010000348406800F00C000828F9D10CBD00000E
:102020000010024000200240042808D14FF0E021B7
:10203000096941F004014FF0E022116107E04FF01F
:10204000E021096921F004014FF0E022116170479D
:1020500010B5FEF7B9FCFFF771F8FEF7C7FC10BD2D
:1020600010B51348006840F00100114908600846A7
:102070004068104908400E494860084600680E490B
:1020800008400B4908600846006820F4802008607A
:102090000846406820F4FE0048604FF41F00886046
:1020A000FFF74DFF4FF000600449086010BD0000CD
:1020B000001002400000FFF8FFFFF6FE08ED00E010
:1020C00008B5002000904FF4E13000F035FC4FF4EB
:1020D000165000F083FC4FF4165000F0D1FCFEF7D0
:1020E00057F9FEF76BF9FEF77FF980231B4A1C496D
:1020F0001C48FEF763FA0120FEF788FA1A4880238D
:102100001A49426817481430FEF758FA0220FEF7C1
:102110007DFA174880231749426812482838FEF78D
:102120004DFA0320FEF772FA0023012219461846E1
:10213000FEF7C6FFFFF74EFE0020FEF7F1FF0BE0B3
:102140000A23002211461046FEF7BAFF0A496A46E2
:10215000C8680A21FEF7B8FCF2E70000B0070020CB
:102160000438014058000240900700200444004019
:10217000A00700200448004080070020002500241C
:102180008021A848FEF768FB002301221946184663
:10219000FEF796FF4FF48071A248FEF75DFB002327
:1021A000012219461846FEF78BFF4FF400719D4837
:1021B000FEF752FB0023012219461846FEF780FF66
:1021C0004FF480719848FEF747FB0023012219461F
:1021D0001846FEF775FF4FF480619248FEF73CFB0E
:1021E0000023012219461846FEF76AFF80218D4818
:1021F000FEF734FB4FF480718A48FEF72FFB4FF453
:1022000000718848FEF72AFB4FF480718648FEF77C
:1022100025FB4FF480618348FEF720FB00E1322369
:10222000002211461046FEF74BFF80480078082830
:102230007DD2DFE800F004212BABC0D5DFE94FF4FD
:1022400080517848FEF70AFB04217948FEF706FB27
:1022500080217448FEF702FB4FF480717148FEF74D
:10226000FDFA4FF400716F48FEF7F8FA4FF48071F1
:102270006D48FEF7F3FAD2E04FF480516948FEF75B
:10228000EDFA04216A48FEF7E9FAC8E06948807867
:10229000A0427AD0674884782846691CCDB20521CF
:1022A00090FBF1F201FB120005286CD2DFE800F090
:1022B00003172B40540080215A48FEF7CFFA4FF401
:1022C00080715848FEF7CAFA4FF400715548FEF77E
:1022D000C5FA4FF480715448FEF7C0FA54E08021EB
:1022E0005048FEF7B9FA4FF480714E48FEF7B6FA3F
:1022F0004FF400714B48FEF7B1FA4FF480714A4831
:10230000FEF7ACFA40E080214648FEF7A5FA4FF40C
:1023100080714448FEF7A0FA4FF400714148FEF77F
:102320009DFA4FF480714048FEF798FA2CE075E072
:1023300080213C48FEF790FA4FF480713948FEF74F
:102340008BFA4FF400713748FEF786FA4FF480712C
:102350003548FEF783FA17E080213248FEF77CFA11
:102360004FF480712F48FEF777FA4FF400712D4833
:10237000FEF772FA4FF480712B48FEF76DFA0025D4
:1023800002E002E0FFE700BF00BF48E00025802137
:102390002448FEF763FA4FF480712248FEF75EFA94
:1023A0004FF400711F48FEF759FA4FF480711E4830
:1023B000FEF754FA33E0002580211A48FEF74EFA62
:1023C0004FF480711748FEF749FA4FF40071154831
:1023D000FEF744FA4FF480711348FEF73FFA1EE00F
:1023E0004FF480510F48FEF739FA04211048FEF7E8
:1023F00035FA14E04FF480510A48FEF72FFA042111
:102400000B48FEF72BFA0AE04FF480510548FEF71F
:1024100025FA04210648FEF721FA00E000BF00BFBC
:10242000FDE600000010014000080140000000200F
:1024300000140140B00A002008B5002000900023DD
:10244000012219461846FEF73BFE0020FEF768FE03
:102450000BE00A23002211461046FEF731FE034925
:102460006A46C8680A21FEF72FFBF2E780070020C2
:1024700010B50024FEF7A8FA40F22441184800F0F5
:10248000E3F8012828D116480088C4B21448001D7A
:102490000088C4B200211348FDF7BCFF0022402190
:1024A0000F4800F0C8F80F48FEF766F8C0F180004A
:1024B000C4B280200B495839C8650B48047001220A
:1024C0004021074800F0B7F801210648FDF7A2FFB8
:1024D0000549C868FEF76EFBFEF788FA10BD0000DC
:1024E00000380140580002408007002010B5002449
:1024F000FEF76AFA40F224411C4800F0A5F80128D2
:1025000031D11A480088C4B21848001D0088C4B2EE
:1025100040F22441164800F073F800211548FDF7F9
:1025200079FF00224021114800F085F81148FEF79C
:1025300023F8C0F18000C4B200200F494968085553
:1025400080200C496C3908670B4804700122402137
:10255000064800F070F801210648FDF75BFF0649C8
:10256000C868FEF727FBFEF741FA10BD00440040A3
:10257000004800406C0002409007002010B5002485
:10258000FEF722FA40F224411A4800F05DF80128D3
:102590002CD118480088C4B21648001D0088C4B267
:1025A00000211548FDF736FF00224021114800F0B8
:1025B00042F81148FDF7E0FFC0F18000C4B20020EE
:1025C0000E494968085580200B49303948630B484B
:1025D000047001224021074800F02DF8012106482F
:1025E000FDF718FF0549C868FEF7E4FAFEF7FEF9A3
:1025F00010BD00000048004030000240A00700204D
:1026000010B50022002340F66A14A14200D100BF99
:102610000A1201249440A3B2DC43048010BD21B10E
:10262000828942F40052828104E082894DF6FF7370
:102630001A40828170471AB1838A0B43838202E079
:10264000838A8B438382704770B50246002400233F
:102650000025002040F66A16B14200D100BFC1F348
:10266000421501F01F03012606FA03F3012D02D1E2
:102670009689334006E0022D02D1168A334001E0EC
:10268000968A33400C12012606FA04F41688344068
:1026900013B10CB1012000E0002070BDF0B503467D
:1026A000002400260025002040F66A17B94200D118
:1026B00000BF1846C1F3421401F01F06012707FAB4
:1026C00006F5012C01D10C3004E0022C01D11030B0
:1026D00000E014301AB107682F43076002E0076872
:1026E000AF430760F0BD00002DE9F04786B0054616
:1026F0000E460024A24600BFA1460027B08900B1C3
:1027000000BF2F462C8A4CF6FF700440F08804432B
:102710002C82AC894EF6F3100440B088318908430E
:10272000718908430443AC81AC8A4FF6FF400440F2
:10273000B0890443AC8201A8FFF72AF91F488742F9
:1027400002D1DDF810A001E0DDF80CA0A88900F4AA
:10275000004040B10AEBCA0000EB0A1031684900A2
:10276000B0FBF1F807E00AEBCA0000EB0A10316891
:102770008900B0FBF1F86420B8FBF0F004012009F7
:10278000642101FB1089A88900F4004040B1322087
:1027900000EBC900B0FBF1F000F00700044308E0D3
:1027A000322000EB09106421B0FBF1F000F00F00C3
:1027B00004432C8106B0BDE8F087000000380140DA
:1027C00000BFFEE710B56FF00400FFF72DFC1048C6
:1027D00000681049B0FBF1F00F4908700C48006820
:1027E0000C49B0FBF1F44FF47A70444301200B49DB
:1027F00008804FF0E020006940F002004FF0E02137
:10280000086108464461006940F00100086110BD9C
:102810000400002000127A00180000201A00002096
:1028200070B504460E480078012811D10D48008883
:10283000844206DB0B48008894FBF0F52846FEF73F
:1028400003FC0848008894FBF0F100FB114084B2BF
:102850004FF47A7104FB01F000F006F870BD00003F
:102860005E0000201A00002070B5034600224FF0E1
:10287000E02675690E4E367803FB06F400BF4FF074
:10288000E026B16910E04FF0E026B06988420BD035
:10289000884202D20E1A324402E02E1A0E4432440A
:1028A0000146A24200D300E0EDE700BF70BD00008A
:1028B0001800002010B5FDF761FDFEF76DF80A2342
:1028C000044A00210448FEF7EDF9FEF79FF90020C5
:1028D00010BD00007C010020DD28000870B5044612
:1028E000002500BFFEF7B6F9FDF790FC0546012371
:1028F0000B4A00210B48FEF7D5F902230A4A0021B2
:102900000A48FEF7CFF90323094A00210948FEF7D8
:10291000C9F90A20FEF742FB2846FDF77BFC70BD93
:102920007C030020C12000087C0500207D210008D8
:102930007C0700203924000810B586B00446012128
:1029400044F20400FFF70EF818208DF817004FF43A
:102950000070ADF8140001208DF8160005A91D487F
:10296000FDF7E6FE4FF48060ADF8140004208DF80A
:10297000170005A91748FDF7DBFE25208DF800009C
:1029800001208DF8010000208DF8020001208DF853
:1029900003006846FDF7BEFF01940020ADF8080073
:1029A000ADF80A00ADF80C00ADF810000C20ADF841
:1029B0000E0001A90848FFF797FE012240F22441CA
:1029C0000548FFF76BFE01210348FFF728FE06B01C
:1029D00010BD0000000801400038014010B586B06D
:1029E000044601210420FEF7BDFF01214804FEF743
:1029F000A9FF18208DF817000420ADF8140001205D
:102A00008DF8160005A91C48FDF792FE0820ADF8C8
:102A1000140004208DF8170005A91748FDF788FE5B
:102A200026208DF8000002208DF8010000208DF88E
:102A3000020001208DF803006846FDF76BFF01944A
:102A40000020ADF80800ADF80A00ADF80C00ADF8B4
:102A500010000C20ADF80E0001A90848FFF744FE55
:102A6000012240F224410548FFF718FE01210348E6
:102A7000FFF7D5FD06B010BD00080140004400403E
:102A800010B586B0044601218804FEF75BFF0121E2
:102A90000820FEF767FF10208DF817000220ADF820
:102AA000140003208DF8160005A92648FDF740FE06
:102AB0004FF48060ADF8140003208DF81600182044
:102AC0008DF8170005A91F48FDF732FE4FF400608E
:102AD000ADF8140004208DF8170005A91948FDF77A
:102AE00027FE27208DF8000003208DF8010000202C
:102AF0008DF8020001208DF803006846FDF70AFFFB
:102B000001944FF48050ADF808000020ADF80A00A1
:102B10004FF48060ADF80C000020ADF810000C20E0
:102B2000ADF80E0001A90848FFF7DEFD012240F2D2
:102B300024410548FFF7B2FD01210348FFF76FFD6F
:102B400006B010BD000C0140004800400003030621
:102B500001040602050003051F1C1F1E1F1E1F1F68
:102B60001E1F1E1F000001000200010003000100E3
:102B70000200010004000100020001000300010046
:102B80000200010005000100020001000300010035
:102B90000200010004000100020001000300010026
:102BA0000200010006000100020001000300010014
:102BB0000200010004000100020001000300010006
:102BC00002000100050001000200010003000100F5
:102BD00002000100040001000200010003000100E6
:102BE00002000100070001000200010003000100D3
:102BF00002000100040001000200010003000100C6
:102C000002000100050001000200010003000100B4
:102C100002000100040001000200010003000100A5
:102C20000200010006000100020001000300010093
:102C30000200010004000100020001000300010085
:102C40000200010005000100020001000300010074
:102C50000200010004000100020001000300010065
:102C600002000100842C0008000000208000000009
:102C70006C010008042D000880000020281B0000C3
:102C8000880100080000000000A24A0400000000C3
:102C9000000000000102030406070809000000000C
:102CA000000000000000000000000000010203041A
:102CB00001020304060708090204060800000000D8
:102CC0000000000000000000000000000000000004
:102CD00000000000000000000000000000000000F4
:102CE00000000000000000000000000000000000E4
:102CF00000000000000000000000000000000000D4
:042D000000000000CF
:0400000508000131BD
:00000001FF
