:020000040800F2
:10000000382200200D020008570B0008150B0008CD
:10001000530B0008DD050008E1290008000000007E
:1000200000000000000000000000000001220008A5
:1000300071090008000000009B0200081523000859
:100040002702000827020008270200085D20000898
:1000500027020008270200082702000827020008DC
:100060002702000827020008750900082702000877
:1000700027020008270200082702000827020008BC
:1000800027020008270200082702000827020008AC
:10009000270200082702000827020008270200089C
:1000A000270200082702000827020008270200088C
:1000B000270200082702000827020008270200087C
:1000C000270200082702000827020008270200086C
:1000D0002702000871260008ED2600087D27000889
:1000E000270200082702000827020008270200084C
:1000F000270200082702000827020008270200083C
:10010000270200082702000827020008270200082B
:10011000F52500082702000827020008270200082A
:10012000270200082702000827020008270200080B
:1001300000F002F800F05AF80AA090E8000C82449F
:100140008344AAF10107DA4501D100F04FF8AFF27C
:10015000090EBAE80F0013F0010F18BFFB1A43F0A5
:10016000010318476C3400008C3400000A444FF03F
:10017000000C10F8013B13F0070408BF10F8014B06
:100180001D1108BF10F8015B641E05D010F8016B4B
:10019000641E01F8016BF9D113F0080F1EBF10F8AF
:1001A000014BAD1C0C1B09D16D1E58BF01F801CBD2
:1001B000FAD505E014F8016B01F8016B6D1EF9D555
:1001C0009142D6D37047000000230024002500266A
:1001D000103A28BF78C1FBD8520728BF30C148BFAA
:1001E0000B6070471FB51FBD10B510BD00F02EF994
:1001F0001146FFF7F7FF02F099FC00F04CF903B449
:10020000FFF7F2FF03BC00F051F9000009488047F6
:1002100009480047FEE7FEE7FEE7FEE7FEE7FEE7E8
:10022000FEE7FEE7FEE7FEE704480549054A064B00
:10023000704700002523000831010008381C002009
:1002400038220020381E0020381E0020EFF31080D6
:1002500072B6704780F310887047204C204D25609F
:100260004FF0000484F309881E4C4FF001052570FF
:100270001D4C4FF08055256062B6FEE730B41A4C35
:100280004FF08055256030BC704730B4164C4FF0AD
:100290008055256030BC704700BF72B6EFF309800F
:1002A00028B1203880E8F00F10490968086000B5CF
:1002B0000F4880475DF804EB0E480F490A7802703A
:1002C0000A480E490A680260106890E8F00F203072
:1002D00080F309884EF0040E62B6704720ED00E00E
:1002E0000000FFFF3601002004ED00E03C0100208B
:1002F000ED1200082B0100202C01002044010020F9
:1003000040EA010310B59B070FD1042A0DD310C892
:1003100008C9121F9C42F8D020BA19BA884201D9E4
:10032000012010BD4FF0FF3010BD1AB1D30703D02C
:10033000521C07E0002010BD10F8013B11F8014BE2
:100340001B1B07D110F8013B11F8014B1B1B01D1FE
:10035000921EF1D1184610BD032A40F2308010F0F1
:10036000030C00F0158011F8013BBCF1020F624450
:1003700098BF11F801CB00F8013B38BF11F8013BE1
:10038000A2F1040298BF00F801CB38BF00F8013B8E
:1003900011F0030300F02880083AC0F0088051F8FB
:1003A000043B083A51F804CBA0E80810F5E7121D09
:1003B0005CBF51F8043B40F8043BAFF30080D20728
:1003C00024BF11F8013B11F801CB48BF11F8012BF4
:1003D00024BF00F8013B00F801CB48BF00F8012B17
:1003E000704770477047704710B5203AC0F00B80D7
:1003F000B1E81850203AA0E81850B1E81850A0E829
:100400001850BFF4F5AF5FEA027C24BFB1E8185082
:10041000A0E8185044BF18C918C0BDE810405FEAF2
:10042000827C24BF51F8043B40F8043B08BF70476E
:10043000D20728BF31F8023B48BF11F8012B28BF73
:1004400020F8023B48BF00F8012B7047754600F0CA
:1004500029F8AE4605006946534620F00700854658
:1004600018B020B5FFF7E0FEBDE820404FF00006D1
:100470004FF000074FF000084FF0000B21F007018C
:10048000AC46ACE8C009ACE8C009ACE8C009ACE8CF
:10049000C0098D4670470446AFF300802046FFF741
:1004A000AEFE000000487047D81B0020014918200C
:1004B000ABBEFEE72600020070470000017801F0A5
:1004C0000F012F4A11700178C1F3001151700178AA
:1004D000C1F34011917001788911D170417801F018
:1004E000070111714178C1F3C10151714178C1F324
:1004F0004011917141788911D171817801F00F011A
:100500001172817809115172C17801F0070191725D
:100510008179D1721146B0F807208A81B0F809209C
:10052000CA81B0F80B200A82417B154A917402F10E
:100530001301D0F80E200A60428A8A801339828A19
:10054000A1F81920C28AA1F81B20028BA1F81D2056
:10055000827ECA77B0F81B200A84427F81F822206D
:100560002331D0F81E200A60D0F822204A6090F88B
:1005700026200A722339B0F827208A8570470000A8
:10058000580A002010B5012001F05EFB002001F0A8
:100590005BFB10BD08B501460020009003480090A9
:1005A0000098084400900098008808BD006C004046
:1005B00008B500220092044A0092009A0244009278
:1005C000009A116008BD0000006C004010B502F0F8
:1005D0001BFA02F0BFFA00F0BFFA10BD00BFFEE741
:1005E00010B5002000F072FB0549C86080208870BB
:1005F000044848600448886000200870487010BDB6
:100600004C0B00208C0B00200C0C002010B500209F
:1006100000F05CFB0549C860802088700448486091
:100620000448886000200870487010BD5C0B0020F2
:100630008C0C00200C0D002010B5002000F046FBB3
:100640000549C86080208870044848600448886074
:1006500000200870487010BD6C0B00208C0D00202D
:100660000C0E002010B5002000F030FB0549C860DA
:100670008020887004484860044888600020087022
:10068000487010BD7C0B00208C0E00200C0F002049
:1006900021B1026842F00102026004E002684FF6F4
:1006A000FE731A400260704701684FF6FE721140F7
:1006B00001600021016041608160C1604B49884256
:1006C00008D14A490839496841F00F01474A083AB8
:1006D00051608AE045491431884208D143490839BC
:1006E000496841F0F001414A083A51607DE03F49D4
:1006F0002831884208D13D490839496841F4706180
:100700003A4A083A516070E038493C31884208D191
:1007100036490839496841F47041344A083A516011
:1007200063E032495031884208D13049083949687C
:1007300041F470212D4A083A516056E02B4964314A
:10074000884208D129490839496841F47001274A8B
:10075000083A516049E025497831884208D1234957
:100760000839496841F07061204A083A51603CE01C
:100770001F49884206D1011F096841F00F01021F7D
:10078000116032E01A491431884208D11849091F12
:10079000096841F0F001164A121F116025E0144962
:1007A0002831884208D11249091F096841F4706153
:1007B0000F4A121F116018E00D493C31884208D1E0
:1007C0000B49091F096841F47041094A121F116061
:1007D0000BE007495031884207D10549091F0968D4
:1007E00041F47021024A121F116070470800024054
:1007F000080402400146486880B2704710B50022E4
:10080000026847F6F0739A430C6A8B6823430C69BD
:1008100023434C6923438C692343CC6923434C6AAB
:1008200023438C6A23431A430260CB6843600B68FE
:1008300083604B68C36010BDF0B58BB007460D46B2
:1008400016461C460121084601F0CEF9012102207E
:1008500001F0CAF90D4804803846FFF725FF0095DE
:1008600001960020029003940490802005900020BF
:100870000690079008904FF40050099000200A90CD
:1008800069463846FFF7BAFF0BB0F0BDF400002010
:1008900010B50446012C06D0022C17D0032C2BD007
:1008A000042C52D13EE000212948FFF7F1FE2948EF
:1008B0000188274800F05AF801224021264801F01B
:1008C000BAFF01212248FFF7E3FE3FE00021204864
:1008D0001430FFF7DDFE1F4801881D48143000F07A
:1008E00045F8012240211D4801F0A5FF01211848CB
:1008F0001430FFF7CDFE29E0002115482838FFF716
:10090000C7FE144801881248283800F02FF8012249
:100910004021134801F08FFF01210D482838FFF7CF
:10092000B7FE13E000210F48FFF7B2FE0948018827
:100930000C4800F01BF8012240210B4801F07BFF1E
:1009400001210848FFF7A4FE00E000BF00BF10BD72
:1009500058000240F40000200038014000440040EC
:100960000048004030040240004C004041607047A5
:100970007047000010B500F04FF9102000F01EF88D
:1009800070B11021084800F0B8F818B901200749E3
:10099000087002E0002005490870102000F008F8F7
:1009A00000F04CF910BD0000000C0140F6000020E2
:1009B000014908607047000014040140014600200E
:1009C0000022074B1B6803EA0102054B14331B6826
:1009D0000B4013B10AB1012000E000207047000075
:1009E000000401402DE9F0410246002500260020C8
:1009F00000230024002791F803C00CF00F0591F8A4
:100A000003C00CF0100CBCF1000F03D091F802C031
:100A10004CEA050591F800C0BCF1000F31D0146814
:100A200000202BE04FF0010C0CFA00F3B1F800C0ED
:100A30000CEA03069E4220D183004FF00F0C0CFA03
:100A400003F7BC4305FA03FC4CEA040491F803C025
:100A5000BCF1280F06D14FF0010C0CFA00FCC2F8D3
:100A600014C00AE091F803C0BCF1480F05D14FF063
:100A7000010C0CFA00FCC2F810C0401C0828D1D3AD
:100A80001460B1F800C0BCF1FF0F34DD54680020E1
:100A90002EE000F1080C4FF0010808FA0CF3B1F851
:100AA00000C00CEA03069E4221D183004FF00F0CD8
:100AB0000CFA03F7BC4305FA03FC4CEA040491F872
:100AC00003C0BCF1280F05D100F1080C08FA0CF89E
:100AD000C2F8148091F803C0BCF1480F07D100F1AF
:100AE000080C4FF0010808FA0CF8C2F81080401CFE
:100AF0000828CED35460BDE8F081024600209368F8
:100B00000B400BB1012000E00020704741617047AD
:100B10000161704700BFFEE70146CA1701EB927200
:100B20009210A1EB820292B9642091FBF0F200FBDB
:100B3000121050B94FF4C87091FBF0F200FB121084
:100B400008B9012070470020FCE70120FAE70020E7
:100B5000F8E700BFFEE7704710B54FF4407000F0B3
:100B600039F810BD70B5002100230F22C47804B3FA
:100B7000154C246804F4E064C4F5E064210AC1F172
:100B80000403CA40447804FA03F1847814402143F2
:100B900009010E4C0678A155047804F01F050124C4
:100BA000AC4005786D11AD0005F1E025C5F80041B8
:100BB00009E0047804F01F050124AC40044D0678D8
:100BC000761145F8264070BD0CED00E000E400E031
:100BD00080E100E002490143024A116070470000D1
:100BE0000000FA050CED00E010B500F013F800F07D
:100BF00079FD00F0A1FD00F0C1FD00F049FD00F01D
:100C00001BFD00F055FE00F0F9FD00F01FFE00F0A6
:100C100002F810BD7047704706480078012808D1D7
:100C200005480078FF2804D203480078401C024998
:100C300008707047360100202901002010B50024FB
:100C40001A480078012830D1FFF700FB0446184805
:100C5000007820B116480078401E154908701448E5
:100C60000078F8B913480078E0B900F083FE124824
:100C70001249097850F82100114908600F4800789E
:100C80001049097888420DD00D480068806B401CDF
:100C90000B49096888630C480068401C0A490860D1
:100CA000FFF7F3FA2046FFF7D5FA10BD3601002012
:100CB000290100202A010020701600202C010020AC
:100CC000440100202B0100201001002070B50546D2
:100CD00000260F48007808B1002070BDFFF7B6FA73
:100CE00006460C480468006820B10A48006840685D
:100CF000084908603046FFF7ADFA3CB10320207088
:100D0000258100206060204600F088FC2046E4E752
:100D100029010020140100202DE9F04105460E466E
:100D2000144600272878032803D001202070BDE84E
:100D3000F0813148007810B102202070F7E72F4889
:100D4000007810B10D202070F1E7FFF77FFA074619
:100D5000288940B12889401E28813846FFF77AFA51
:100D600000202070E3E72648006890F8300040F04B
:100D700001002349096881F83000002020490968F2
:100D800081F831001E480068C662284600F008FC61
:100D90003846FFF75FFA00F0B3FDFFF757FA074652
:100DA0001748006890F8310020B1012809D00228C6
:100DB00006D102E0002020700BE00E20207008E039
:100DC00000BF29460E48006800F0D4FB0A202070BE
:100DD00000BF00BF00200A49096881F830000849B7
:100DE000096881F8310006490968C8613846FFF78B
:100DF00031FA00BF9BE70000290100202A010020F2
:100E00003C01002070B5044600252078032801D05D
:100E1000012070BDFFF71AFA0546A07A60B10023E1
:100E200001221946204600F063FB2846FFF712FA1C
:100E300000F066FD0020ECE720894FF6FF71884244
:100E400007D22089401C20812846FFF703FA0020A2
:100E5000DFE72846FFF7FEF93320DAE710B5002078
:100E6000FFF734FF0D4908600020FFF72FFF0C4902
:100E700008600020FFF72AFF0A4908600020FFF7FA
:100E800025FF094908600020FFF720FF0749086097
:100E90000020FFF71BFF0649086010BD040000207A
:100EA000080000200C00002010000020140000208A
:100EB0001800002010B50B48007890B900F05AFDDA
:100EC000094800780949087009480749097850F825
:100ED0002100084908600846006807490860FFF7D4
:100EE000BCF910BD360100202C0100202B01002090
:100EF00070160020440100203C01002010B50024A1
:100F0000022000F0F5F9FFF7A1F9044600200B4993
:100F100008602046FFF79EF9642000F0E9F9FFF72A
:100F200095F904460548006805490860012005490F
:100F300008702046FFF78EF910BD00003801002030
:100F40002001002028010020704700002DE9FE4FFD
:100F500006460F4690461C464FF00009FFF776F90B
:100F600081461F48007828B14846FFF773F93C20B6
:100F7000BDE8FE8F1B4850F8240060BB01201949D2
:100F800041F824004846FFF765F9002342463946F8
:100F9000304600F009F98246002000900190034697
:100FA000024651460290204600F0FAFC054635B94B
:100FB0000D48007801280CD100F0A2FC09E0FFF7F1
:100FC00045F981460020074941F824004846FFF7CB
:100FD00041F92846CCE74846FFF73CF92820C7E707
:100FE0002901002070160020360100202DE9F04F65
:100FF00085B081468A4693461C46DDE90F78129DEE
:1010000000200390FFF722F903902348007830B1C5
:101010000398FFF71FF93C2005B0BDE8F08F1F488B
:1010200050F8240088BB01201C4941F82400039893
:10103000FFF710F92A464146384600F0C1FD2B461D
:101040005A465146484600F0AFF804901198CDE951
:10105000008002953A4620460E9B049900F0A0FCC1
:10106000064636B90E48007801280CD100F048FC3D
:1010700009E0FFF7EBF803900020084941F824004D
:101080000398FFF7E7F83046C6E7FFE70398FFF756
:10109000E1F82820C0E70000290100207016002098
:1010A00036010020704770472DE9F04106460F4693
:1010B00014464FF000081548007818B1122020702F
:1010C000BDE8F081FFF7C2F88046FF2E03D110483B
:1010D000006890F832600F4850F826502DB940460D
:1010E000FFF7B8F843202070EAE7012D05D140460C
:1010F000FFF7B0F843202070E2E7EF644046FFF7C7
:10110000A9F80020207000BFDAE7000029010020C4
:101110003C01002070160020704700002DE9F047C8
:1011200007460D464FF0000A002028606860FFF770
:101130008DF88246FF2F03D11948006890F832706D
:10114000184850F827402CB95046FFF783F8432041
:10115000BDE8F087012C04D15046FFF77BF843200F
:10116000F6E7207C00F0010020B95046FFF772F846
:101170004520EDE70026D4F80C90D4F808805046BE
:10118000FFF768F800E0761C58F8041B0029FAD035
:10119000B0002860A9EB0600800068600020D7E757
:1011A0003C0100207016002070B5044610464FF038
:1011B00080750560051F28462C606FF00106051F2D
:1011C00028462E604FF01236051F28462E604FF03D
:1011D0000336051F28462E604FF00236051F2846AD
:1011E0002E607610051F28462E60051F28462960B0
:1011F0004FF01136051F28462E604FF01036051FA0
:1012000028462E604FF00936051F28462E604FF005
:101210000836051F28462E604FF00736051F284662
:101220002E604FF00636051F28462E604FF005361B
:10123000051F28462E604FF00436051F28462E60F5
:1012400070BD00002DE9F04105464FF00008FEF7A3
:10125000FDFF8046FF2D05D12048006890F83250F0
:10126000012608E01D48006890F83200A84201D12C
:10127000012600E000261A4850F825402CB94046C7
:10128000FEF7E8FF4820BDE8F081012C04D140467C
:10129000FEF7E0FF4320F6E794F834701148C05D94
:1012A00094F8351088430F49C8550846C05D30B9D9
:1012B00094F836100C48007888430B49087094F86D
:1012C000300040F0080084F830004046FEF7C2FFCE
:1012D000012E01D100F014FB0020D4E73C010020D6
:1012E000701600202E0100202D0100207047000004
:1012F00070B5054600261748007800B170BD164845
:10130000007800B1FAE71DB3FEF7A0FF06461348C8
:10131000006890F834401248005D1049096891F85F
:10132000351088430E4908550846005D40B90B4802
:10133000006890F836100B48007888430949087017
:1013400006480068C5623046FEF784FF00F0D8FA10
:1013500000BFD3E7290100202A0100203C01002022
:101360002E0100202D0100202DE9F04105460E46FA
:1013700017461C461248007810B15520BDE8F08190
:101380001048007808B13220F8E74FF47A706043D3
:101390004FF47A71B0FBF1F14FF461606843C6EB32
:1013A000061200EB8200384400EB4002C2EBC01092
:1013B00001EBC0084046FFF79BFF0020DEE700007E
:1013C000290100202A01002070B50025FEF73EFF0C
:1013D0000546034804682846FEF73CFF204670BDDA
:1013E0005401002070B504460025FEF72FFF054686
:1013F000024804602846FEF72DFF70BD540100200E
:1014000070B5002600F072F8FEF720FF064631485E
:101410000068401C2F4908603046FEF71BFF2E482D
:101420000078012853D12D48007820B1012804D03C
:10143000022809D103E001250BE0002509E0012580
:1014400001202649087004E0012500202349087086
:1014500000BF00BF05B970BD2148046833E0FEF746
:10146000F5FE0646E06A50B3E06A401EE062E06ABC
:1014700028BB94F8300000F0370040B114F8300F6A
:1014800000F0C800207001206070303C02E00020B5
:1014900084F8310094F8300000F0080078B9343452
:1014A000A0781049097808430E49087020780E4941
:1014B000085C6178084314F834190B4A5054646985
:1014C0003046FEF7C7FE94F832003F28C7D100BF70
:1014D000C1E7000054010020360100204C0100202B
:1014E000480100202D0100202E010020704700003F
:1014F0002DE9F04F05460F4690469946A87A1949BE
:101500000E5C05F10B00805D11F800B00BEBC6001E
:1015100000F0FF0A144850F82A4000202034E06010
:101520002760207C20EA0800207484F81190207C39
:10153000203C00F0080068B994F836000B4909789F
:1015400008430A4908700A48805D94F8351008433A
:10155000074988552946204600F00CF85046BDE85A
:10156000F08F0000D0340008701600202D010020FC
:101570002E01002010B590F8342001F10B039B5C84
:1015800090F83540A34301F10B04A35423469B5C20
:1015900023B98B7A90F83640A3438B7210BD0000BC
:1015A00010B51B4A1268D061194A126892F834309B
:1015B00000F10B02D25C164B1B6893F835301A43CE
:1015C000134B1B6893F8344000F10B031A55827AD1
:1015D0000F4B1B6893F836301A4382720C4A12681C
:1015E00092F834100B4A525C094B1B6893F8353063
:1015F0009A43084B5A541A46525C42B9044A12683C
:1016000092F83630044A12789A43034B1A7010BD90
:101610003C0100202E0100202D0100200146002267
:101620008A72002005E0002301F10B021354421CD2
:10163000D0B20828F7D370472DE9F0415021114866
:1016400000F02CF900250DE0681C86B20D4800EB77
:10165000051400EB06170020207067600AA0E06008
:10166000681C85B2042DEFD3064800EB051400205A
:101670002070606004A0E060024804490860BDE892
:10168000F0810000201200203F000000180100201F
:1016900070B54FF42071114800F000F900230FE0FD
:1016A000581C85B203EB83000C4901EB800405EB69
:1016B000850001EB8006002020706660581C83B214
:1016C0001F2BEDD303EB8300044901EB80040020C2
:1016D0002070606008460249086070BDA00F0020BD
:1016E0001401002000200A4908600A4908700A49CC
:1016F00008700A4908700A4908700A4908600A49CE
:1017000008600A4908600A4908600A490870704779
:1017100054010020290100202A0100203701002067
:101720003601002010010020380100202401002093
:10173000200100202801002000210A4A1170002009
:1017400004E00021084A1154411CC8B20828F8D30B
:101750000021064A1170064A1170064A1160064AB5
:10176000116070472D0100202E0100202B01002068
:101770002C010020440100203C01002070B54FF4F2
:101780007C71194800F08AF84FF48071174800F016
:1017900085F8002413E0601CC5B2C4EBC40000EB64
:1017A0004000114901EB8003C5EBC50000EB400090
:1017B00001EB80065E610EA0D864601CC4B20B2CE5
:1017C000E9D3C4EBC40000EB4000074901EB800300
:1017D0000020586106A0D86400200649086002482D
:1017E0000549086070BD00007017002070160020C9
:1017F0003F000000480100204001002000B587B0F4
:101800000320002180220A4BCDE90132CDE90310EB
:101810004FF6FF703F23074A00900748FFF7E6FBAB
:1018200006AA06A13F20FFF73FFC07B000BD00005D
:10183000701400206C160020D51A000875432F4F35
:10184000532D49492049646C6500000000B587B0FC
:101850000320002180220A4BCDE90132CDE903109B
:101860004FF6FE703E23074A00900748FFF7BEFB85
:1018700006AA06A13E20FFF717FC07B000BD000036
:10188000701200206C140020FD1A000875432F4FC1
:10189000532D4949205374617400000004E0002274
:1018A00000F8012B4A1E91B20029F8D170470000C0
:1018B0002DE9F04178211048FFF7F0FF00240DE0FA
:1018C000601C86B204EB44000B4901EBC00506EB3B
:1018D000460001EBC0072F60601C84B2042CEFD3DC
:1018E00004EB4400044901EBC005002028600846D1
:1018F00002490860BDE8F081601B00205001002013
:1019000010B50024FEF7A2FC044613480078F8B98D
:1019100012480078E0B900F02DF811481149097813
:1019200050F82100104908600E4800780F490978E6
:1019300088420DD00C480068806B401C0A49096839
:1019400088630B480068401C09490860FEF796FC54
:101950002046FEF77FFC10BD290100202A0100204F
:10196000701600202C010020440100202B010020D3
:10197000100100200649074A1278885C0649095C74
:10198000034A515C01EBC001044A1170704700002A
:10199000D03400082D0100202E0100202C01002051
:1019A0002DE9F84F05460F4690469946DDE90AAB0A
:1019B00000200090FEF74AFC00903F480468002C8D
:1019C00074D0183454F8040C3B4908600098FEF7B2
:1019D00041FC44F8187CA576002020766076606192
:1019E00044F814BC44F80CAC44F8108C0C9824F85F
:1019F000080C24F8069C0020E077E810207705F01A
:101A00000700E076217F01208840A077E17E012059
:101A10008840607700206060E060A0602062A06283
:101A20006062E062206325A06063183C002606E047
:101A3000002104F1500040F82610701CC6B2002EA0
:101A4000F6D02046FFF780FA2046FFF72BFBFEF783
:101A5000FDFB00901A4840F825401A480068606174
:101A60000020A0611748006810B116480068846122
:101A7000144804603434A0781349097808431249A3
:101A8000087020781149085C6178084314F834190B
:101A90000E4A50540E480078401C0D4908700098BA
:101AA000FEF7D8FB0020BDE8F88FFFE70098FEF7AF
:101AB000D1FB4220F7E70000400100203F0000007A
:101AC00070160020480100202D0100202E0100206A
:101AD00037010020002400BF00BFFEF7B7FB04461B
:101AE00005480068401C044908602046FEF7B2FB28
:101AF000FFF7D9FAF1E7000038010020002400BF09
:101B000002E0C820FFF7F4FB194800780028F8D05D
:101B1000184800686421B0FBF1F0164908600846D7
:101B2000006828B9002014490870FF20FFF78AFBDD
:101B300000BFFEF78BFB04461048006810490860A0
:101B400000200E4908602046FEF784FB0C48006820
:101B500008490968B0FBF1F0C0F16400064908705B
:101B6000FFF7DAFA00F00EF86420FFF7C1FBE0E7B8
:101B700028010020200100201C0100203801002045
:101B8000240100207CB5002514E069462846FFF7B3
:101B9000C5FA064666B9094850F8254044B1012CFB
:101BA00006D0D4E9020100EB810060640198A064D2
:101BB000681CC5B23F2DE8D97CBD0000701600201E
:101BC00002F0010343B102F002032BB102E0491E0F
:101BD000002308C00029FAD17047000001490862BB
:101BE0007047000000000E4229B1064A52690243C4
:101BF000044B5A6104E0034A52698243014B5A6123
:101C0000704700000010024029B1064AD269024321
:101C1000044BDA6104E0034AD2698243014BDA6182
:101C2000704700000010024029B1064A9269024341
:101C3000044B9A6104E0034A92698243014B9A6122
:101C40007047000000100240014908607047000022
:101C50004004424230B500210022002400232D4DD3
:101C60006D6805F00C0121B1042905D0082923D1A4
:101C700005E0294D056022E0274D05601FE0254D58
:101C80006D6805F47012234D6D6805F480340225EB
:101C900005EB92421CB9214D554305600BE01D4DEB
:101CA0006D6805F400351DB11C4D5543056002E01B
:101CB000194D5543056002E0174D056000BF00BF98
:101CC000144D6D6805F0F0010909154D6B5C056850
:101CD000DD4045600F4D6D6805F4E061090A104D67
:101CE0006B5C4568DD4085600A4D6D6805F46051A8
:101CF000C90A0B4D6B5C4568DD40C560054D6D68DC
:101D000005F44041890B074D6B5CC568B5FBF3F5E5
:101D1000056130BD0010024000127A0000093D004C
:101D2000FC0000200C01002010B501460022002319
:101D300000204A11012A02D1094C236806E0022A38
:101D400002D1074C236A01E0054C636A01F01F02CF
:101D5000012494401C400CB1012000E0002010BD83
:101D600000100240014908607047000080044242B0
:101D700001490860704700003C0442420249096A78
:101D80000143014A1162704700100240024909886C
:101D90008143014A11807047042800407CB500242B
:101DA0000420FEF7F7FB45F2510188424AD0012199
:101DB0004FF0C050FFF728FF0120FFF70FFFFEF79D
:101DC000E1FB0120FFF7CEFF04E0601CC4B20A2053
:101DD00000F048FE6120FFF7A7FF08B9FA2CF4DBFA
:101DE000FA2C01DB01207CBD4FF40070FFF7C6FF29
:101DF0000120FFF7BDFF00F0E7F900F0EFF9012146
:101E0000084600F039F900F0DFF900F03BF849F638
:101E10003F4000F0C9F900F0D7F919488078184917
:101E20004978174DCDE900102B78EA79A979A8886F
:101E300000F048F900F030F845F250010420FEF7B8
:101E4000B7FB16E000F01EF80D4880780C49497881
:101E50000B4DCDE900102B78EA79A979A88800F01C
:101E600031F900F019F80121084600F005F900F0F9
:101E7000ABF900F015F900F019F80020B3E7000005
:101E8000960F00200348008840F0100001490880A8
:101E90007047000004280040034800884FF6EF71A7
:101EA00008400149088070470428004070B50026AA
:101EB0000024002500F07AF806463848B6FBF0F416
:101EC00037480088A0423CD035490C8040F2B275BA
:101ED00010E02846FEF720FE40B1B4F5B77F02D3EC
:101EE000A4F5B77404E0681C85B206E0A4F26D1492
:101EF000681C85B2B4F5B67FEBD800BF2948858051
:101F0000002516E027498888FEF706FE30B1012D2E
:101F100004D11D2C01D31D3C09E00CE02248405D9A
:101F2000A04203D82048405D241A00E003E0681C6A
:101F300085B21C2CE6D200BF681C1A498871601C4F
:101F4000C8711648B6FBF0F100FB11644FF46160F4
:101F5000B4FBF0F0134908704FF46160B4FBF0F18A
:101F600000FB11403C21B0FBF1F00E4948704FF4EA
:101F70006160B4FBF0F100FB11403C21B0FBF1F2D9
:101F800001FB1200074988700B46DA799979988825
:101F900000F028F803490872002070BD805101004C
:101FA000FA0000208C0F0020C434000800210348F0
:101FB0000188001F008841EA004070471C2800404B
:101FC00001460020064A12880A40D0B2044A121F75
:101FD00012880A4012B108B1012000E000207047C9
:101FE00004280040F0B503460C461546642093FBD8
:101FF000F0F0C6B2642093FBF0F700FB1730C1B2DB
:10200000132E02DD01F16400C1B20846CF1701EBC7
:10201000977701EBA707BAB2072092FBF0F700FB16
:10202000172082B25719601EDFF82CC01CF8000080
:10203000384482B2CF1701EB9777BF10A1EB870727
:102040001FB9032C01DA501E82B2072092FBF0F771
:1020500000FB1720C0B2F0BDB834000810B5012055
:10206000FFF7AEFF08B1FFF721FF0120FFF78EFE5B
:1020700000F0AAF810BD000029B1064A12880243F8
:10208000044B1A8004E0034A12888243014B1A80F1
:10209000704700000028004010B5FFF77FFE10BD1C
:1020A00008B503208DF8000006208DF801000020FF
:1020B0008DF8020001208DF803006846FEF752FDFE
:1020C00008BD00002DE9F05F06460F469046994690
:1020D000DDE90AAB002440F2B270864203DB40F631
:1020E0003300864202DD0120BDE8F09F40F2B27568
:1020F0000AE02846FEF710FD10B12048044401E034
:102100001F480444681C85B2B542F2DB781EC7B292
:10211000002510E01B48405D40F2A321484304EB3A
:10212000C0143046FEF7F8FC18B1012D01D1164855
:102130000444681C85B2BD42ECDBA8F1010040F20A
:10214000A321484304EBC014C9EB4910C0EB09209C
:1021500004EB0014CAEB0A1004EB80045C44012178
:102160004FF0C050FFF750FD0120FFF737FD20462C
:1021700000F00CF800F028F80020B5E70085E20137
:102180008033E101C43400088051010000B50246EB
:10219000FFF778FE100C03490880091D0A80FFF73D
:1021A0007BFE00BD1828004000B50246FFF76AFE1E
:1021B000C2F3034003490880091D0A80FFF76CFE43
:1021C00000BD00000828004000BF0348008800F060
:1021D00020000028F9D070470428004007480088F4
:1021E0004FF6F77108400549088000BF0348008892
:1021F00000F008000028F9D07047000004280040D3
:10220000704710B500F002F810BD00000CB50020BA
:10221000019000903348006840F4803031490860F4
:1022200000BF3048006800F4003000900198401C66
:102230000190009818B90198B0F5A06FF1D1294824
:10224000006800F4003010B10120009001E000208F
:1022500000900098012843D12348006840F0100006
:10226000214908600846006820F00300086008461D
:10227000006840F0020008601A4840681949486048
:102280000846406848600846406840F480604860FE
:102290000846406820F47C1048600846406840F4D6
:1022A000E81048600846006840F08070086000BF91
:1022B0000C48006800F000700028F9D00948406818
:1022C00020F00300074948600846406840F00200DB
:1022D000486000BF0348406800F00C000828F9D1AE
:1022E0000CBD00000010024000200240042808D16C
:1022F0004FF0E021096941F004014FF0E022116143
:1023000007E04FF0E021096921F004014FF0E022DD
:102310001161704710B5FEF77FFCFFF771F8FEF70B
:102320008DFC10BD10B51348006840F00100114944
:10233000086008464068104908400E494860084651
:1023400000680E4908400B4908600846006820F400
:10235000802008600846406820F4FE0048604FF482
:102360001F008860FFF74DFF4FF0006004490860D0
:1023700010BD0000001002400000FFF8FFFFF6FE55
:1023800008ED00E00024002500230122194618462C
:10239000FEF7EAFFFFF780FE00F0AEFB0020FFF73C
:1023A00021F801204A49087091E0012300221146DA
:1023B0001046FEF7D9FF47480068012802D1601C8B
:1023C000C4B200E000244348006841480078062871
:1023D0007BD2DFE800F07A031D7172733D4800681C
:1023E000A8B94FF480713C48FEF790FB32230022DD
:1023F00011461046FEF7B8FF4FF480713648FEF7DD
:1024000087FB0220324908700020344908705DE0E3
:102410003248007830B1012848D0022840D0042842
:1024200046D144E00A2000F0ADFD00B92CE02C4A72
:102430001178506800F0BAFB00B125E02948C07956
:10244000032805D12748008940F20121884200D0A5
:102450001AE0244890F88A0028B1224890F88A109F
:102460000A3000F0B7FD1F4890F88B0018B904201F
:102470001A49087007E01B4890F88B00012802D128
:1024800002201649087000BFFEF79EFF142806D3ED
:102490001548417800F09EFD0020FEF7A3FF08E0FC
:1024A0001DB901250020FEF79DFF02E001E000E0DC
:1024B00000BF00BF0AE008E008E007E00A2000F0E3
:1024C00011FD0A2000F036FD00E000BF00BF6CE700
:1024D0001C000020240122420008014000000020CE
:1024E0007C0B0020B60A00206A00002008B50020FE
:1024F000009020E00123002211461046FEF734FF31
:102500000D496A46C8680A21FEF706FC9DF80000DE
:1025100018B90A480068FEF775FC6A460A2108489F
:102520000068FEF7F9FB9DF8000020B9024A5178D7
:10253000906800F063FDDDE74C0B002004000020F4
:102540000800002008B50020009020E001230022B0
:1025500011461046FEF708FF0D496A46C8680A2171
:10256000FEF7DAFB9DF8000018B90A480068FEF78C
:1025700049FC6A460A2108480068FEF7CDFB9DF831
:10258000000020B9024A5178906800F067FDDDE74D
:102590007C0B0020140000201800002008B500204B
:1025A000009020E00123002211461046FEF7DCFED9
:1025B0000D496A46C8680A21FEF7AEFB9DF8000087
:1025C00018B90A480068FEF71DFC6A460A21084847
:1025D0000068FEF7A1FB9DF8000020B9024A51787F
:1025E000906800F023FDDDE75C0B00200C0000206C
:1025F0001000002010B50024FEF70EFB40F224412D
:10260000184800F02EF9012828D116480088C4B2D5
:102610001448001D0088C4B200211348FEF738F8A2
:10262000002240210F4800F006F90F48FEF7E2F8BB
:10263000C0F18000C4B280200B49091D08600B481E
:10264000047001224021074800F0F5F801210648F6
:10265000FEF71EF80549C868FEF7D4FBFEF7EEFA50
:1026600010BD0000004C0040300402407C0B0020F4
:1026700010B50024FEF7D0FA40F22441184800F0CB
:10268000F0F8012828D116480088C4B21448001D6B
:102690000088C4B200211348FDF7FAFF0022402150
:1026A0000F4800F0C8F80F48FEF7A4F8C0F180000A
:1026B000C4B280200B495839C8650B480470012208
:1026C0004021074800F0B7F801210648FDF7E0FF78
:1026D0000549C868FEF796FBFEF7B0FA10BD00008A
:1026E00000380140580002404C0B002010B5002477
:1026F000FEF792FA40F224411C4800F0B2F801289B
:1027000031D11A480088C4B21848001D0088C4B2EC
:1027100040F22441164800F073F800211548FDF7F7
:10272000B7FF00224021114800F085F81148FEF75C
:1027300061F8C0F18000C4B200200F494968085513
:1027400080200C496C3908670B4804700122402135
:10275000064800F070F801210648FDF799FF064988
:10276000C868FEF74FFBFEF769FA10BD0044004051
:10277000004800406C0002405C0B002010B50024B3
:10278000FEF74AFA40F224411A4800F06AF801289C
:102790002CD118480088C4B21648001D0088C4B265
:1027A00000211548FDF774FF00224021114800F078
:1027B00042F81148FEF71EF8C0F18000C4B20020B4
:1027C0000E494968085580200B49303948630B4849
:1027D000047001224021074800F02DF8012106482D
:1027E000FDF756FF0549C868FEF70CFBFEF726FA11
:1027F00010BD000000480040300002406C0B00207B
:1028000010B50022002340F66A14A14200D100BF97
:102810000A1201249440A3B2DC43048010BD21B10C
:10282000828942F40052828104E082894DF6FF736E
:102830001A40828170471AB1838A0B43838202E077
:10284000838A8B438382704702460020B1F5007F64
:1028500000D100BF13880B400BB1012000E0002025
:10286000704770B50246002400230025002040F682
:102870006A16B14200D100BFC1F3421501F01F0337
:10288000012606FA03F3012D02D19689334006E0B2
:10289000022D02D1168A334001E0968A33400C1291
:1028A000012606FA04F41688344013B10CB1012055
:1028B00000E0002070BDF0B503460024002600258E
:1028C000002040F66A17B94200D100BF1846C1F394
:1028D000421401F01F06012707FA06F5012C01D169
:1028E0000C3004E0022C01D1103000E014301AB199
:1028F00007682F43076002E00768AF430760F0BD39
:102900002DE9F04786B005460E460024A24600BFDA
:10291000A1460027B08900B100BF2F462C8A4CF693
:10292000FF700440F08804432C82AC894EF6F3100B
:102930000440B08831890843718908430443AC815D
:10294000AC8A4FF6FF400440B0890443AC8201A832
:10295000FFF780F91F48874202D1DDF810A001E09F
:10296000DDF80CA0A88900F4004040B10AEBCA00D1
:1029700000EB0A1031684900B0FBF1F807E00AEB00
:10298000CA0000EB0A1031688900B0FBF1F864203E
:10299000B8FBF0F004012009642101FB1089A8892B
:1029A00000F4004040B1322000EBC900B0FBF1F070
:1029B00000F00700044308E0322000EB0910642116
:1029C000B0FBF1F000F00F0004432C8106B0BDE82D
:1029D000F087000000380140C1F308028280704790
:1029E00000BFFEE770B504460D46681FC1B2E01C8B
:1029F00000F08DF80646A81E205CB04201D10120EF
:102A000070BD0020FCE7000010B56FF00400FFF778
:102A10006DFC104800681049B0FBF1F00F490870D8
:102A20000C4800680C49B0FBF1F44FF47A70444351
:102A300001200B4908804FF0E020006940F00200BF
:102A40004FF0E021086108464461006940F0010050
:102A5000086110BDDC00002000127A00F0000020A8
:102A6000F200002070B504460E480078012811D10C
:102A70000D480088844206DB0B48008894FBF0F583
:102A80002846FEF735FC0848008894FBF0F100FB6F
:102A9000114084B24FF47A7104FB01F000F006F8A3
:102AA00070BD000036010020F200002070B5034622
:102AB00000224FF0E02675690E4E367803FB06F4CF
:102AC00000BF4FF0E026B16910E04FF0E026B0699A
:102AD00088420BD0884202D20E1A324402E02E1AEB
:102AE0000E4432440146A24200D300E0EDE700BFAD
:102AF00070BD0000F000002070470146887A7047E2
:102B00000146087BCA7A00EB022080B2704710B5FC
:102B100002460B460021002004E0545C0444E0B26D
:102B20004C1CE1B29942F8DBC0B210BD10B5FDF704
:102B30004DFDFEF759F80A23044A00210448FEF728
:102B400005FAFEF7B7F9002010BD0000540200207E
:102B50008D30000808B501211420FFF765F84FF407
:102B60000070ADF8000004208DF8030003208DF8FC
:102B7000020069460B48FDF735FF4FF48070ADF851
:102B8000000010208DF8030003208DF80200694634
:102B90000548FDF727FF4FF480710348FDF7B6FFA6
:102BA00008BD0000001001400008014070B5044657
:102BB0000D462078682874D1681E205C1628FAD14A
:102BC00029462046FFF70EFF08B9002070BD2046B9
:102BD000FFF793FFBF49C8712046FFF791FFBD493A
:102BE0000881E0780870481C616801602189818053
:102BF000401EC079162870D2DFE800F00B25374060
:102C0000A1B3CF6F6F6F6F6F6F6F6F6FF1EFEEEDFF
:102C1000ECEBB0480089B0F5807F03D0B0F5007FC1
:102C20000ED106E00020AB4981F88B0081F88A00C4
:102C300007E00020A74981F88B0081F88A0000E0B6
:102C400000BF00BF42E1A3480089B0F5807F06D0F5
:102C5000B0F5007F04D0B0F5806F03D101E002E051
:102C600001E000E000BF00BF30E19A480089B0F504
:102C7000807F00D100E000BF00BF27E195480089B8
:102C800040F20142811A904255D012DCB0F5007F2B
:102C900025D007DCB0F5807F20D0A0F20110A8BBC2
:102CA00024E014E1A0F2012008B3A0F2FF1068BBF9
:102CB00016E041F6FF32881A914214D006DCA1F2E8
:102CC000FF3171B1B1F5006F36D10BE0B0F5005FA7
:102CD0000AD0B0F5C04F2FD107E0F6E02DE02CE090
:102CE0002BE02AE029E028E027E026E025E004F1B7
:102CF0000D00FDF7E3FB2E2277497848FDF700FB36
:102D000028B90020734981F88B0004E014E0012009
:102D1000704981F88B006F480078C1280AD11520CE
:102D20006C4981F88A00084690F88A206C490A307C
:102D3000FDF712FB01E000E000BF00BFC6E0654800
:102D40000089B0F5807F06D0B0F5007F04D0B0F5E3
:102D5000806F03D101E002E001E000E000BF00BFAE
:102D6000B4E05C480089B0F5806F10D006DCB0F5A7
:102D7000807F0AD0B0F5007F0CD107E0B0F5006F7E
:102D800006D0B0F5805F05D103E004E003E002E087
:102D900001E000E000BF00BF98E04E480089B0F5B8
:102DA000806F10D006DCB0F5807F0AD0B0F5007FD0
:102DB0000CD107E0B0F5006F06D0B0F5805F05D10B
:102DC00003E004E003E002E001E000E000BF00BF38
:102DD0007CE071E05EE054E041E020E0FFE73D4848
:102DE0000089B0F5006F14D009DCB0F5807F0DD0FC
:102DF000B0F5007F0BD0B0F5806F0DD108E0B0F5D5
:102E0000805F07D0B0F5005F06D104E005E004E084
:102E100003E002E001E000E000BF00BF56E02D4803
:102E20000089B0F5006F14D009DCB0F5807F0DD0BB
:102E3000B0F5007F0BD0B0F5806F0DD108E0B0F594
:102E4000805F07D0B0F5005F06D104E005E004E044
:102E500003E002E001E000E000BF00BF36E01D48F3
:102E60000089B0F5807F06D0B0F5007F04D0B0F5C2
:102E7000806F03D101E002E001E000E000BF00BF8D
:102E800024E014480089B0F5807F00D100E000BF45
:102E900000BF1BE00F480089B0F5807F06D0B0F579
:102EA000007F04D0B0F5806F03D101E002E001E0C3
:102EB00000E000BF00BF09E006480089B0F5807F50
:102EC00000D100E000BF00BF00E000BF00BF002055
:102ED0007CE60000B60A0020870A0020580A00207D
:102EE0002800002038B50446002000906A4621469C
:102EF0000C480068FDF710FF9DF8000080B90A4BF0
:102F00001A785968094B9868FDF726FA0648007840
:102F10000649487006480068FDF774FF012038BD77
:102F20000020FCE7040000204C0B00207C0B00205C
:102F30001800002038B50446002000906A4621465B
:102F40000C480068FDF7E8FE9DF8000080B90A4BC8
:102F50001A785968094B9868FDF7FEF90648007819
:102F60000649487006480068FDF74CFF012038BD4F
:102F70000020FCE70C0000205C0B00204C0B002024
:102F80000800002038B50446002000906A4621461B
:102F90000C480068FDF7C0FE9DF8000080B90A4BA0
:102FA0001A785968094B9868FDF7D6F906480078F1
:102FB0000649487006480068FDF724FF012038BD27
:102FC0000020FCE7140000207C0B00204C0B0020AC
:102FD0000800002070B505460C4606492246886860
:102FE0002946FDF7B9F90348447003480068FDF726
:102FF00009FF70BD7C0B00201800002070B505464D
:103000000E4600240CE0295D0748FFF7E5FC00BFF1
:1030100040210548FFF718FC0028F9D0601CC4B215
:10302000B442F0DB70BD00000038014070B50546C9
:103030000E4600240CE0295D0748FFF7CDFC00BFD9
:1030400040210548FFF700FC0028F9D0601CC4B2FD
:10305000B442F0DB70BD00000044004070B505468E
:103060000E4600240CE0295D0748FFF7B5FC00BFC1
:1030700040210548FFF7E8FB0028F9D0601CC4B2E6
:10308000B442F0DB70BD0000004C004070B5044657
:10309000002500BFFDF732FFFDF7D8F805460123F4
:1030A000104A00211048FDF751FF02230F4A00216A
:1030B0000F48FDF74BFF03230E4A00210E48FDF792
:1030C00045FF04230D4A00210D48FDF73FFF00F0A6
:1030D00087F9FDF7C3FE0A20FEF7B4F82846FDF78E
:1030E000B9F870BD54040020852300085406002060
:1030F000ED2400085408002045250008540A00204B
:103100009D25000810B586B0044601211020FEF769
:103110008BFD01210846FEF787FD0121C804FEF75B
:1031200073FD18208DF817004FF48060ADF814007F
:1031300001208DF8160005A91F48FDF753FC4FF438
:103140000060ADF8140004208DF8170005A91A4896
:10315000FDF748FC34208DF8000004208DF80100B4
:1031600002208DF8020001208DF803006846FDF76B
:10317000F9FC01944FF48050ADF808000020ADF840
:103180000A004FF48060ADF80C000020ADF810008C
:103190000C20ADF80E0001A90848FFF7B1FB012291
:1031A00040F224410548FFF786FB01210348FFF761
:1031B00036FB06B010BD000000100140004C00407E
:1031C00010B586B00446012144F20400FEF72CFD40
:1031D00018208DF817004FF40070ADF8140001208E
:1031E0008DF8160005A91D48FDF7FCFB4FF4806023
:1031F000ADF8140004208DF8170005A91748FDF755
:10320000F1FB25208DF8000001208DF80100002041
:103210008DF8020001208DF803006846FDF7A2FC3E
:1032200001940020ADF80800ADF80A00ADF80C00DC
:10323000ADF810000C20ADF80E0001A90848FFF70A
:103240005FFB012240F224410548FFF734FB0121D6
:103250000348FFF7E4FA06B010BD00000008014083
:103260000038014010B586B0044601210420FEF765
:10327000DBFC01214804FEF7C7FC18208DF817007D
:103280000420ADF8140001208DF8160005A91F4890
:10329000FDF7A8FB0820ADF8140004208DF81700F6
:1032A00005A91A48FDF79EFB26208DF80000022094
:1032B0008DF8010000208DF8020001208DF8030038
:1032C0006846FDF74FFC01944FF48050ADF80800BC
:1032D0000020ADF80A004FF48060ADF80C0000202B
:1032E000ADF810000C20ADF80E0001A90848FFF75A
:1032F00007FB012240F224410548FFF7DCFA0121D7
:103300000348FFF78CFA06B010BD0000000801402A
:103310000044004010B586B0044601218804FEF741
:1033200073FC01210820FEF77FFC10208DF81700A8
:103330000220ADF8140003208DF8160005A92648D8
:10334000FDF750FB4FF48060ADF8140003208DF8BA
:10335000160018208DF8170005A91F48FDF742FB3D
:103360004FF40060ADF8140004208DF8170005A993
:103370001948FDF737FB27208DF8000003208DF852
:10338000010000208DF8020001208DF8030068463E
:10339000FDF7E8FB01944FF48050ADF808000020E1
:1033A000ADF80A004FF48060ADF80C000020ADF8D5
:1033B00010000C20ADF80E0001A90848FFF7A0FA94
:1033C000012240F224410548FFF775FA0121034824
:1033D000FFF725FA06B010BD000C01400048004080
:1033E00010B54FF4E130FFF7EBFE4FF41660FFF736
:1033F00039FF4FF41650FFF78DFF4FF41650FFF7CB
:1034000081FEFDF7EDF8FDF701F9FDF715F9FDF780
:1034100029F980231E4A1F491F48FDF70DFA012094
:10342000FDF736FA1D4880231D4942681A481430BA
:10343000FDF702FA0220FDF72BFA1A4880231A49F9
:10344000426815482838FDF7F7F90320FDF720FA00
:1034500016488023164942681648FDF7EDF9042006
:10346000FDF716FA40210B48001FFFF7EDF9402148
:103470000B48001FFFF7E8F940210B48001FFFF73A
:10348000E3F940210A48001FFFF7DEF910BD0000F4
:103490008C0B002004380140580002405C0B0020D7
:1034A000044400406C0B0020044800407C0B0020CA
:1034B000044C0040300402400003030601040602ED
:1034C000050003051F1C1F1E1F1E1F1F1E1F1E1F82
:1034D00000000100020001000300010002000100E1
:1034E00004000100020001000300010002000100CD
:1034F00005000100020001000300010002000100BC
:1035000004000100020001000300010002000100AC
:10351000060001000200010003000100020001009A
:10352000040001000200010003000100020001008C
:10353000050001000200010003000100020001007B
:10354000040001000200010003000100020001006C
:103550000700010002000100030001000200010059
:10356000040001000200010003000100020001004C
:10357000050001000200010003000100020001003B
:10358000040001000200010003000100020001002C
:10359000060001000200010003000100020001001A
:1035A000040001000200010003000100020001000C
:1035B00005000100020001000300010002000100FB
:1035C00004000100020001000300010002000100EC
:1035D000F035000800000020580100006C010008D0
:1035E0007836000858010020E0200000C8010008DB
:1035F000011C1201180D0102030405060708091039
:1036000068150F114A40171AFF0121153E16680F61
:103610005241140201018A450F140301028A470F27
:10362000140401048A4A0FAE01030201480F120874
:103630001B4D1660490F1B05057751191569241498
:103640000610016D58166812331B1002245E0F64B9
:1036500016681D122407050413682B1A41072172EE
:10366000083BA24A0F393319CA29C9F9E419186964
:083670001C6C0204063A014142
:0400000508000131BD
:00000001FF
