:020000040800F2
:10000000C8200020CD010008F7090008B509000844
:10001000F30900087D040008912700080000000093
:100020000000000000000000000000008520000823
:1000300011080008000000005B0200089921000878
:10004000E7010008E7010008E7010008E11E0008D9
:10005000E7010008E7010008E7010008E7010008E0
:10006000E7010008E701000815080008E70100089B
:10007000E7010008E7010008E7010008E7010008C0
:10008000E7010008E7010008E7010008E7010008B0
:10009000E7010008E7010008E7010008E7010008A0
:1000A000E7010008E7010008E7010008E701000890
:1000B000E7010008E7010008E7010008E701000880
:1000C000E7010008E7010008E7010008E701000870
:1000D000E7010008212400089D2400082D250008C0
:1000E000E7010008E7010008E7010008E701000850
:1000F000E7010008E7010008E7010008E701000840
:10010000E7010008E7010008E7010008E70100082F
:10011000A5230008E7010008E7010008E70100083F
:10012000E7010008E7010008E7010008E70100080F
:1001300000F002F800F03AF80AA090E8000C8244BF
:100140008344AAF10107DA4501D100F02FF8AFF29C
:10015000090EBAE80F0013F0010F18BFFB1A43F0A5
:1001600001031847082E0000282E0000103A24BF73
:1001700078C878C1FAD8520724BF30C830C144BF0C
:1001800004680C607047000000230024002500264E
:10019000103A28BF78C1FBD8520728BF30C148BFEA
:1001A0000B6070471FB51FBD10B510BD00F002F900
:1001B0001146FFF7F7FF02F067FB00F020F903B4E8
:1001C000FFF7F2FF03BC00F025F900000948804763
:1001D00009480047FEE7FEE7FEE7FEE7FEE7FEE729
:1001E000FEE7FEE7FEE7FEE704480549054A064B41
:1001F00070470000A921000831010008C81A00203A
:10020000C8200020C81C0020C81C0020EFF310806C
:1002100072B6704780F310887047204C204D2560DF
:100220004FF0000484F309881E4C4FF0010525703F
:100230001D4C4FF08055256062B6FEE730B41A4C75
:100240004FF08055256030BC704730B4164C4FF0ED
:100250008055256030BC704700BF72B6EFF309804F
:1002600028B1203880E8F00F10490968086000B50F
:100270000F4880475DF804EB0E480F490A7802707A
:100280000A480E490A680260106890E8F00F2030B2
:1002900080F309884EF0040E62B6704720ED00E04E
:1002A0000000FFFFBA00002004ED00E0C0000020C5
:1002B0008D110008AF000020B0000020C800002011
:1002C000032A40F2308010F0030C00F0158011F882
:1002D000013BBCF1020F624498BF11F801CB00F85A
:1002E000013B38BF11F8013BA2F1040298BF00F8AE
:1002F00001CB38BF00F8013B11F0030300F0288068
:10030000083AC0F0088051F8043B083A51F804CB91
:10031000A0E80810F5E7121D5CBF51F8043B40F857
:10032000043BAFF30080D20724BF11F8013B11F862
:1003300001CB48BF11F8012B24BF00F8013B00F8A6
:1003400001CB48BF00F8012B7047704770477047DA
:1003500010B5203AC0F00B80B1E81850203AA0E860
:100360001850B1E81850A0E81850BFF4F5AF5FEA94
:10037000027C24BFB1E81850A0E8185044BF18C947
:1003800018C0BDE810405FEA827C24BF51F8043BEE
:1003900040F8043B08BF7047D20728BF31F8023B42
:1003A00048BF11F8012B28BF20F8023B48BF00F8D6
:1003B000012B7047754600F029F8AE4605006946E6
:1003C000534620F00700854618B020B5FFF70CFF14
:1003D000BDE820404FF000064FF000074FF0000846
:1003E0004FF0000B21F00701AC46ACE8C009ACE8C7
:1003F000C009ACE8C009ACE8C0098D4670470446A6
:10040000AFF300802046FFF7DAFE00000048704797
:10041000681A002001491820ABBEFEE72600020042
:10042000704710B5012001F051FB002001F04EFB98
:1004300010BD000008B50146002000900348009060
:100440000098084400900098008808BD006C0040A7
:1004500008B500220092044A0092009A02440092D9
:10046000009A116008BD0000006C004010B502F059
:1004700091F902F01DFA00F0BFFA10BD00BFFEE7CF
:1004800010B5002000F072FB0549C860802088701C
:10049000044848600448886000200870487010BD17
:1004A000DC0900201C0A00209C0A002010B5002056
:1004B00000F05CFB0549C8608020887004484860F3
:1004C0000448886000200870487010BDEC090020C6
:1004D0001C0B00209C0B002010B5002000F046FBF8
:1004E0000549C860802088700448486004488860D6
:1004F00000200870487010BDFC0900201C0C002072
:100500009C0C002010B5002000F030FB0549C860AD
:100510008020887004484860044888600020087083
:10052000487010BD0C0A00201C0D00209C0D0020FE
:1005300021B1026842F00102026004E002684FF655
:10054000FE731A400260704701684FF6FE72114058
:1005500001600021016041608160C1604B498842B7
:1005600008D14A490839496841F00F01474A083A19
:1005700051608AE045491431884208D1434908391D
:10058000496841F0F001414A083A51607DE03F4935
:100590002831884208D13D490839496841F47061E1
:1005A0003A4A083A516070E038493C31884208D1F3
:1005B00036490839496841F47041344A083A516073
:1005C00063E032495031884208D1304908394968DE
:1005D00041F470212D4A083A516056E02B496431AC
:1005E000884208D129490839496841F47001274AED
:1005F000083A516049E025497831884208D12349B9
:100600000839496841F07061204A083A51603CE07D
:100610001F49884206D1011F096841F00F01021FDE
:10062000116032E01A491431884208D11849091F73
:10063000096841F0F001164A121F116025E01449C3
:100640002831884208D11249091F096841F47061B4
:100650000F4A121F116018E00D493C31884208D141
:100660000B49091F096841F47041094A121F1160C2
:100670000BE007495031884207D10549091F096835
:1006800041F47021024A121F1160704708000240B5
:10069000080402400146486880B2704710B5002245
:1006A000026847F6F0739A430C6A8B6823430C691F
:1006B00023434C6923438C692343CC6923434C6A0D
:1006C00023438C6A23431A430260CB6843600B6860
:1006D00083604B68C36010BDF0B58BB007460D4614
:1006E00016461C460121084601F0C0F901210220EE
:1006F00001F0BCF90D4804803846FFF725FF00954E
:100700000196002002900394049080200590002020
:100710000690079008904FF40050099000200A902E
:1007200069463846FFF7BAFF0BB0F0BD78000020ED
:1007300010B50446012C06D0022C17D0032C2BD068
:10074000042C52D13EE000212948FFF7F1FE294850
:100750000188274800F05AF801224021264801F07C
:1007600042FF01212248FFF7E3FE3FE0002120483D
:100770001430FFF7DDFE1F4801881D48143000F0DB
:1007800045F8012240211D4801F02DFF01211848A4
:100790001430FFF7CDFE29E0002115482838FFF777
:1007A000C7FE144801881248283800F02FF80122AB
:1007B0004021134801F017FF01210D482838FFF7A9
:1007C000B7FE13E000210F48FFF7B2FE0948018889
:1007D0000C4800F01BF8012240210B4801F003FFF8
:1007E00001210848FFF7A4FE00E000BF00BF10BDD4
:1007F00058000240780000200038014000440040CA
:100800000048004030040240004C00404160704706
:100810007047000010B500F04FF9102000F01EF8EE
:1008200070B11021084800F0B8F818B90120074944
:10083000087002E0002005490870102000F008F858
:1008400000F04CF910BD0000000C01407A000020BF
:10085000014908607047000014040140014600206F
:100860000022074B1B6803EA0102054B14331B6887
:100870000B4013B10AB1012000E0002070470000D6
:10088000000401402DE9F041024600250026002029
:1008900000230024002791F803C00CF00F0591F805
:1008A00003C00CF0100CBCF1000F03D091F802C093
:1008B0004CEA050591F800C0BCF1000F31D0146876
:1008C00000202BE04FF0010C0CFA00F3B1F800C04F
:1008D0000CEA03069E4220D183004FF00F0C0CFA65
:1008E00003F7BC4305FA03FC4CEA040491F803C087
:1008F000BCF1280F06D14FF0010C0CFA00FCC2F835
:1009000014C00AE091F803C0BCF1480F05D14FF0C4
:10091000010C0CFA00FCC2F810C0401C0828D1D30E
:100920001460B1F800C0BCF1FF0F34DD5468002042
:100930002EE000F1080C4FF0010808FA0CF3B1F8B2
:1009400000C00CEA03069E4221D183004FF00F0C39
:100950000CFA03F7BC4305FA03FC4CEA040491F8D3
:1009600003C0BCF1280F05D100F1080C08FA0CF8FF
:10097000C2F8148091F803C0BCF1480F07D100F110
:10098000080C4FF0010808FA0CF8C2F81080401C5F
:100990000828CED35460BDE8F08102460020936859
:1009A0000B400BB1012000E000207047416170470F
:1009B0000161704700BFFEE70146CA1701EB927262
:1009C0009210A1EB820292B9642091FBF0F200FB3D
:1009D000121050B94FF4C87091FBF0F200FB1210E6
:1009E00008B9012070470020FCE70120FAE7002049
:1009F000F8E700BFFEE7704710B54FF4407000F015
:100A000039F810BD70B5002100230F22C47804B35B
:100A1000154C246804F4E064C4F5E064210AC1F1D3
:100A20000403CA40447804FA03F184781440214353
:100A300009010E4C0678A155047804F01F05012425
:100A4000AC4005786D11AD0005F1E025C5F8004119
:100A500009E0047804F01F050124AC40044D067839
:100A6000761145F8264070BD0CED00E000E400E092
:100A700080E100E002490143024A11607047000032
:100A80000000FA050CED00E010B500F013F800F0DE
:100A90006BFD00F093FD00F0B3FD00F03BFD00F0B6
:100AA0000DFD00F047FE00F0EBFD00F011FE00F040
:100AB00002F810BD7047704706480078012808D139
:100AC00005480078FF2804D203480078401C0249FA
:100AD00008707047BA000020AD00002010B5002457
:100AE0001A480078012830D1FFF790FB04461848D7
:100AF000007820B116480078401E15490870144847
:100B00000078F8B913480078E0B900F075FE124893
:100B10001249097850F82100114908600F480078FF
:100B20001049097888420DD00D480068806B401C40
:100B30000B49096888630C480068401C0A49086032
:100B4000FFF783FB2046FFF765FB10BDBA000020CE
:100B5000AD000020AE00002000150020B0000020F5
:100B6000C8000020AF0000209400002070B50546AA
:100B700000260F48007808B1002070BDFFF746FB43
:100B800006460C480468006820B10A4800684068BE
:100B9000084908603046FFF73DFB3CB10320207058
:100BA000258100206060204600F07AFC2046E4E7C2
:100BB000AD000020980000202DE9F04105460E46CA
:100BC000144600272878032803D001202070BDE8B0
:100BD000F0813148007810B102202070F7E72F48EB
:100BE000007810B10D202070F1E7FFF70FFB0746EA
:100BF000288940B12889401E28813846FFF70AFB22
:100C000000202070E3E72648006890F8300040F0AC
:100C100001002349096881F8300000202049096853
:100C200081F831001E480068C662284600F0FAFBD1
:100C30003846FFF7EFFA00F0A5FDFFF7E7FA0746A1
:100C40001748006890F8310020B1012809D0022827
:100C500006D102E0002020700BE00E20207008E09A
:100C600000BF29460E48006800F0C6FB0A2020702D
:100C700000BF00BF00200A49096881F83000084918
:100C8000096881F8310006490968C8613846FFF7EC
:100C9000C1FA00BF9BE70000AD000020AE000020BD
:100CA000C000002070B5044600252078032801D03C
:100CB000012070BDFFF7AAFA0546A07A60B10023B3
:100CC00001221946204600F055FB2846FFF7A2FAFC
:100CD00000F058FD0020ECE720894FF6FF718842B4
:100CE00007D22089401C20812846FFF793FA002074
:100CF000DFE72846FFF78EFA3320DAE710B5002049
:100D0000FFF734FF0D4908600020FFF72FFF0C4963
:100D100008600020FFF72AFF0A4908600020FFF75B
:100D200025FF094908600020FFF720FF07490860F8
:100D30000020FFF71BFF0649086010BD00000020DF
:100D400004000020080000200C00002010000020FB
:100D50001400002010B50B48007890B900F04CFD4D
:100D6000094800780949087009480749097850F886
:100D70002100084908600846006807490860FFF735
:100D80004CFA10BDBA000020B0000020AF000020D7
:100D900000150020C8000020C000002010B500246D
:100DA000022000F0F5F9FFF731FA044600200B4964
:100DB00008602046FFF72EFA642000F0E9F9FFF7FB
:100DC00025FA0446054800680549086001200549E0
:100DD00008702046FFF71EFA10BD0000BC0000207E
:100DE000A4000020AC000020704700002DE9FE4F59
:100DF00006460F4690461C464FF00009FFF706FADC
:100E000081461F48007828B14846FFF703FA3C2086
:100E1000BDE8FE8F1B4850F8240060BB0120194933
:100E200041F824004846FFF7F5F9002342463946C9
:100E3000304600F009F982460020009001900346F8
:100E4000024651460290204600F0ECFC054635B9BA
:100E50000D48007801280CD100F094FC09E0FFF760
:100E6000D5F981460020074941F824004846FFF79C
:100E7000D1F92846CCE74846FFF7CCF92820C7E748
:100E8000AD00002000150020BA0000202DE9F04F31
:100E900085B081468A4693461C46DDE90F78129D4F
:100EA00000200390FFF7B2F903902348007830B197
:100EB0000398FFF7AFF93C2005B0BDE8F08F1F485D
:100EC00050F8240088BB01201C4941F824000398F5
:100ED000FFF7A0F92A464146384600F0B3FD2B46FD
:100EE0005A465146484600F0AFF804901198CDE9B3
:100EF000008002953A4620460E9B049900F092FC31
:100F0000064636B90E48007801280CD100F03AFCAC
:100F100009E0FFF77BF903900020084941F824001D
:100F20000398FFF777F93046C6E7FFE70398FFF726
:100F300071F92820C0E70000AD0000200015002056
:100F4000BA000020704770472DE9F04106460F4671
:100F500014464FF000081548007818B11220207090
:100F6000BDE8F081FFF752F98046FF2E03D110480B
:100F7000006890F832600F4850F826502DB940466E
:100F8000FFF748F943202070EAE7012D05D14046DC
:100F9000FFF740F943202070E2E7EF644046FFF797
:100FA00039F90020207000BFDAE70000AD00002012
:100FB000C000002000150020704700002DE9F04718
:100FC00007460D464FF0000A002028606860FFF7D2
:100FD0001DF98246FF2F03D11948006890F832703E
:100FE000184850F827402CB95046FFF713F9432012
:100FF000BDE8F087012C04D15046FFF70BF94320E0
:10100000F6E7207C00F0010020B95046FFF702F916
:101010004520EDE70026D4F80C90D4F8088050461F
:10102000FFF7F8F800E0761C58F8041B0029FAD006
:10103000B0002860A9EB0600800068600020D7E7B8
:10104000C00000200015002070B5044610464FF087
:1010500080750560051F28462C606FF00106051F8E
:1010600028462E604FF01236051F28462E604FF09E
:101070000336051F28462E604FF00236051F28460E
:101080002E607610051F28462E60051F2846296011
:101090004FF01136051F28462E604FF01036051F01
:1010A00028462E604FF00936051F28462E604FF067
:1010B0000836051F28462E604FF00736051F2846C4
:1010C0002E604FF00636051F28462E604FF005367D
:1010D000051F28462E604FF00436051F28462E6057
:1010E00070BD00002DE9F04105464FF00008FFF704
:1010F0008DF88046FF2D05D12048006890F83250C9
:10110000012608E01D48006890F83200A84201D18D
:10111000012600E000261A4850F825402CB9404628
:10112000FFF778F84820BDE8F081012C04D1404653
:10113000FFF770F84320F6E794F834701148C05D6B
:1011400094F8351088430F49C8550846C05D30B93A
:1011500094F836100C48007888430B49087094F8CE
:10116000300040F0080084F830004046FFF752F8A5
:10117000012E01D100F006FB0020D4E7C0000020C2
:1011800000150020B2000020B100002070470000D0
:1011900070B5054600261748007800B170BD1648A6
:1011A000007800B1FAE71DB3FFF730F806461348A0
:1011B000006890F834401248005D1049096891F8C1
:1011C000351088430E4908550846005D40B90B4864
:1011D000006890F836100B48007888430949087079
:1011E00006480068C5623046FFF714F800F0CAFAF6
:1011F00000BFD3E7AD000020AE000020C0000020FB
:10120000B2000020B10000202DE9F04105460E4655
:1012100017461C461248007810B15520BDE8F081F1
:101220001048007808B13220F8E74FF47A70604334
:101230004FF47A71B0FBF1F14FF461606843C6EB93
:10124000061200EB8200384400EB4002C2EBC010F3
:1012500001EBC0084046FFF79BFF0020DEE70000DF
:10126000AD000020AE00002070B504460025FEF75A
:10127000CDFF0546024804602846FEF7CBFF70BD4F
:10128000D800002070B5002600F072F8FEF7BEFF0F
:10129000064631480068401C2F4908603046FEF77A
:1012A000B9FF2E480078012853D12D48007820B18D
:1012B000012804D0022809D103E001250BE0002514
:1012C00009E0012501202649087004E001250020DD
:1012D0002349087000BF00BF05B970BD21480468EC
:1012E00033E0FEF793FF0646E06A50B3E06A401E23
:1012F000E062E06A28BB94F8300000F0370040B1AB
:1013000014F8300F00F0C800207001206070303CED
:1013100002E0002084F8310094F8300000F008006A
:1013200078B93434A0781049097808430E49087018
:1013300020780E49085C6178084314F834190B4A88
:10134000505464693046FEF765FF94F832003F2838
:10135000C7D100BFC1E70000D8000020BA000020BC
:10136000D0000020CC000020B1000020B2000020FE
:10137000704700002DE9F04F05460F46904699460C
:10138000A87A19490E5C05F10B00805D11F800B0D8
:101390000BEBC60000F0FF0A144850F82A4000206A
:1013A0002034E0602760207C20EA0800207484F864
:1013B0001190207C203C00F0080068B994F83600B9
:1013C0000B49097808430A4908700A48805D94F877
:1013D00035100843074988552946204600F00CF887
:1013E0005046BDE8F08F00006C2E0008001500206C
:1013F000B1000020B200002010B590F8342001F1B7
:101400000B039B5C90F83540A34301F10B04A354FC
:1014100023469B5C23B98B7A90F83640A3438B72AA
:1014200010BD000010B51B4A1268D061194A12683D
:1014300092F8343000F10B02D25C164B1B6893F823
:1014400035301A43134B1B6893F8344000F10B03FB
:101450001A55827A0F4B1B6893F836301A43827202
:101460000C4A126892F834100B4A525C094B1B6804
:1014700093F835309A43084B5A541A46525C42B995
:10148000044A126892F83630044A12789A43034BA1
:101490001A7010BDC0000020B2000020B100002072
:1014A000014600228A72002005E0002301F10B02B0
:1014B0001354421CD0B20828F7D370472DE9F041ED
:1014C0005021114800F02CF900250DE0681C86B26F
:1014D0000D4800EB051400EB061700202070676034
:1014E0000AA0E060681C85B2042DEFD3064800EB2B
:1014F000051400202070606004A0E06002480449E8
:101500000860BDE8F0810000B01000203F0000003E
:101510009C00002070B54FF42071114800F000F9D4
:1015200000230FE0581C85B203EB83000C4901EB4C
:10153000800405EB850001EB8006002020706660CA
:10154000581C83B21F2BEDD303EB8300044901EB3E
:10155000800400202070606008460249086070BD69
:10156000300E00209800002000200A4908600A4937
:1015700008700A4908700A4908700A4908700A493F
:1015800008600A4908600A4908600A4908600A496F
:1015900008707047D8000020AD000020AE00002089
:1015A000BB000020BA00002094000020BC000020F6
:1015B000A8000020A4000020AC00002000210A4A5E
:1015C0001170002004E00021084A1154411CC8B2E7
:1015D0000828F8D30021064A1170064A1170064AFD
:1015E0001160064A11607047B1000020B20000206F
:1015F000AF000020B0000020C8000020C000002084
:1016000070B54FF47C71194800F08AF84FF480717E
:10161000174800F085F8002413E0601CC5B2C4EB45
:10162000C40000EB4000114901EB8003C5EBC5008D
:1016300000EB400001EB80065E610EA0D864601CE8
:10164000C4B20B2CE9D3C4EBC40000EB4000074943
:1016500001EB80030020586106A0D86400200649F1
:10166000086002480549086070BD000000160020AF
:10167000001500203F000000CC000020C400002026
:1016800000B587B00320002180220A4BCDE901324A
:10169000CDE903104FF6FF703F23074A009007483B
:1016A000FFF7F4FB06AA06A13F20FFF74DFC07B0A9
:1016B00000BD000000130020FC1400205919000890
:1016C00075432F4F532D49492049646C6500000034
:1016D00000B587B00320002180220A4BCDE90132FA
:1016E000CDE903104FF6FE703E23074A00900748ED
:1016F000FFF7CCFB06AA06A13E20FFF725FC07B0AA
:1017000000BD000000110020FC120020811900081B
:1017100075432F4F532D49492053746174000000C5
:1017200004E0002200F8012B4A1E91B20029F8D1F2
:10173000704700002DE9F04178211048FFF7F0FFD5
:1017400000240DE0601C86B204EB44000B4901EB61
:10175000C00506EB460001EBC0072F60601C84B299
:10176000042CEFD304EB4400044901EBC005002036
:101770002860084602490860BDE8F081F0190020A1
:10178000D400002010B50024FEF740FD04461348A5
:101790000078F8B912480078E0B900F02DF8114847
:1017A0001149097850F82100104908600E48007866
:1017B0000F49097888420DD00C480068806B401CA6
:1017C0000A49096888630B480068401C0949086099
:1017D000FEF734FD2046FEF71DFD10BDAD000020D4
:1017E000AE00002000150020B0000020C80000203E
:1017F000AF000020940000200649074A1278885C58
:101800000649095C034A515C01EBC001044A1170AE
:10181000704700006C2E0008B1000020B2000020CC
:10182000B00000202DE9F84F05460F469046994636
:10183000DDE90AAB00200090FEF7E8FC00903F488D
:101840000468002C74D0183454F8040C3B49086028
:101850000098FEF7DFFC44F8187CA576002020767F
:101860006076606144F814BC44F80CAC44F8108C09
:101870000C9824F8080C24F8069C0020E077E81067
:10188000207705F00700E076217F01208840A077CF
:10189000E17E01208840607700206060E060A06009
:1018A0002062A0626062E062206325A06063183C51
:1018B000002606E0002104F1500040F82610701CBC
:1018C000C6B2002EF6D02046FFF78EFA2046FFF76C
:1018D00039FBFEF79BFC00901A4840F825401A4857
:1018E000006860610020A0611748006810B11648C8
:1018F00000688461144804603434A078134909787E
:1019000008431249087020781149085C617808433F
:1019100014F834190E4A50540E480078401C0D49F2
:1019200008700098FEF776FC0020BDE8F88FFFE70E
:101930000098FEF76FFC4220F7E70000C40000208B
:101940003F00000000150020CC000020B100002066
:10195000B2000020BB000020002400BF00BFFEF743
:1019600055FC044605480068401C044908602046B0
:10197000FEF750FCFFF7E7FAF1E70000BC0000209B
:10198000002400BF02E0C820FFF702FC19480078DD
:101990000028F8D0184800686421B0FBF1F016491F
:1019A00008600846006828B9002014490870FF2024
:1019B000FFF798FB00BFFEF729FC044610480068BB
:1019C0001049086000200E4908602046FEF722FCFE
:1019D0000C48006808490968B0FBF1F0C0F16400E8
:1019E00006490870FFF7E8FA00F00EF86420FFF7E8
:1019F000CFFBE0E7AC000020A4000020A000002006
:101A0000BC000020A80000207CB5002514E0694639
:101A10002846FFF7D3FA064666B9094850F825402C
:101A200044B1012C06D0D4E9020100EB81006064CE
:101A30000198A064681CC5B23F2DE8D97CBD0000A8
:101A40000015002002F0010343B102F002032BB1A4
:101A500002E0491E002308C00029FAD170470000A7
:101A6000014908627047000000000E4229B1064A91
:101A700052690243044B5A6104E0034A52698243AB
:101A8000014B5A61704700000010024029B1064A1C
:101A9000D2690243044BDA6104E0034AD26982430B
:101AA000014BDA61704700000010024029B1064A7C
:101AB00092690243044B9A6104E0034A92698243AB
:101AC000014B9A6170470000001002400149086014
:101AD000704700004004424230B50021002200243B
:101AE00000232D4D6D6805F00C0121B1042905D0AE
:101AF000082923D105E0294D056022E0274D056026
:101B00001FE0254D6D6805F47012234D6D6805F4D6
:101B10008034022505EB92421CB9214D55430560E6
:101B20000BE01D4D6D6805F400351DB11C4D55438E
:101B3000056002E0194D5543056002E0174D056050
:101B400000BF00BF144D6D6805F0F0010909154D87
:101B50006B5C0568DD4045600F4D6D6805F4E06124
:101B6000090A104D6B5C4568DD4085600A4D6D6863
:101B700005F46051C90A0B4D6B5C4568DD40C560DA
:101B8000054D6D6805F44041890B074D6B5CC568D8
:101B9000B5FBF3F5056130BD0010024000127A007C
:101BA00000093D00800000209000002010B5014693
:101BB0000022002300204A11012A02D1094C236887
:101BC00006E0022A02D1074C236A01E0054C636A51
:101BD00001F01F02012494401C400CB1012000E0E0
:101BE000002010BD0010024001490860704700004D
:101BF0008004424201490860704700003C044242B0
:101C00000249096A0143014A11627047001002400B
:101C1000024909888143014A118070470428004025
:101C20007CB500240420FEF705FC45F251018842F2
:101C30004AD001214FF0C050FFF728FF0120FFF7E5
:101C40000FFFFEF7EEFB0120FFF7CEFF04E0601C64
:101C5000C4B20A2000F0CCFD6120FFF7A7FF08B94D
:101C6000FA2CF4DBFA2C01DB01207CBD4FF4007070
:101C7000FFF7C6FF0120FFF7BDFF00F0E7F900F016
:101C8000EFF90121084600F039F900F0DFF900F022
:101C90003BF849F63F4000F0C9F900F0D7F9194880
:101CA000807818494978174DCDE900102B78EA79EA
:101CB000A979A88800F048F900F030F845F2500101
:101CC0000420FEF7C5FB16E000F01EF80D488078F2
:101CD0000C4949780B4DCDE900102B78EA79A979A8
:101CE000A88800F031F900F019F80121084600F049
:101CF00005F900F0ABF900F015F900F019F8002033
:101D0000B3E70000260E00200348008840F01000D2
:101D100001490880704700000428004003480088FB
:101D20004FF6EF71084001490880704704280040D1
:101D300070B500260024002500F07AF806463848E1
:101D4000B6FBF0F437480088A0423CD035490C80FF
:101D500040F2B27510E02846FEF72EFE40B1B4F511
:101D6000B77F02D3A4F5B77404E0681C85B206E01F
:101D7000A4F26D14681C85B2B4F5B67FEBD800BF31
:101D800029488580002516E027498888FEF714FE3B
:101D900030B1012D04D11D2C01D31D3C09E00CE014
:101DA0002248405DA04203D82048405D241A00E04C
:101DB00003E0681C85B21C2CE6D200BF681C1A49DF
:101DC0008871601CC8711648B6FBF0F100FB116405
:101DD0004FF46160B4FBF0F0134908704FF4616098
:101DE000B4FBF0F100FB11403C21B0FBF1F00E49D7
:101DF00048704FF46160B4FBF0F100FB11403C21EE
:101E0000B0FBF1F201FB1200074988700B46DA794A
:101E10009979988800F028F803490872002070BD6D
:101E2000805101007E0000201C0E0020602E000862
:101E3000002103480188001F008841EA00407047E4
:101E40001C28004001460020064A12880A40D0B2F1
:101E5000044A121F12880A4012B108B1012000E0A2
:101E60000020704704280040F0B503460C46154694
:101E7000642093FBF0F0C6B2642093FBF0F700FB04
:101E80001730C1B2132E02DD01F16400C1B2084661
:101E9000CF1701EB977701EBA707BAB2072092FBA8
:101EA000F0F700FB172082B25719601EDFF82CC034
:101EB0001CF80000384482B2CF1701EB9777BF10AF
:101EC000A1EB87071FB9032C01DA501E82B207204D
:101ED00092FBF0F700FB1720C0B2F0BD542E0008B3
:101EE00010B50120FFF7AEFF08B1FFF721FF012079
:101EF000FFF78EFE00F0AAF810BD000029B1064AD7
:101F000012880243044B1A8004E0034A1288824379
:101F1000014B1A80704700000028004010B5FFF701
:101F20007FFE10BD08B503208DF8000006208DF857
:101F3000010000208DF8020001208DF803006846A2
:101F4000FEF760FD08BD00002DE9F05F06460F4674
:101F500090469946DDE90AAB002440F2B270864211
:101F600003DB40F63300864202DD0120BDE8F09F2E
:101F700040F2B2750AE02846FEF71EFD10B1204877
:101F8000044401E01F480444681C85B2B542F2DBFA
:101F9000781EC7B2002510E01B48405D40F2A32127
:101FA000484304EBC0143046FEF706FD18B1012D7E
:101FB00001D116480444681C85B2BD42ECDBA8F18F
:101FC000010040F2A321484304EBC014C9EB4910BF
:101FD000C0EB092004EB0014CAEB0A1004EB8004E8
:101FE0005C4401214FF0C050FFF750FD0120FFF786
:101FF00037FD204600F00CF800F028F80020B5E787
:102000000085E2018033E101602E0008805101006B
:1020100000B50246FFF778FE100C03490880091D41
:102020000A80FFF77BFE00BD1828004000B502467D
:10203000FFF76AFEC2F3034003490880091D0A80C6
:10204000FFF76CFE00BD00000828004000BF0348F9
:10205000008800F020000028F9D0704704280040D4
:10206000074800884FF6F77108400549088000BF0F
:102070000348008800F008000028F9D070470000ED
:1020800004280040704710B500F002F810BD0000B1
:102090000CB50020019000903348006840F4803077
:1020A0003149086000BF3048006800F400300090FB
:1020B0000198401C0190009818B90198B0F5A06FE4
:1020C000F1D12948006800F4003010B101200090DF
:1020D00001E0002000900098012843D123480068C7
:1020E00040F01000214908600846006820F0030015
:1020F00008600846006840F0020008601A4840681E
:10210000194948600846406848600846406840F4FD
:10211000806048600846406820F47C1048600846AB
:10212000406840F4E81048600846006840F080705D
:10213000086000BF0C48006800F000700028F9D06B
:102140000948406820F00300074948600846406895
:1021500040F00200486000BF0348406800F00C00F7
:102160000828F9D10CBD00000010024000200240F8
:10217000042808D14FF0E021096941F004014FF033
:10218000E022116107E04FF0E021096921F004012C
:102190004FF0E0221161704710B5FEF78DFCFFF79C
:1021A00071F8FEF79BFC10BD10B51348006840F0B5
:1021B00001001149086008464068104908400E496E
:1021C0004860084600680E4908400B490860084608
:1021D000006820F4802008600846406820F4FE0073
:1021E00048604FF41F008860FFF74DFF4FF000601C
:1021F0000449086010BD0000001002400000FFF814
:10220000FFFFF6FE08ED00E0002301221946184604
:10221000FEF7FAFFFFF782FE00F034FB0020FFF725
:1022200023F801201A49087031E0012300221146E9
:102230001046FEF7E9FF16480078062825D2DFE8A9
:1022400000F024031A1B1C1D1248006890B94FF4BB
:1022500080711148FEF7AAFB322300221146104676
:10226000FEF7D2FF4FF480710B48FEF7A1FB05206B
:10227000074908700AE009E008E007E00A2000F0DA
:1022800043FB0A2000F068FB00E000BF00BFCCE782
:1022900018000020240122420008014008B5002057
:1022A000009020E00123002211461046FEF7ACFF0B
:1022B0000D496A46C8680A21FEF77EFC9DF80000B9
:1022C00018B90A480068FEF7EDFC6A460A2108487A
:1022D0000068FEF771FC9DF8000020B9024A5178B1
:1022E000906800F061FBDDE7DC09002000000020C1
:1022F0000400002008B50020009020E00123002207
:1023000011461046FEF780FF0D496A46C8680A214B
:10231000FEF752FC9DF8000018B90A480068FEF765
:10232000C1FC6A460A2108480068FEF745FC9DF892
:10233000000020B9024A5178906800F065FBDDE7A3
:102340000C0A0020100000201400002008B5002016
:10235000009020E00123002211461046FEF754FFB2
:102360000D496A46C8680A21FEF726FC9DF8000060
:1023700018B90A480068FEF795FC6A460A21084821
:102380000068FEF719FC9DF8000020B9024A517858
:10239000906800F021FBDDE7EC0900200800002038
:1023A0000C00002010B50024FEF786FB40F224410B
:1023B000184800F02EF9012828D116480088C4B228
:1023C0001448001D0088C4B200211348FEF7B0F87D
:1023D000002240210F4800F006F90F48FEF75AF995
:1023E000C0F18000C4B280200B49091D08600B4871
:1023F000047001224021074800F0F5F80121064849
:10240000FEF796F80549C868FEF74CFCFEF766FB38
:1024100010BD0000004C0040300402400C0A0020B7
:1024200010B50024FEF748FB40F22441184800F0A4
:10243000F0F8012828D116480088C4B21448001DBD
:102440000088C4B200211348FEF772F80022402130
:102450000F4800F0C8F80F48FEF71CF9C0F18000E3
:10246000C4B280200B495839C8650B48047001225A
:102470004021074800F0B7F801210648FEF758F858
:102480000549C868FEF70EFCFEF728FB10BD0000EA
:102490000038014058000240DC09002010B500243B
:1024A000FEF70AFB40F224411C4800F0B2F8012874
:1024B00031D11A480088C4B21848001D0088C4B23F
:1024C00040F22441164800F073F800211548FEF749
:1024D0002FF800224021114800F085F81148FEF73E
:1024E000D9F8C0F18000C4B200200F4949680855EE
:1024F00080200C496C3908670B4804700122402188
:10250000064800F070F801210648FEF711F8064968
:10251000C868FEF7C7FBFEF7E1FA10BD00440040B3
:10252000004800406C000240EC09002010B5002477
:10253000FEF7C2FA40F224411A4800F06AF8012876
:102540002CD118480088C4B21648001D0088C4B2B7
:1025500000211548FDF7ECFF00224021114800F052
:1025600042F81148FEF796F8C0F18000C4B200208E
:102570000E494968085580200B49303948630B489B
:10258000047001224021074800F02DF8012106487F
:10259000FDF7CEFF0549C868FEF784FBFEF79EFAFB
:1025A00010BD00000048004030000240FC0900203F
:1025B00010B50022002340F66A14A14200D100BFEA
:1025C0000A1201249440A3B2DC43048010BD21B15F
:1025D000828942F40052828104E082894DF6FF73C1
:1025E0001A40828170471AB1838A0B43838202E0CA
:1025F000838A8B438382704702460020B1F5007FB7
:1026000000D100BF13880B400BB1012000E0002077
:10261000704770B50246002400230025002040F6D4
:102620006A16B14200D100BFC1F3421501F01F0389
:10263000012606FA03F3012D02D19689334006E004
:10264000022D02D1168A334001E0968A33400C12E3
:10265000012606FA04F41688344013B10CB10120A7
:1026600000E0002070BDF0B50346002400260025E0
:10267000002040F66A17B94200D100BF1846C1F3E6
:10268000421401F01F06012707FA06F5012C01D1BB
:102690000C3004E0022C01D1103000E014301AB1EB
:1026A00007682F43076002E00768AF430760F0BD8B
:1026B0002DE9F04786B005460E460024A24600BF2D
:1026C000A1460027B08900B100BF2F462C8A4CF6E6
:1026D000FF700440F08804432C82AC894EF6F3105E
:1026E0000440B08831890843718908430443AC81B0
:1026F000AC8A4FF6FF400440B0890443AC8201A885
:10270000FFF7EAF91F48874202D1DDF810A001E087
:10271000DDF80CA0A88900F4004040B10AEBCA0023
:1027200000EB0A1031684900B0FBF1F807E00AEB52
:10273000CA0000EB0A1031688900B0FBF1F8642090
:10274000B8FBF0F004012009642101FB1089A8897D
:1027500000F4004040B1322000EBC900B0FBF1F0C2
:1027600000F00700044308E0322000EB0910642168
:10277000B0FBF1F000F00F0004432C8106B0BDE87F
:10278000F087000000380140C1F3080282807047E2
:1027900000BFFEE710B56FF00400FFF7E9FC10483A
:1027A00000681049B0FBF1F00F4908700C48006850
:1027B0000C49B0FBF1F44FF47A70444301200B490B
:1027C00008804FF0E020006940F002004FF0E02167
:1027D000086108464461006940F00100086110BDCD
:1027E0006000002000127A007400002076000020B3
:1027F00070B504460E480078012811D10D480088B4
:10280000844206DB0B48008894FBF0F52846FEF76F
:10281000BFFC0848008894FBF0F100FB114084B233
:102820004FF47A7104FB01F000F006F870BD00006F
:10283000BA0000207600002070B5034600224FF059
:10284000E02675690E4E367803FB06F400BF4FF0A4
:10285000E026B16910E04FF0E026B06988420BD065
:10286000884202D20E1A324402E02E1A0E4432443A
:102870000146A24200D300E0EDE700BF70BD0000BA
:10288000740000207047000010B5FDF7EFFDFEF763
:10289000FBF80A23044A00210448FEF7A7FAFEF7D2
:1028A00059FA002010BD0000D8010020392A000884
:1028B00008B501211420FFF7F9F84FF40070ADF8C6
:1028C000000004208DF8030003208DF80200694603
:1028D0000B48FDF7D7FF4FF48070ADF800001020D3
:1028E0008DF8030003208DF8020069460548FDF7C6
:1028F000C9FF4FF480710348FEF758F808BD000087
:10290000001001400008014038B504460020009046
:102910006A4621460C480068FEF74EF99DF8000013
:1029200080B90A4B1A785968094B9868FDF7C8FCBA
:10293000064800780649487006480068FEF7B2F974
:10294000012038BD0020FCE700000020DC09002049
:102950000C0A00201400002038B504460020009026
:102960006A4621460C480068FEF726F99DF80000EB
:1029700080B90A4B1A785968094B9868FDF7A0FC92
:10298000064800780649487006480068FEF78AF94C
:10299000012038BD0020FCE7100000200C0A0020B8
:1029A000DC0900200400002070B505460E46002416
:1029B0000CE0295D0748FFF7E7FE00BF402105480E
:1029C000FFF71AFE0028F9D0601CC4B2B442F0DB55
:1029D00070BD00000038014070B505460E46002469
:1029E0000CE0295D0748FFF7CFFE00BF40210548F6
:1029F000FFF702FE0028F9D0601CC4B2B442F0DB3D
:102A000070BD00000044004070B505460E4600242D
:102A10000CE0295D0748FFF7B7FE00BF40210548DD
:102A2000FFF7EAFD0028F9D0601CC4B2B442F0DB25
:102A300070BD0000004C004070B50446002500BF8A
:102A4000FEF7ACF9FDF7E2FB05460123104A002131
:102A50001048FEF7CBF902230F4A00210F48FEF77A
:102A6000C5F903230E4A00210E48FEF7BFF90423DF
:102A70000D4A00210D48FEF7B9F900F07FF9FEF785
:102A80003DF90A20FEF72EFB2846FDF7C3FB70BD7B
:102A9000D803002009220008D80500209D22000844
:102AA000D8070020F5220008D80900204D2300088F
:102AB00010B586B0044601211020FEF7F7FF012172
:102AC0000846FEF7F3FF0121C804FEF7DFFF1820D8
:102AD0008DF817004FF48060ADF8140001208DF8D8
:102AE000160005A91E48FDF7CDFE4FF40060ADF8B5
:102AF000140004208DF8170005A91948FDF7C2FE3F
:102B000034208DF8000004208DF8010002208DF89B
:102B1000020001208DF803006846FDF773FF019461
:102B20000020ADF80800ADF80A004FF48060ADF861
:102B30000C000020ADF810000C20ADF80E0001A92B
:102B40000848FFF7B5FD012240F224410548FFF790
:102B50008AFD01210348FFF73AFD06B010BD0000D1
:102B600000100140004C004010B586B00446012121
:102B700044F20400FEF79AFF18208DF817004FF476
:102B80000070ADF8140001208DF8160005A91D484D
:102B9000FDF778FE4FF48060ADF8140004208DF846
:102BA000170005A91748FDF76DFE25208DF80000D8
:102BB00001208DF8010000208DF8020001208DF821
:102BC00003006846FDF71EFF01940020ADF80800E1
:102BD000ADF80A00ADF80C00ADF810000C20ADF80F
:102BE0000E0001A90848FFF763FD012240F22441CD
:102BF0000548FFF738FD01210348FFF7E8FC06B060
:102C000010BD0000000801400038014010B586B03A
:102C1000044601210420FEF749FF01214804FEF784
:102C200035FF18208DF817000420ADF8140001209E
:102C30008DF8160005A91C48FDF724FE0820ADF804
:102C4000140004208DF8170005A91748FDF71AFE97
:102C500026208DF8000002208DF8010000208DF85C
:102C6000020001208DF803006846FDF7CBFE0194B9
:102C70000020ADF80800ADF80A00ADF80C00ADF882
:102C800010000C20ADF80E0001A90848FFF710FD58
:102C9000012240F224410548FFF7E5FC01210348E9
:102CA000FFF795FC06B010BD00080140004400404D
:102CB00010B586B0044601218804FEF7E7FE012125
:102CC0000820FEF7F3FE10208DF817000220ADF863
:102CD000140003208DF8160005A92648FDF7D2FD43
:102CE0004FF48060ADF8140003208DF81600182012
:102CF0008DF8170005A91F48FDF7C4FD4FF40060CB
:102D0000ADF8140004208DF8170005A91948FDF747
:102D1000B9FD27208DF8000003208DF80100002068
:102D20008DF8020001208DF803006846FDF76AFE69
:102D300001944FF48050ADF808000020ADF80A006F
:102D40004FF48060ADF80C000020ADF810000C20AE
:102D5000ADF80E0001A90848FFF7AAFC012240F2D5
:102D600024410548FFF77FFC01210348FFF72FFCB2
:102D700006B010BD000C01400048004010B54FF4F3
:102D8000E130FFF7F1FE4FF41650FFF73FFF4FF42D
:102D90001650FFF78DFF4FF41650FFF789FEFDF731
:102DA0006FFBFDF783FBFDF797FBFDF7ABFB802384
:102DB0001E4A1F491F48FDF78FFC0120FDF7B8FC94
:102DC0001D4880231D4942681A481430FDF784FCD1
:102DD0000220FDF7ADFC1A4880231A4942681548C5
:102DE0002838FDF779FC0320FDF7A2FC1648802364
:102DF000164942681648FDF76FFC0420FDF798FC61
:102E000040210B48001FFFF7F7FB40210B48001F34
:102E1000FFF7F2FB40210B48001FFFF7EDFB4021BD
:102E20000A48001FFFF7E8FB10BD00001C0A002045
:102E30000438014058000240EC09002004440040DE
:102E4000FC090020044800400C0A0020044C00400B
:102E500030040240000303060104060205000305D6
:102E60001F1C1F1E1F1E1F1F1E1F1E1F00000100F4
:102E70000200010003000100020001000400010043
:102E80000200010003000100020001000500010032
:102E90000200010003000100020001000400010023
:102EA0000200010003000100020001000600010011
:102EB0000200010003000100020001000400010003
:102EC00002000100030001000200010005000100F2
:102ED00002000100030001000200010004000100E3
:102EE00002000100030001000200010007000100D0
:102EF00002000100030001000200010004000100C3
:102F000002000100030001000200010005000100B1
:102F100002000100030001000200010004000100A2
:102F20000200010003000100020001000600010090
:102F30000200010003000100020001000400010082
:102F40000200010003000100020001000500010071
:102F50000200010003000100020001000400010062
:102F60000200010003000100020001008C2F000894
:102F700000000020DC0000006C0100086830000840
:102F8000DC000020EC1F00008801000800000000A9
:102F90000000000000000000000000000000000031
:102FA0000000000001683800C1000040000000037C
:102FB0000201B137010100005A5A002C0100010042
:102FC000000000000000000400001303211303218F
:102FD000464D4A5A200514020001803816680F0039
:102FE000010000283200000001005C1600A24A0423
:102FF00000000000000000000102030406070809A9
:1030000000000000000000000000000000000000C0
:10301000010203040102030406070809020406086A
:1030200000000000000000000000000000000000A0
:103030000000000000000000000000000000000090
:103040000000000000000000000000000000000080
:103050000000000000000000000000000000000070
:08306000000000000000000068
:0400000508000131BD
:00000001FF
