:020000040800F2
:10000000302A00200D020008690C0008270C0008A7
:10001000650C0008DD0500083D2D0008000000000B
:100020000000000000000000000000004B24000859
:1000300071090008000000009B0200085D2500080F
:100040002702000827020008270200087121000883
:1000500027020008270200082702000827020008DC
:100060002702000827020008750900082702000877
:1000700027020008270200082702000827020008BC
:1000800027020008270200082702000827020008AC
:10009000270200082702000827020008270200089C
:1000A000270200082702000827020008270200088C
:1000B000270200082702000827020008270200087C
:1000C000270200082702000827020008270200086C
:1000D00027020008CD290008492A0008D92A00086B
:1000E000270200082702000827020008270200084C
:1000F000270200082702000827020008270200083C
:10010000270200082702000827020008270200082B
:1001100051290008270200082702000827020008CA
:10012000270200082702000827020008270200080B
:1001300000F002F800F05AF80AA090E8000C82449F
:100140008344AAF10107DA4501D100F04FF8AFF27C
:10015000090EBAE80F0013F0010F18BFFB1A43F0A5
:1001600001031847C4370000E43700000A444FF089
:10017000000C10F8013B13F0070408BF10F8014B06
:100180001D1108BF10F8015B641E05D010F8016B4B
:10019000641E01F8016BF9D113F0080F1EBF10F8AF
:1001A000014BAD1C0C1B09D16D1E58BF01F801CBD2
:1001B000FAD505E014F8016B01F8016B6D1EF9D555
:1001C0009142D6D37047000000230024002500266A
:1001D000103A28BF78C1FBD8520728BF30C148BFAA
:1001E0000B6070471FB51FBD10B510BD00F02EF994
:1001F0001146FFF7F7FF02F047FE00F04CF903B499
:10020000FFF7F2FF03BC00F051F9000009488047F6
:1002100009480047FEE7FEE7FEE7FEE7FEE7FEE7E8
:10022000FEE7FEE7FEE7FEE704480549054A064B00
:10023000704700006D2500083101000830240020BF
:10024000302A00203026002030260020EFF31080D6
:1002500072B6704780F310887047204C204D25609F
:100260004FF0000484F309881E4C4FF001052570FF
:100270001D4C4FF08055256062B6FEE730B41A4C35
:100280004FF08055256030BC704730B4164C4FF0AD
:100290008055256030BC704700BF72B6EFF309800F
:1002A00028B1203880E8F00F10490968086000B5CF
:1002B0000F4880475DF804EB0E480F490A7802703A
:1002C0000A480E490A680260106890E8F00F203072
:1002D00080F309884EF0040E62B6704720ED00E00E
:1002E0000000FFFF3601002004ED00E03C0100208B
:1002F000011400082B0100202C01002044010020E3
:1003000040EA010310B59B070FD1042A0DD310C892
:1003100008C9121F9C42F8D020BA19BA884201D9E4
:10032000012010BD4FF0FF3010BD1AB1D30703D02C
:10033000521C07E0002010BD10F8013B11F8014BE2
:100340001B1B07D110F8013B11F8014B1B1B01D1FE
:10035000921EF1D1184610BD032A40F2308010F0F1
:10036000030C00F0158011F8013BBCF1020F624450
:1003700098BF11F801CB00F8013B38BF11F8013BE1
:10038000A2F1040298BF00F801CB38BF00F8013B8E
:1003900011F0030300F02880083AC0F0088051F8FB
:1003A000043B083A51F804CBA0E80810F5E7121D09
:1003B0005CBF51F8043B40F8043BAFF30080D20728
:1003C00024BF11F8013B11F801CB48BF11F8012BF4
:1003D00024BF00F8013B00F801CB48BF00F8012B17
:1003E000704770477047704710B5203AC0F00B80D7
:1003F000B1E81850203AA0E81850B1E81850A0E829
:100400001850BFF4F5AF5FEA027C24BFB1E8185082
:10041000A0E8185044BF18C918C0BDE810405FEAF2
:10042000827C24BF51F8043B40F8043B08BF70476E
:10043000D20728BF31F8023B48BF11F8012B28BF73
:1004400020F8023B48BF00F8012B7047754600F0CA
:1004500029F8AE4605006946534620F00700854658
:1004600018B020B5FFF7E0FEBDE820404FF00006D1
:100470004FF000074FF000084FF0000B21F007018C
:10048000AC46ACE8C009ACE8C009ACE8C009ACE8CF
:10049000C0098D4670470446AFF300802046FFF741
:1004A000AEFE000000487047D0230020014918200C
:1004B000ABBEFEE72600020070470000017801F0A5
:1004C0000F012F4A11700178C1F3001151700178AA
:1004D000C1F34011917001788911D170417801F018
:1004E000070111714178C1F3C10151714178C1F324
:1004F0004011917141788911D171817801F00F011A
:100500001172817809115172C17801F0070191725D
:100510008179D1721146B0F807208A81B0F809209C
:10052000CA81B0F80B200A82417B154A917402F10E
:100530001301D0F80E200A60428A8A801339828A19
:10054000A1F81920C28AA1F81B20028BA1F81D2056
:10055000827ECA77B0F81B200A84427F81F822206D
:100560002331D0F81E200A60D0F822204A6090F88B
:1005700026200A722339B0F827208A8570470000A8
:10058000580A002010B5012001F0E8FB002001F01E
:10059000E5FB10BD08B5014600200090034800901F
:1005A0000098084400900098008808BD006C004046
:1005B00008B500220092044A0092009A0244009278
:1005C000009A116008BD0000006C004010B502F0F8
:1005D000C9FB02F079FC00F048FB10BD00BFFEE74C
:1005E00010B5002000F0FCFB0549C860FF208870B2
:1005F000044848600448886000200870487010BDB6
:100600004C0B00208C0B00208B0C002010B5002020
:1006100000F0E6FB0549C860FF2088700448486088
:100620000448886000200870487010BD5C0B0020F2
:100630008A0D0020890E002010B5002000F0D0FBAC
:100640000549C860FF2088700448486004488860F5
:1006500000200870487010BD6C0B0020880F00202F
:100660008710002010B5002000F0BAFB0549C860D3
:10067000FF208870044848600448886000200870A3
:10068000487010BD7C0B00208611002085120020D0
:1006900021B1026842F00102026004E002684FF6F4
:1006A000FE731A400260704701684FF6FE721140F7
:1006B00001600021016041608160C1604B49884256
:1006C00008D14A490839496841F00F01474A083AB8
:1006D00051608AE045491431884208D143490839BC
:1006E000496841F0F001414A083A51607DE03F49D4
:1006F0002831884208D13D490839496841F4706180
:100700003A4A083A516070E038493C31884208D191
:1007100036490839496841F47041344A083A516011
:1007200063E032495031884208D13049083949687C
:1007300041F470212D4A083A516056E02B4964314A
:10074000884208D129490839496841F47001274A8B
:10075000083A516049E025497831884208D1234957
:100760000839496841F07061204A083A51603CE01C
:100770001F49884206D1011F096841F00F01021F7D
:10078000116032E01A491431884208D11849091F12
:10079000096841F0F001164A121F116025E0144962
:1007A0002831884208D11249091F096841F4706153
:1007B0000F4A121F116018E00D493C31884208D1E0
:1007C0000B49091F096841F47041094A121F116061
:1007D0000BE007495031884207D10549091F0968D4
:1007E00041F47021024A121F116070470800024054
:1007F000080402400146486880B2704710B50022E4
:10080000026847F6F0739A430C6A8B6823430C69BD
:1008100023434C6923438C692343CC6923434C6AAB
:1008200023438C6A23431A430260CB6843600B68FE
:1008300083604B68C36010BDF0B58BB007460D46B2
:1008400016461C460121084601F058FA01210220F3
:1008500001F054FA0D4804803846FFF725FF009553
:1008600001960020029003940490802005900020BF
:100870000690079008904FF40050099000200A90CD
:1008800069463846FFF7BAFF0BB0F0BDF400002010
:1008900010B50446012C06D0022C17D0032C2BD007
:1008A000042C52D13EE000212948FFF7F1FE2948EF
:1008B0000188274800F05AF801224021264802F01A
:1008C00068F901212248FFF7E3FE3FE000212048BC
:1008D0001430FFF7DDFE1F4801881D48143000F07A
:1008E00045F8012240211D4802F053F90121184822
:1008F0001430FFF7CDFE29E0002115482838FFF716
:10090000C7FE144801881248283800F02FF8012249
:100910004021134802F03DF901210D482838FFF726
:10092000B7FE13E000210F48FFF7B2FE0948018827
:100930000C4800F01BF8012240210B4802F029F975
:1009400001210848FFF7A4FE00E000BF00BF10BD72
:1009500058000240F40000200038014000440040EC
:100960000048004030040240004C004041607047A5
:100970007047000010B500F0D9F9102000F01EF803
:1009800070B11021084800F041F918B90120074959
:10099000087002E0002005490870102000F008F8F7
:1009A00000F0D6F910BD0000000C0140F600002058
:1009B000014908607047000014040140014600200E
:1009C0000022074B1B6803EA0102054B14331B6826
:1009D0000B4013B10AB1012000E000207047000075
:1009E0000004014030B5044604254FF4302000F0E7
:1009F0006FF80546042D17D10C48006940F002003D
:100A00000A49086108464461006940F040000861F5
:100A10004FF4302000F05CF805460448006941F6C8
:100A2000FD71084001490861284630BD00200240A0
:100A300004200B49C96801F0010109B101200EE051
:100A40000749C96801F0040109B1022007E004491F
:100A5000C96801F0100109B1032000E004207047CB
:100A6000002002400348006940F08000014908610D
:100A7000704700000020024070B504460D46042671
:100A8000F00200F025F80646042E11D1094800694D
:100A900040F00100074908612580F00200F018F8D5
:100AA00006460448006941F6FE71084001490861A4
:100AB000304670BD002002400248034948600348A8
:100AC000486070472301674500200240AB89EFCDA5
:100AD00000B502460423FFF7ABFF034603E0FFF730
:100AE000A7FF0346521E012B01D1002AF7D102B9FC
:100AF0000523184600BD2DE9F041024600250026D9
:100B0000002000230024002791F803C00CF00F05FB
:100B100091F803C00CF0100CBCF1000F03D091F859
:100B200002C04CEA050591F800C0BCF1000F31D0BD
:100B3000146800202BE04FF0010C0CFA00F3B1F820
:100B400000C00CEA03069E4220D183004FF00F0C38
:100B50000CFA03F7BC4305FA03FC4CEA040491F8D1
:100B600003C0BCF1280F06D14FF0010C0CFA00FCB9
:100B7000C2F814C00AE091F803C0BCF1480F05D1D7
:100B80004FF0010C0CFA00FCC2F810C0401C082801
:100B9000D1D31460B1F800C0BCF1FF0F34DD54684C
:100BA00000202EE000F1080C4FF0010808FA0CF3C9
:100BB000B1F800C00CEA03069E4221D183004FF039
:100BC0000F0C0CFA03F7BC4305FA03FC4CEA0404CF
:100BD00091F803C0BCF1280F05D100F1080C08FA08
:100BE0000CF8C2F8148091F803C0BCF1480F07D18B
:100BF00000F1080C4FF0010808FA0CF8C2F8108058
:100C0000401C0828CED35460BDE8F0810246002085
:100C100093680B400BB1012000E000207047416158
:100C200070470161704700BFFEE70146CA1701EB3C
:100C300092729210A1EB820292B9642091FBF0F2C1
:100C400000FB121050B94FF4C87091FBF0F200FB9A
:100C5000121008B9012070470020FCE70120FAE7D4
:100C60000020F8E700BFFEE7704710B54FF4407072
:100C700000F03AF810BD000070B5002100230F22EB
:100C8000C47804B3154C246804F4E064C4F5E0644B
:100C9000210AC1F10403CA40447804FA03F18478BC
:100CA0001440214309010E4C0678A155047804F044
:100CB0001F050124AC4005786D11AD0005F1E0255C
:100CC000C5F8004109E0047804F01F050124AC4098
:100CD000044D0678761145F8264070BD0CED00E015
:100CE00000E400E080E100E002490143024A1160B3
:100CF000704700000000FA050CED00E010B500F0B0
:100D000013F800F079FD00F0A1FD00F0C1FD00F046
:100D100049FD00F01BFD00F055FE00F0F9FD00F06C
:100D20001FFE00F002F810BD7047704706480078BB
:100D3000012808D105480078FF2804D2034800782C
:100D4000401C02490870704736010020290100202C
:100D500010B500241A480078012830D1FFF776FA40
:100D600004461848007820B116480078401E1549FE
:100D7000087014480078F8B913480078E0B900F01A
:100D800083FE12481249097850F821001149086081
:100D90000F4800781049097888420DD00D48006846
:100DA000806B401C0B49096888630C480068401C34
:100DB0000A490860FFF769FA2046FFF74BFA10BDB1
:100DC00036010020290100202A010020681E002091
:100DD0002C010020440100202B01002010010020E4
:100DE00070B5054600260F48007808B1002070BD98
:100DF000FFF72CFA06460C480468006820B10A4840
:100E000000684068084908603046FFF723FA3CB1A3
:100E100003202070258100206060204600F088FCBF
:100E20002046E4E729010020140100202DE9F041CB
:100E300005460E46144600272878032803D00120D3
:100E40002070BDE8F0813148007810B10220207098
:100E5000F7E72F48007810B10D202070F1E7FFF779
:100E6000F5F90746288940B12889401E288138466F
:100E7000FFF7F0F900202070E3E72648006890F8BB
:100E8000300040F001002349096881F8300000205B
:100E90002049096881F831001E480068C66228466A
:100EA00000F008FC3846FFF7D5F900F0B3FDFFF776
:100EB000CDF907461748006890F8310020B10128A5
:100EC00009D0022806D102E0002020700BE00E209D
:100ED000207008E000BF29460E48006800F0D4FBEF
:100EE0000A20207000BF00BF00200A49096881F86D
:100EF00030000849096881F8310006490968C8616D
:100F00003846FFF7A7F900BF9BE700002901002042
:100F10002A0100203C01002070B5044600252078FD
:100F2000032801D0012070BDFFF790F90546A07A93
:100F300060B1002301221946204600F063FB2846D9
:100F4000FFF788F900F066FD0020ECE720894FF6F6
:100F5000FF71884207D22089401C20812846FFF774
:100F600079F90020DFE72846FFF774F93320DAE744
:100F700010B50020FFF734FF0D4908600020FFF78F
:100F80002FFF0C4908600020FFF72AFF0A4908607C
:100F90000020FFF725FF094908600020FFF720FF28
:100FA000074908600020FFF71BFF0649086010BDD5
:100FB00004000020080000200C0000201000002089
:100FC000140000201800002010B50B48007890B9DC
:100FD00000F05AFD09480078094908700948074996
:100FE000097850F821000849086008460068074958
:100FF0000860FFF732F910BD360100202C010020F7
:101000002B010020681E0020440100203C0100202C
:1010100010B50024022000F0F5F9FFF717F9044697
:1010200000200B4908602046FFF714F9642000F007
:10103000E9F9FFF70BF9044605480068054908601F
:101040000120054908702046FFF704F910BD000093
:1010500038010020200100202801002070470000F6
:101060002DE9FE4F06460F4690461C464FF00009FC
:10107000FFF7ECF881461F48007828B14846FFF793
:10108000E9F83C20BDE8FE8F1B4850F8240060BB07
:101090000120194941F824004846FFF7DBF80023F6
:1010A00042463946304600F009F982460020009059
:1010B00001900346024651460290204600F0FAFC99
:1010C000054635B90D48007801280CD100F0A2FC86
:1010D00009E0FFF7BBF881460020074941F82400EA
:1010E0004846FFF7B7F82846CCE74846FFF7B2F87E
:1010F0002820C7E729010020681E002036010020B3
:101100002DE9F04F85B081468A4693461C46DDE9BD
:101110000F78129D00200390FFF798F80390234862
:10112000007830B10398FFF795F83C2005B0BDE892
:10113000F08F1F4850F8240088BB01201C4941F85B
:1011400024000398FFF786F82A464146384600F007
:10115000C1FD2B465A465146484600F0AFF8049070
:101160001198CDE9008002953A4620460E9B0499DD
:1011700000F0A0FC064636B90E48007801280CD1D4
:1011800000F048FC09E0FFF761F8039000200849EF
:1011900041F824000398FFF75DF83046C6E7FFE703
:1011A0000398FFF757F82820C0E700002901002026
:1011B000681E002036010020704770472DE9F0417D
:1011C00006460F4614464FF000081548007818B13F
:1011D00012202070BDE8F081FFF738F88046FF2E1E
:1011E00003D11048006890F832600F4850F826503C
:1011F0002DB94046FFF72EF843202070EAE7012D75
:1012000005D14046FFF726F843202070E2E7EF645F
:101210004046FFF71FF80020207000BFDAE700000B
:10122000290100203C010020681E002070470000BA
:101230002DE9F04707460D464FF0000A00202860D0
:101240006860FFF703F88246FF2F03D11948006852
:1012500090F83270184850F827402CB95046FEF7E5
:10126000F9FF4320BDE8F087012C04D15046FEF77A
:10127000F1FF4320F6E7207C00F0010020B9504642
:10128000FEF7E8FF4520EDE70026D4F80C90D4F8EF
:1012900008805046FEF7DEFF00E0761C58F8041B7D
:1012A0000029FAD0B0002860A9EB06008000686031
:1012B0000020D7E73C010020681E002070B50446DE
:1012C00010464FF080750560051F28462C606FF0B2
:1012D0000106051F28462E604FF01236051F2846CE
:1012E0002E604FF00336051F28462E604FF0023661
:1012F000051F28462E607610051F28462E60051F04
:10130000284629604FF01136051F28462E604FF001
:101310001036051F28462E604FF00936051F284657
:101320002E604FF00836051F28462E604FF0073616
:10133000051F28462E604FF00636051F28462E60F2
:101340004FF00536051F28462E604FF00436051F66
:1013500028462E6070BD00002DE9F04105464FF093
:101360000008FEF773FF8046FF2D05D12048006876
:1013700090F83250012608E01D48006890F83200CD
:10138000A84201D1012600E000261A4850F8254065
:101390002CB94046FEF75EFF4820BDE8F081012CE5
:1013A00004D14046FEF756FF4320F6E794F8347028
:1013B0001148C05D94F8351088430F49C855084658
:1013C000C05D30B994F836100C48007888430B495A
:1013D000087094F8300040F0080084F8300040466F
:1013E000FEF738FF012E01D100F014FB0020D4E7F6
:1013F0003C010020681E00202E0100202D0100204D
:101400007047000070B5054600261748007800B107
:1014100070BD1648007800B1FAE71DB3FEF716FF5D
:1014200006461348006890F834401248005D1049A1
:10143000096891F8351088430E4908550846005D43
:1014400040B90B48006890F836100B480078884384
:101450000949087006480068C5623046FEF7FAFE82
:1014600000F0D8FA00BFD3E7290100202A010020AC
:101470003C0100202E0100202D0100202DE9F0412B
:1014800005460E4617461C461248007810B15520F6
:10149000BDE8F0811048007808B13220F8E74FF439
:1014A0007A7060434FF47A71B0FBF1F14FF46160F0
:1014B0006843C6EB061200EB8200384400EB4002A2
:1014C000C2EBC01001EBC0084046FFF79BFF0020B5
:1014D000DEE70000290100202A01002070B5002568
:1014E000FEF7B4FE0546034804682846FEF7B2FE40
:1014F000204670BD5401002070B504460025FEF75B
:10150000A5FE0546024804602846FEF7A3FE70BD0E
:101510005401002070B5002600F072F8FEF796FE28
:10152000064631480068401C2F4908603046FEF7E7
:1015300091FE2E480078012853D12D48007820B123
:10154000012804D0022809D103E001250BE0002581
:1015500009E0012501202649087004E0012500204A
:101560002349087000BF00BF05B970BD2148046859
:1015700033E0FEF76BFE0646E06A50B3E06A401EB9
:10158000E062E06A28BB94F8300000F0370040B118
:1015900014F8300F00F0C800207001206070303C5B
:1015A00002E0002084F8310094F8300000F00800D8
:1015B00078B93434A0781049097808430E49087086
:1015C00020780E49085C6178084314F834190B4AF6
:1015D000505464693046FEF73DFE94F832003F28CF
:1015E000C7D100BFC1E70000540100203601002030
:1015F0004C010020480100202D0100202E01002078
:10160000704700002DE9F04F05460F469046994679
:10161000A87A19490E5C05F10B00805D11F800B045
:101620000BEBC60000F0FF0A144850F82A400020D7
:101630002034E0602760207C20EA0800207484F8D1
:101640001190207C203C00F0080068B994F8360026
:101650000B49097808430A4908700A48805D94F8E4
:1016600035100843074988552946204600F00CF8F4
:101670005046BDE8F08F000028380008681E0020A2
:101680002D0100202E01002010B590F8342001F12A
:101690000B039B5C90F83540A34301F10B04A3546A
:1016A00023469B5C23B98B7A90F83640A3438B7218
:1016B00010BD000010B51B4A1268D061194A1268AB
:1016C00092F8343000F10B02D25C164B1B6893F891
:1016D00035301A43134B1B6893F8344000F10B0369
:1016E0001A55827A0F4B1B6893F836301A43827270
:1016F0000C4A126892F834100B4A525C094B1B6872
:1017000093F835309A43084B5A541A46525C42B902
:10171000044A126892F83630044A12789A43034B0E
:101720001A7010BD3C0100202E0100202D01002068
:10173000014600228A72002005E0002301F10B021D
:101740001354421CD0B20828F7D370472DE9F0415A
:101750005021114800F02CF900250DE0681C86B2DC
:101760000D4800EB051400EB0617002020706760A1
:101770000AA0E060681C85B2042DEFD3064800EB98
:10178000051400202070606004A0E0600248044955
:101790000860BDE8F0810000181A00203F0000003A
:1017A0001801002070B54FF42071114800F000F9C5
:1017B00000230FE0581C85B203EB83000C4901EBBA
:1017C000800405EB850001EB800600202070666038
:1017D000581C83B21F2BEDD303EB8300044901EBAC
:1017E000800400202070606008460249086070BDD7
:1017F000981700201401002000200A4908600A49B7
:1018000008700A4908700A4908700A4908700A49AC
:1018100008600A4908600A4908600A4908600A49DC
:101820000870704754010020290100202A0100207F
:10183000370100203601002010010020380100206F
:1018400024010020200100202801002000210A4A54
:101850001170002004E00021084A1154411CC8B254
:101860000828F8D30021064A1170064A1170064A6A
:101870001160064A116070472D0100202E010020E2
:101880002B0100202C010020440100203C010020FD
:1018900070B54FF47C71194800F08AF84FF48071EC
:1018A000174800F085F8002413E0601CC5B2C4EBB3
:1018B000C40000EB4000114901EB8003C5EBC500FB
:1018C00000EB400001EB80065E610EA0D864601C56
:1018D000C4B20B2CE9D3C4EBC40000EB40000749B1
:1018E00001EB80030020586106A0D864002006495F
:1018F000086002480549086070BD0000681F0020AC
:10190000681E00203F000000480100204001002028
:1019100000B587B00320002180220A4BCDE90132B7
:10192000CDE903104FF6FF703F23074A00900748A8
:10193000FFF7E6FB06AA06A13F20FFF73FFC07B032
:1019400000BD0000681C0020641E0020E91B000888
:1019500075432F4F532D49492049646C65000000A1
:1019600000B587B00320002180220A4BCDE9013267
:10197000CDE903104FF6FE703E23074A009007485A
:10198000FFF7BEFB06AA06A13E20FFF717FC07B033
:1019900000BD0000681A0020641C0020111C000813
:1019A00075432F4F532D4949205374617400000033
:1019B00004E0002200F8012B4A1E91B20029F8D160
:1019C000704700002DE9F04178211048FFF7F0FF43
:1019D00000240DE0601C86B204EB44000B4901EBCF
:1019E000C00506EB460001EBC0072F60601C84B207
:1019F000042CEFD304EB4400044901EBC0050020A4
:101A00002860084602490860BDE8F081582300209C
:101A10005001002010B50024FEF718FC04461348BE
:101A20000078F8B912480078E0B900F02DF81148B4
:101A30001149097850F82100104908600E480078D3
:101A40000F49097888420DD00C480068806B401C13
:101A50000A49096888630B480068401C0949086006
:101A6000FEF70CFC2046FEF7F5FB10BD2901002017
:101A70002A010020681E00202C01002044010020C3
:101A80002B010020100100200649074A1278885CCB
:101A90000649095C034A515C01EBC001044A11701C
:101AA00070470000283800082D0100202E0100207A
:101AB0002C0100202DE9F84F05460F469046994627
:101AC000DDE90AAB00200090FEF7C0FB00903F4824
:101AD0000468002C74D0183454F8040C3B49086096
:101AE0000098FEF7B7FB44F8187CA5760020207616
:101AF0006076606144F814BC44F80CAC44F8108C77
:101B00000C9824F8080C24F8069C0020E077E810D4
:101B1000207705F00700E076217F01208840A0773C
:101B2000E17E01208840607700206060E060A06076
:101B30002062A0626062E062206325A06063183CBE
:101B4000002606E0002104F1500040F82610701C29
:101B5000C6B2002EF6D02046FFF780FA2046FFF7E7
:101B60002BFBFEF773FB00901A4840F825401A48FB
:101B7000006860610020A0611748006810B1164835
:101B800000688461144804603434A07813490978EB
:101B900008431249087020781149085C61780843AD
:101BA00014F834190E4A50540E480078401C0D4960
:101BB00008700098FEF74EFB0020BDE8F88FFFE7A5
:101BC0000098FEF747FB4220F7E7000040010020A5
:101BD0003F000000681E0020480100202D01002069
:101BE0002E01002037010020002400BF00BFFEF7B7
:101BF0002DFB044605480068401C04490860204647
:101C0000FEF728FBFFF7D9FAF1E7000038010020C2
:101C1000002400BF02E0C820FFF7F4FB1948007859
:101C20000028F8D0184800686421B0FBF1F016498C
:101C300008600846006828B9002014490870FF2091
:101C4000FFF78AFB00BFFEF701FB0446104800685F
:101C50001049086000200E4908602046FEF7FAFA95
:101C60000C48006808490968B0FBF1F0C0F1640055
:101C700006490870FFF7DAFA00F00EF86420FFF763
:101C8000C1FBE0E728010020200100201C0100200A
:101C900038010020240100207CB5002514E06946AD
:101CA0002846FFF7C5FA064666B9094850F82540A8
:101CB00044B1012C06D0D4E9020100EB810060643C
:101CC0000198A064681CC5B23F2DE8D97CBD000016
:101CD000681E002002F0010343B102F002032BB1A1
:101CE00002E0491E002308C00029FAD17047000015
:101CF000014908627047000000000E4229B1064AFF
:101D000052690243044B5A6104E0034A5269824318
:101D1000014B5A61704700000010024029B1064A89
:101D2000D2690243044BDA6104E0034AD269824378
:101D3000014BDA61704700000010024029B1064AE9
:101D400092690243044B9A6104E0034A9269824318
:101D5000014B9A6170470000001002400149086081
:101D6000704700004004424230B5002100220024A8
:101D700000232D4D6D6805F00C0121B1042905D01B
:101D8000082923D105E0294D056022E0274D056093
:101D90001FE0254D6D6805F47012234D6D6805F444
:101DA0008034022505EB92421CB9214D5543056054
:101DB0000BE01D4D6D6805F400351DB11C4D5543FC
:101DC000056002E0194D5543056002E0174D0560BE
:101DD00000BF00BF144D6D6805F0F0010909154DF5
:101DE0006B5C0568DD4045600F4D6D6805F4E06192
:101DF000090A104D6B5C4568DD4085600A4D6D68D1
:101E000005F46051C90A0B4D6B5C4568DD40C56047
:101E1000054D6D6805F44041890B074D6B5CC56845
:101E2000B5FBF3F5056130BD0010024000127A00E9
:101E300000093D00FC0000200C01002010B5014607
:101E40000022002300204A11012A02D1094C2368F4
:101E500006E0022A02D1074C236A01E0054C636ABE
:101E600001F01F02012494401C400CB1012000E04D
:101E7000002010BD001002400149086070470000BA
:101E80008004424201490860704700003C0442421D
:101E90000249096A0143014A116270470010024079
:101EA000024909888143014A118070470428004093
:101EB0007CB500240420FEF76DFB45F251018842F9
:101EC0004AD001214FF0C050FFF728FF0120FFF753
:101ED0000FFFFEF757FB0120FFF7CEFF04E0601C69
:101EE000C4B20A2000F06CFF6120FFF7A7FF08B919
:101EF000FA2CF4DBFA2C01DB01207CBD4FF40070DE
:101F0000FFF7C6FF0120FFF7BDFF00F0E7F900F083
:101F1000EFF90121084600F039F900F0DFF900F08F
:101F20003BF849F63F4000F0C9F900F0D7F91948ED
:101F3000807818494978174DCDE900102B78EA7957
:101F4000A979A88800F048F900F030F845F250016E
:101F50000420FEF72DFB16E000F01EF80D488078F7
:101F60000C4949780B4DCDE900102B78EA79A97915
:101F7000A88800F031F900F019F80121084600F0B6
:101F800005F900F0ABF900F015F900F019F80020A0
:101F9000B3E700008E1300200348008840F01000D3
:101FA0000149088070470000042800400348008869
:101FB0004FF6EF710840014908807047042800403F
:101FC00070B500260024002500F07AF8064638484F
:101FD000B6FBF0F437480088A0423CD035490C806D
:101FE00040F2B27510E02846FEF71FFE40B1B4F58E
:101FF000B77F02D3A4F5B77404E0681C85B206E08D
:10200000A4F26D14681C85B2B4F5B67FEBD800BF9E
:1020100029488580002516E027498888FEF705FEB7
:1020200030B1012D04D11D2C01D31D3C09E00CE081
:102030002248405DA04203D82048405D241A00E0B9
:1020400003E0681C85B21C2CE6D200BF681C1A494C
:102050008871601CC8711648B6FBF0F100FB116472
:102060004FF46160B4FBF0F0134908704FF4616005
:10207000B4FBF0F100FB11403C21B0FBF1F00E4944
:1020800048704FF46160B4FBF0F100FB11403C215B
:10209000B0FBF1F201FB1200074988700B46DA79B8
:1020A0009979988800F028F803490872002070BDDB
:1020B00080510100FA000020841300201C38000821
:1020C000002103480188001F008841EA0040704752
:1020D0001C28004001460020064A12880A40D0B25F
:1020E000044A121F12880A4012B108B1012000E010
:1020F0000020704704280040F0B503460C46154602
:10210000642093FBF0F0C6B2642093FBF0F700FB71
:102110001730C1B2132E02DD01F16400C1B20846CE
:10212000CF1701EB977701EBA707BAB2072092FB15
:10213000F0F700FB172082B25719601EDFF82CC0A1
:102140001CF80000384482B2CF1701EB9777BF101C
:10215000A1EB87071FB9032C01DA501E82B20720BA
:1021600092FBF0F700FB1720C0B2F0BD103800085A
:1021700010B50120FFF7AEFF08B1FFF721FF0120E6
:10218000FFF78EFE00F0AAF810BD000029B1064A44
:1021900012880243044B1A8004E0034A12888243E7
:1021A000014B1A80704700000028004010B5FFF76F
:1021B0007FFE10BD08B503208DF8000006208DF8C5
:1021C000010000208DF8020001208DF80300684610
:1021D000FEF752FD08BD00002DE9F05F06460F46F0
:1021E00090469946DDE90AAB002440F2B27086427F
:1021F00003DB40F63300864202DD0120BDE8F09F9C
:1022000040F2B2750AE02846FEF70FFD10B12048F3
:10221000044401E01F480444681C85B2B542F2DB67
:10222000781EC7B2002510E01B48405D40F2A32194
:10223000484304EBC0143046FEF7F7FC18B1012DFB
:1022400001D116480444681C85B2BD42ECDBA8F1FC
:10225000010040F2A321484304EBC014C9EB49102C
:10226000C0EB092004EB0014CAEB0A1004EB800455
:102270005C4401214FF0C050FFF750FD0120FFF7F3
:1022800037FD204600F00CF800F028F80020B5E7F4
:102290000085E2018033E1011C3800088051010013
:1022A00000B50246FFF778FE100C03490880091DAF
:1022B0000A80FFF77BFE00BD1828004000B50246EB
:1022C000FFF76AFEC2F3034003490880091D0A8034
:1022D000FFF76CFE00BD00000828004000BF034867
:1022E000008800F020000028F9D070470428004042
:1022F000074800884FF6F77108400549088000BF7D
:102300000348008800F008000028F9D0704700005A
:102310000428004030B503460C461546002207E06D
:10232000184600F008F824F812009B1C501C82B2DA
:10233000AA42F5DB30BD0146088870472DE9F05F01
:1023400080468A461746B8F1006F02D3334880456D
:1023500001D3BDE8F09FFEF7AFFBA8F1006B4FEA99
:102360009B25CBF34809C9F50074A74200DC3C4625
:102370004DE04FF0006101EB85208A142849FFF7FA
:10238000C9FF00260BE009EB0600254931F81000D3
:102390004FF6FF71884200D003E0701C86B2A6425F
:1023A000F1DB00BFA6421BDA4FF0006101EB852094
:1023B000FEF718FB002608E03AF8160006EB0901C4
:1023C000174A22F81100701C86B2A642F4DB4FF0C7
:1023D000006101EB85208A14114900F023F804E024
:1023E00022465146404600F01DF8A74200D10FE0BA
:1023F0006D1C4FF000090AEB440AA044381B87B259
:10240000B7F5007F02DD4FF4007400E03C46B0E712
:1024100000BFFEF727FB00BF9BE70000000002089B
:10242000981300202DE9F04105460E46174600247A
:1024300007E036F814102846FEF71EFBAD1C601CA2
:1024400084B2BC42F5DBBDE8F081704710B500F006
:1024500001F810BD0CB500200190009033480068D1
:1024600040F480303149086000BF3048006800F413
:10247000003000900198401C0190009818B9019814
:10248000B0F5A06FF1D12948006800F4003010B118
:102490000120009001E0002000900098012843D125
:1024A0002348006840F01000214908600846006891
:1024B00020F0030008600846006840F00200086051
:1024C0001A4840681949486008464068486008460C
:1024D000406840F4806048600846406820F47C1002
:1024E00048600846406840F4E810486008460068C4
:1024F00040F08070086000BF0C48006800F0007079
:102500000028F9D00948406820F0030007494860D6
:102510000846406840F00200486000BF0348406839
:1025200000F00C000828F9D10CBD0000001002409A
:1025300000200240042808D14FF0E021096941F051
:1025400004014FF0E022116107E04FF0E02109693A
:1025500021F004014FF0E0221161704710B5FEF741
:10256000E5FBFEF7D7FFFEF7F3FB10BD10B51348F0
:10257000006840F0010011490860084640681049B1
:1025800008400E494860084600680E4908400B495B
:1025900008600846006820F480200860084640680B
:1025A00020F4FE0048604FF41F008860FFF74EFFE4
:1025B0004FF000600449086010BD000000100240A8
:1025C0000000FFF8FFFFF6FE08ED00E00025002404
:1025D0000023012219461846FEF750FFFFF7E6FDDB
:1025E00000F066FC00F036FC0020FEF785FF0120BD
:1025F0008C49087014E10123002211461046FEF7B1
:102600003DFF89480068012802D1681CC5B200E07E
:1026100000258548006883480078062870D2DFE8E6
:1026200000F0FD031DF1F5F67F480068A8B94FF4EE
:1026300080717E48FEF7F3FA3223002211461046DD
:10264000FEF71CFF4FF480717848FEF7EAFA02208B
:1026500074490870002076490870E0E074480078FA
:1026600006286ED2DFE800F0036E42C898C40A2044
:1026700000F034FE00B92CE06E4A1178506800F08A
:102680004FFC00B125E06C48C079032805D16A48A9
:10269000008940F20121884200D01AE0664890F893
:1026A0008A0028B1644890F88A100A3000F03EFE93
:1026B000614890F88B0018B905205D49087007E063
:1026C0005D4890F88B00012802D10220584908701B
:1026D00000BFFEF703FFB0F57A7F06D35748417875
:1026E00000F024FE0020FEF707FF86E04CB95448B6
:1026F000417800F01BFE01240020FEF7FDFE06E0FD
:102700008CE0FEF7EBFEB0F5FA7F00D900240A203A
:1027100000F0E4FD00B970E0464A1178506800F01E
:10272000FFFB00B169E04448C07920B94248008904
:10273000B0F5807F00D060E001203D4908700024A2
:102740005BE059E044B93F48417800F0EFFD0124D7
:102750000020FEF7D1FE05E0FEF7C0FEB0F5FA7FDF
:1027600000D900240A2000F0B9FD00B945E0314A43
:102770001178506800F0D4FB00B13EE02E48C079DB
:1027800020B92D480089B0F5807F00D035E00420C5
:1027900027490870002430E044B92848417800F007
:1027A000C5FD01240020FEF7A7FE05E0FEF796FE1A
:1027B000B0F5FA7F00D900240A2000F08FFD00B99F
:1027C0001BE01C4A1178506800F0AAFB00B114E02D
:1027D0001948C079032805D11748008940F2012122
:1027E000884200D009E0052011490870002404E067
:1027F00005200C49087000E000BF00BF0FE006E0B4
:1028000004E0FFE70A2000F055FD08E007E00A2099
:1028100000F028FD0A2000F061FD00E000BF00BFCD
:10282000E9E600001C0000202401224200080140CB
:10283000000000207C0B0020B60A00206A00002067
:10284000880000205B00002008B50020009020E0F8
:102850000123002211461046FEF710FE0D496A467C
:10286000C8680A21FEF7E2FA9DF8000018B90A4884
:102870000068FEF751FB6A460A2108480068FEF727
:10288000D5FA9DF8000020B9024A5178906800F00E
:1028900061FDDDE74C0B0020040000200800002053
:1028A00008B50020009020E00123002211461046C8
:1028B000FEF7E4FD0D496A46C8680A21FEF7B6FA3C
:1028C0009DF8000018B90A480068FEF725FB6A4623
:1028D0000A2108480068FEF7A9FA9DF8000020B90F
:1028E000024A5178906800F065FDDDE77C0B00201E
:1028F000140000201800002008B50020009020E0FF
:102900000123002211461046FEF7B8FD0D496A4624
:10291000C8680A21FEF78AFA9DF8000018B90A482B
:102920000068FEF7F9FA6A460A2108480068FEF7CF
:102930007DFA9DF8000020B9024A5178906800F0B5
:1029400021FDDDE75C0B00200C00002010000020C2
:1029500010B50024FEF7EAF940F22441184800F0CF
:102960002EF9012828D116480088C4B21448001D49
:102970000088C4B200211348FDF78AFE00224021DE
:102980000F4800F006F90F48FDF734FFC0F1FF00D3
:10299000C4B2FF200B49091D08600B4804700122D6
:1029A0004021074800F0F5F801210648FDF770FEC8
:1029B0000549C868FEF7B0FAFEF7CAF910BD000075
:1029C000004C0040300402407C0B002010B5002475
:1029D000FEF7ACF940F22441184800F0F0F8012865
:1029E00028D116480088C4B21448001D0088C4B21B
:1029F00000211348FDF74CFE002240210F4800F053
:102A0000C8F80F48FDF7F6FEC0F1FF00C4B2FF2082
:102A10000B495839C8650B4804700122402107480A
:102A200000F0B7F801210648FDF732FE0549C868F5
:102A3000FEF772FAFEF78CF910BD00000038014075
:102A4000580002404C0B002010B50024FEF76EF930
:102A500040F224411C4800F0B2F8012831D11A4854
:102A60000088C4B21848001D0088C4B240F2244156
:102A7000164800F073F800211548FDF709FE002202
:102A80004021114800F085F81148FDF7B3FEC0F170
:102A9000FF00C4B200200F4949680855FF200C49C7
:102AA0006C3908670B48047001224021064800F089
:102AB00070F801210648FDF7EBFD0649C868FEF7EE
:102AC0002BFAFEF745F910BD0044004000480040D5
:102AD0006C0002405C0B002010B50024FEF726F9C4
:102AE00040F224411A4800F06AF801282CD1184815
:102AF0000088C4B21648001D0088C4B200211548E1
:102B0000FDF7C6FD00224021114800F042F81148AF
:102B1000FDF770FEC0F1FF00C4B200200E49496805
:102B20000855FF200B49303948630B4804700122D7
:102B30004021074800F02DF801210648FDF7A8FDC7
:102B40000549C868FEF7E8F9FEF702F910BD000074
:102B500000480040300002406C0B002010B50022FD
:102B6000002340F66A14A14200D100BF0A120124DA
:102B70009440A3B2DC43048010BD21B1828942F4A9
:102B80000052828104E082894DF6FF731A408281EF
:102B900070471AB1838A0B43838202E0838A8B4396
:102BA0008382704702460020B1F5007F00D100BF4C
:102BB00013880B400BB1012000E00020704770B576
:102BC0000246002400230025002040F66A16B14288
:102BD00000D100BFC1F3421501F01F03012606FA20
:102BE00003F3012D02D19689334006E0022D02D174
:102BF000168A334001E0968A33400C12012606FA09
:102C000004F41688344013B10CB1012000E0002018
:102C100070BDF0B50346002400260025002040F6D4
:102C20006A17B94200D100BF1846C1F3421401F03F
:102C30001F06012707FA06F5012C01D10C3004E02C
:102C4000022C01D1103000E014301AB107682F4374
:102C5000076002E00768AF430760F0BD2DE9F04769
:102C600086B005460E460024A24600BFA1460027B6
:102C7000B08900B100BF2F462C8A4CF6FF7004408B
:102C8000F08804432C82AC894EF6F3100440B088DF
:102C900031890843718908430443AC81AC8A4FF6FB
:102CA000FF400440B0890443AC8201A8FFF75CF800
:102CB0001F48874202D1DDF810A001E0DDF80CA02A
:102CC000A88900F4004040B10AEBCA0000EB0A10EA
:102CD00031684900B0FBF1F807E00AEBCA0000EBED
:102CE0000A1031688900B0FBF1F86420B8FBF0F0FD
:102CF00004012009642101FB1089A88900F4004027
:102D000040B1322000EBC900B0FBF1F000F0070049
:102D1000044308E0322000EB09106421B0FBF1F01D
:102D200000F00F0004432C8106B0BDE8F0870000DE
:102D300000380140C1F308028280704700BFFEE7FF
:102D400070B504460D46681FC1B2E01C00F08DF856
:102D50000646A81E205CB04201D1012070BD0020B3
:102D6000FCE7000010B56FF00400FFF7E3FB10482C
:102D700000681049B0FBF1F00F4908700C4800687A
:102D80000C49B0FBF1F44FF47A70444301200B4935
:102D900008804FF0E020006940F002004FF0E02191
:102DA000086108464461006940F00100086110BDF7
:102DB000DC00002000127A00F0000020F200002069
:102DC00070B504460E480078012811D10D480088DE
:102DD000844206DB0B48008894FBF0F52846FEF79A
:102DE00011FB0848008894FBF0F100FB114084B20D
:102DF0004FF47A7104FB01F000F006F870BD00009A
:102E000036010020F200002070B5034600224FF08A
:102E1000E02675690E4E367803FB06F400BF4FF0CE
:102E2000E026B16910E04FF0E026B06988420BD08F
:102E3000884202D20E1A324402E02E1A0E44324464
:102E40000146A24200D300E0EDE700BF70BD0000E4
:102E5000F000002070470146887A70470146087BE1
:102E6000CA7A00EB022080B2704710B502460B46CA
:102E70000021002004E0545C0444E0B24C1CE1B2A8
:102E80009942F8DBC0B210BD10B5FDF79FFBFDF70E
:102E900035FF0A23044A00210448FEF7E1F8FEF753
:102EA00093F8002010BD000054020020E533000814
:102EB00010B5172202490348FFF72CFA10BD000095
:102EC000870A00200000010808B501211420FEF740
:102ED00035FF4FF40070ADF8000004208DF80300BA
:102EE00003208DF8020069460B48FDF704FE4FF4FD
:102EF0008070ADF8000010208DF8030003208DF8DD
:102F0000020069460548FDF7F6FD4FF4807103485D
:102F1000FDF785FE08BD00000010014000080140DB
:102F200070B504460D462078682874D1681E205C70
:102F30001628FAD129462046FFF702FF08B90020DB
:102F400070BD2046FFF787FFC149C8712046FFF7D3
:102F500085FFBF490881E0780870481C61680160FE
:102F600021898180401EC079162870D2DFE800F0E8
:102F70000B253740A6B8D46F6F6F6F6F6F6F6F6F91
:102F8000F6EDECEBEAE9B2480089B0F5807F03D0BA
:102F9000B0F5007F0ED106E00020AD4981F88B002E
:102FA00081F88A0007E00020A94981F88B0081F8A8
:102FB0008A0000E000BF00BF47E1A5480089B0F5E6
:102FC000807F06D0B0F5007F04D0B0F5806F03D1CC
:102FD00001E002E001E000E000BF00BF35E19C48F5
:102FE0000089B0F5807F00D100E000BF00BF2CE178
:102FF0009748008940F20142811A90425AD012DC6F
:10300000B0F5007F25D007DCB0F5807F20D0A0F29E
:103010000110A8BB24E019E1A0F2012008B3A0F23E
:10302000FF1068BB16E041F6FF32881A914214D0B7
:1030300006DCA1F2FF3171B1B1F5006F3BD10BE0BD
:10304000B0F5005F0AD0B0F5C04F34D107E0FBE027
:1030500032E031E030E02FE02EE02DE02CE02BE0FC
:103060002AE004F10D00FDF729FA2E2279497A4869
:10307000FDF746F928B90020754981F88B0009E071
:1030800019E00120724981F88B00172272497348B8
:10309000FFF754F96E480078C1280AD115206C4911
:1030A00081F88A00084690F88A206D490A30FDF7B9
:1030B00053F901E000E000BF00BFC6E064480089AA
:1030C000B0F5807F06D0B0F5007F04D0B0F5806FFA
:1030D00003D101E002E001E000E000BF00BFB4E086
:1030E0005B480089B0F5806F10D006DCB0F5807FBA
:1030F0000AD0B0F5007F0CD107E0B0F5006F06D024
:10310000B0F5805F05D103E004E003E002E001E0F8
:1031100000E000BF00BF98E04D480089B0F5806F27
:1031200016D006DCB0F5807F0AD0B0F5007F12D152
:103130000DE0B0F5006F0CD0B0F5805F0BD109E069
:103140000AE078E065E05BE048E027E006E003E0C5
:1031500002E001E000E000BF00BF76E03C480089EB
:10316000B0F5006F14D009DCB0F5807F0DD0B0F55C
:10317000007F0BD0B0F5806F0DD108E0B0F5805F17
:1031800007D0B0F5005F06D104E005E004E003E0FD
:1031900002E001E000E000BF00BF56E02C480089DB
:1031A000B0F5006F14D009DCB0F5807F0DD0B0F51C
:1031B000007F0BD0B0F5806F0DD108E0B0F5805FD7
:1031C00007D0B0F5005F06D104E005E004E003E0BD
:1031D00002E001E000E000BF00BF36E01C480089CB
:1031E000B0F5807F06D0B0F5007F04D0B0F5806FD9
:1031F00003D101E002E001E000E000BF00BF24E0F5
:1032000013480089B0F5807F00D100E000BF00BF07
:103210001BE00F480089B0F5807F06D0B0F5007F35
:1032200004D0B0F5806F03D101E002E001E000E0DE
:1032300000BF00BF09E006480089B0F5807F00D1DB
:1032400000E000BF00BF00E000BF00BF002077E645
:10325000B60A0020870A0020580A00200000010852
:103260002800002038B50446002000906A46214618
:103270000C480068FDF7DAFD9DF8000080B90A4BA4
:103280001A785968094B9868FDF766F8064800787F
:103290000649487006480068FDF73EFE012038BD2B
:1032A0000020FCE7040000204C0B00207C0B0020D9
:1032B0001800002038B50446002000906A462146D8
:1032C00005480068FDF7B2FD9DF8000008B901202F
:1032D00038BD0020FCE700000C00002038B5044693
:1032E000002000906A4621460C480068FDF79EFDCC
:1032F0009DF8000080B90A4B1A785968094B986804
:10330000FDF72AF806480078064948700648006824
:10331000FDF702FE012038BD0020FCE7140000206C
:103320007C0B00204C0B00200800002070B50546E7
:103330000C460649224688682946FDF70DF80348E1
:10334000447003480068FDF7E7FD70BD7C0B00206A
:103350001800002070B505460E4600240CE0295DDB
:103360000748FFF7E7FC00BF40210548FFF71AFCBC
:103370000028F9D0601CC4B2B442F0DB70BD00007C
:103380000038014070B505460E4600240CE0295D6A
:103390000748FFF7CFFC00BF40210548FFF702FCBC
:1033A0000028F9D0601CC4B2B442F0DB70BD00004C
:1033B0000044004070B505460E4600240CE0295D2F
:1033C0000748FFF7B7FC00BF40210548FFF7EAFBBD
:1033D0000028F9D0601CC4B2B442F0DB70BD00001C
:1033E000004C004070B50446002500BFFDF710FEFC
:1033F000FCF72CFF05460123104A00211048FDF779
:103400002FFE02230F4A00210F48FDF729FE032358
:103410000E4A00210E48FDF723FE04230D4A002129
:103420000D48FDF71DFE00F087F9FDF7A1FD0A200C
:10343000FDF792FF2846FCF70DFF70BD54040020F5
:10344000CD25000854060020492800085408002013
:10345000A1280008540A0020F928000810B586B0F9
:10346000044601211020FEF769FC01210846FEF701
:1034700065FC0121C804FEF751FC18208DF81700E7
:103480004FF48060ADF8140001208DF8160005A9F6
:103490001F48FDF730FB4FF40060ADF81400042026
:1034A0008DF8170005A91A48FDF725FB34208DF883
:1034B000000004208DF8010002208DF80200012098
:1034C0008DF803006846FDF7D7FB01944FF4805058
:1034D000ADF808000020ADF80A004FF48060ADF8A8
:1034E0000C000020ADF810000C20ADF80E0001A972
:1034F0000848FFF7B3FB012240F224410548FFF7DB
:1035000088FB01210348FFF738FB06B010BD00001F
:1035100000100140004C004010B586B00446012167
:1035200044F20400FEF70AFC18208DF817004FF44F
:103530000070ADF8140001208DF8160005A91D4893
:10354000FDF7D9FA4FF48060ADF8140004208DF82F
:10355000170005A91748FDF7CEFA25208DF80000C1
:1035600001208DF8010000208DF8020001208DF867
:1035700003006846FDF780FB01940020ADF80800C9
:10358000ADF80A00ADF80C00ADF810000C20ADF855
:103590000E0001A90848FFF761FB012240F2244117
:1035A0000548FFF736FB01210348FFF7E6FA06B0AE
:1035B00010BD0000000801400038014010B586B081
:1035C000044601210420FEF7B9FB01214804FEF75F
:1035D000A5FB18208DF817000420ADF81400012079
:1035E0008DF8160005A91F48FDF785FA0820ADF8EB
:1035F000140004208DF8170005A91A48FDF77BFA7E
:1036000026208DF8000002208DF8010000208DF8A2
:10361000020001208DF803006846FDF72DFB0194A0
:103620004FF48050ADF808000020ADF80A004FF4C8
:103630008060ADF80C000020ADF810000C20ADF853
:103640000E0001A90848FFF709FB012240F22441BE
:103650000548FFF7DEFA01210348FFF78EFA06B0AE
:1036600010BD0000000801400044004010B586B0C5
:10367000044601218804FEF751FB01210820FEF7D2
:103680005DFB10208DF817000220ADF81400032018
:103690008DF8160005A92648FDF72DFA4FF4806035
:1036A000ADF8140003208DF8160018208DF81700CF
:1036B00005A91F48FDF71FFA4FF40060ADF814008C
:1036C00004208DF8170005A91948FDF714FA2720E2
:1036D0008DF8000003208DF8010000208DF8020015
:1036E00001208DF803006846FDF7C6FA01944FF4F7
:1036F0008050ADF808000020ADF80A004FF480605B
:10370000ADF80C000020ADF810000C20ADF80E0054
:1037100001A90848FFF7A2FA012240F22441054816
:10372000FFF777FA01210348FFF727FA06B010BD2B
:10373000000C01400048004010B54FF4E130FFF7A5
:10374000EBFE4FF41660FFF739FF4FF41650FFF70A
:103750008DFF4FF41650FFF781FEFCF741FFFCF799
:1037600055FFFCF769FFFCF77DFFFF231E4A1F4949
:103770001F48FDF761F80120FDF78AF81D48FF2377
:103780001D4942681A481430FDF756F80220FDF72B
:103790007FF81A48FF231A49426815482838FDF770
:1037A0004BF80320FDF774F81648FF2316494268CA
:1037B0001648FDF741F80420FDF76AF840210B4850
:1037C000001FFFF7EFF940210B48001FFFF7EAF950
:1037D00040210B48001FFFF7E5F940210A48001F70
:1037E000FFF7E0F910BD00008C0B00200438014009
:1037F000580002405C0B0020044400406C0B002089
:10380000044800407C0B0020044C0040300402407F
:103810000003030601040602050003051F1C1F1E0A
:103820001F1E1F1F1E1F1E1F00000100020001009F
:103830000300010002000100040001000200010079
:103840000300010002000100050001000200010068
:103850000300010002000100040001000200010059
:103860000300010002000100060001000200010047
:103870000300010002000100040001000200010039
:103880000300010002000100050001000200010028
:103890000300010002000100040001000200010019
:1038A0000300010002000100070001000200010006
:1038B00003000100020001000400010002000100F9
:1038C00003000100020001000500010002000100E8
:1038D00003000100020001000400010002000100D9
:1038E00003000100020001000600010002000100C7
:1038F00003000100020001000400010002000100B9
:1039000003000100020001000500010002000100A7
:103910000300010002000100040001000200010098
:1039200003000100020001004839000800000020E7
:10393000580100006C010008D0390008580100202F
:10394000D8280000C8010008011C1201180D01024E
:10395000030405060708091068150F114A40171AD5
:10396000FF0121153E16680F5241140201018A45DC
:103970000F140301028A470F140401048A4A0FAE90
:1039800001030201480F12081B4D1660490F1B0569
:1039900005775119156924140610016D581668121F
:1039A000331B1002245E0F6416681D1224070504E1
:1039B00013682B1A41072172083BA24A0F393319A9
:1039C000CA29C9F9E41918691C6C0204063A0141B4
:0400000508000131BD
:00000001FF
