:020000040800F2
:10000000402B00200D020008110D0008CF0C000845
:100010000D0D000885060008652E00080000000090
:10002000000000000000000000000000FF240008A5
:10003000190A0008000000009B0200082926000899
:1000400027020008270200082702000825220008CE
:1000500027020008270200082702000827020008DC
:1000600027020008270200081D0A000827020008CE
:1000700027020008270200082702000827020008BC
:1000800027020008270200082702000827020008AC
:10009000270200082702000827020008270200089C
:1000A000270200082702000827020008270200088C
:1000B000270200082702000827020008270200087C
:1000C000270200082702000827020008270200086C
:1000D00027020008F52A0008712B0008012C0008EF
:1000E000270200082702000827020008270200084C
:1000F000270200082702000827020008270200083C
:10010000270200082702000827020008270200082B
:10011000792A0008270200082702000827020008A1
:10012000270200082702000827020008270200080B
:1001300000F002F800F05AF80AA090E8000C82449F
:100140008344AAF10107DA4501D100F04FF8AFF27C
:10015000090EBAE80F0013F0010F18BFFB1A43F0A5
:1001600001031847A0390000C03900000A444FF0CD
:10017000000C10F8013B13F0070408BF10F8014B06
:100180001D1108BF10F8015B641E05D010F8016B4B
:10019000641E01F8016BF9D113F0080F1EBF10F8AF
:1001A000014BAD1C0C1B09D16D1E58BF01F801CBD2
:1001B000FAD505E014F8016B01F8016B6D1EF9D555
:1001C0009142D6D37047000000230024002500266A
:1001D000103A28BF78C1FBD8520728BF30C148BFAA
:1001E0000B6070471FB51FBD10B510BD00F02EF994
:1001F0001146FFF7F7FF02F023FF00F04CF903B4BC
:10020000FFF7F2FF03BC00F051F9000009488047F6
:1002100009480047FEE7FEE7FEE7FEE7FEE7FEE7E8
:10022000FEE7FEE7FEE7FEE704480549054A064B00
:1002300070470000392600083101000840250020E1
:10024000402B00204027002040270020EFF31080A3
:1002500072B6704780F310887047204C204D25609F
:100260004FF0000484F309881E4C4FF001052570FF
:100270001D4C4FF08055256062B6FEE730B41A4C35
:100280004FF08055256030BC704730B4164C4FF0AD
:100290008055256030BC704700BF72B6EFF309800F
:1002A00028B1203880E8F00F10490968086000B5CF
:1002B0000F4880475DF804EB0E480F490A7802703A
:1002C0000A480E490A680260106890E8F00F203072
:1002D00080F309884EF0040E62B6704720ED00E00E
:1002E0000000FFFF3601002004ED00E03C0100208B
:1002F000B51400082B0100202C010020440100202F
:1003000040EA010310B59B070FD1042A0DD310C892
:1003100008C9121F9C42F8D020BA19BA884201D9E4
:10032000012010BD4FF0FF3010BD1AB1D30703D02C
:10033000521C07E0002010BD10F8013B11F8014BE2
:100340001B1B07D110F8013B11F8014B1B1B01D1FE
:10035000921EF1D1184610BD032A40F2308010F0F1
:10036000030C00F0158011F8013BBCF1020F624450
:1003700098BF11F801CB00F8013B38BF11F8013BE1
:10038000A2F1040298BF00F801CB38BF00F8013B8E
:1003900011F0030300F02880083AC0F0088051F8FB
:1003A000043B083A51F804CBA0E80810F5E7121D09
:1003B0005CBF51F8043B40F8043BAFF30080D20728
:1003C00024BF11F8013B11F801CB48BF11F8012BF4
:1003D00024BF00F8013B00F801CB48BF00F8012B17
:1003E000704770477047704710B5203AC0F00B80D7
:1003F000B1E81850203AA0E81850B1E81850A0E829
:100400001850BFF4F5AF5FEA027C24BFB1E8185082
:10041000A0E8185044BF18C918C0BDE810405FEAF2
:10042000827C24BF51F8043B40F8043B08BF70476E
:10043000D20728BF31F8023B48BF11F8012B28BF73
:1004400020F8023B48BF00F8012B7047754600F0CA
:1004500029F8AE4605006946534620F00700854658
:1004600018B020B5FFF7E0FEBDE820404FF00006D1
:100470004FF000074FF000084FF0000B21F007018C
:10048000AC46ACE8C009ACE8C009ACE8C009ACE8CF
:10049000C0098D4670470446AFF300802046FFF741
:1004A000AEFE000000487047DC24002001491820FF
:1004B000ABBEFEE72600020070470000017801F0A5
:1004C0000F012F4A11700178C1F3001151700178AA
:1004D000C1F34011917001788911D170417801F018
:1004E000070111714178C1F3C10151714178C1F324
:1004F0004011917141788911D171817801F00F011A
:100500001172817809115172C17801F0070191725D
:100510008179D1721146B0F807208A81B0F809209C
:10052000CA81B0F80B200A82417B154A917402F10E
:100530001301D0F80E200A60428A8A801339828A19
:10054000A1F81920C28AA1F81B20028BA1F81D2056
:10055000827ECA77B0F81B200A84427F81F822206D
:100560002331D0F81E200A60D0F822204A6090F88B
:1005700026200A722339B0F827208A8570470000A8
:10058000580A00202DE9F04107460C461646314630
:10059000204602F069FC10B90020BDE8F081A07D82
:1005A000132804D1E07D012801D1207E08B100206C
:1005B000F3E7257F2A4604F11D013846FFF7CCFEFC
:1005C0002846EAE72DE9F04104460F46164606F1B3
:1005D0001F00C5B2102214492046FFF7BDFE65700A
:1005E000D7F801002061B7F80500A0821320A0759C
:1005F0000120E075002020766076A076E0762677F0
:100600003246394604F11D00FFF7A6FEA81EC1B20E
:10061000204602F006FDA91E60541621681E2154D2
:100620002846BDE8F0810000CC00002010B5012074
:1006300001F0EEFB002001F0EBFB10BD08B5014618
:100640000020009003480090009808440090009813
:10065000008808BD006C004008B500220092044AE2
:100660000092009A02440092009A116008BD0000B6
:10067000006C004010B502F051FC02F001FD00F0EA
:1006800048FB10BD00BFFEE710B5002000F0FCFBEA
:100690000549C860FF2088700448486004488860A5
:1006A00000200870487010BD580C0020980C0020E5
:1006B000970D002010B5002000F0E6FB0549C8604A
:1006C000FF20887004484860044888600020087053
:1006D000487010BD680C0020960E0020950F002079
:1006E00010B5002000F0D0FB0549C860FF208870DD
:1006F000044848600448886000200870487010BDB5
:10070000780C0020941000209311002010B50020D8
:1007100000F0BAFB0549C860FF20887004484860B3
:100720000448886000200870487010BD880C0020C4
:10073000921200209113002021B1026842F00102C0
:10074000026004E002684FF6FE731A4002607047D0
:1007500001684FF6FE7211400160002101604160A6
:100760008160C1604B49884208D14A4908394968CB
:1007700041F00F01474A083A51608AE04549143177
:10078000884208D143490839496841F0F001414A9B
:10079000083A51607DE03F492831884208D13D49FF
:1007A0000839496841F470613A4A083A516070E08A
:1007B00038493C31884208D136490839496841F402
:1007C0007041344A083A516063E0324950318842FE
:1007D00008D130490839496841F470212D4A083A56
:1007E000516056E02B496431884208D129490839C3
:1007F000496841F47001274A083A516049E02549A7
:100800007831884208D123490839496841F070613C
:10081000204A083A51603CE01F49884206D1011F36
:10082000096841F00F01021F116032E01A491431CA
:10083000884208D11849091F096841F0F001164A99
:10084000121F116025E014492831884208D112494D
:10085000091F096841F470610F4A121F116018E006
:100860000D493C31884208D10B49091F096841F400
:100870007041094A121F11600BE00749503188424C
:1008800007D10549091F096841F47021024A121F66
:1008900011607047080002400804024001464868A1
:1008A00080B2704710B50022026847F6F0739A4391
:1008B0000C6A8B6823430C6923434C6923438C697E
:1008C0002343CC6923434C6A23438C6A23431A4352
:1008D0000260CB6843600B6883604B68C36010BDE7
:1008E000F0B58BB007460D4616461C46012108465A
:1008F00001F05EFA0121022001F05AFA0D4804804D
:100900003846FFF725FF00950196002002900394DA
:1009100004908020059000200690079008904FF4E6
:100920000050099000200A9069463846FFF7BAFF48
:100930000BB0F0BDF400002010B50446012C06D029
:10094000022C17D0032C2BD0042C52D13EE00021D6
:100950002948FFF7F1FE29480188274800F05AF896
:1009600001224021264802F0A8F901212248FFF780
:10097000E3FE3FE0002120481430FFF7DDFE1F4872
:1009800001881D48143000F045F8012240211D481F
:1009900002F093F9012118481430FFF7CDFE29E049
:1009A000002115482838FFF7C7FE1448018812486F
:1009B000283800F02FF801224021134802F07DF979
:1009C00001210D482838FFF7B7FE13E000210F483A
:1009D000FFF7B2FE094801880C4800F01BF801221D
:1009E00040210B4802F069F901210848FFF7A4FEF5
:1009F00000E000BF00BF10BD58000240F40000201E
:100A000000380140004400400048004030040240EB
:100A1000004C0040416070477047000010B500F086
:100A2000D9F9102000F01EF870B11021084800F02C
:100A300041F918B901200749087002E00020054972
:100A40000870102000F008F800F0D6F910BD000082
:100A5000000C0140F60000200149086070470000CA
:100A600014040140014600200022074B1B6803EAE2
:100A70000102054B14331B680B4013B10AB101206E
:100A800000E00020704700000004014030B504463B
:100A900004254FF4302000F06FF80546042D17D1DF
:100AA0000C48006940F002000A49086108464461A8
:100AB000006940F0400008614FF4302000F05CF81D
:100AC00005460448006941F6FD7108400149086186
:100AD000284630BD0020024004200B49C96801F0BF
:100AE000010109B101200EE00749C96801F00401C4
:100AF00009B1022007E00449C96801F0100109B1F9
:100B0000032000E0042070470020024003480069F1
:100B100040F0800001490861704700000020024059
:100B200070B504460D460426F00200F025F806468E
:100B3000042E11D10948006940F0010007490861FD
:100B40002580F00200F018F806460448006941F6D6
:100B5000FE71084001490861304670BD0020024026
:100B600002480349486003484860704723016745CD
:100B700000200240AB89EFCD00B502460423FFF709
:100B8000ABFF034603E0FFF7A7FF0346521E012B0E
:100B900001D1002AF7D102B90523184600BD2DE97D
:100BA000F0410246002500260020002300240027F3
:100BB00091F803C00CF00F0591F803C00CF0100C75
:100BC000BCF1000F03D091F802C04CEA050591F882
:100BD00000C0BCF1000F31D0146800202BE04FF0B2
:100BE000010C0CFA00F3B1F800C00CEA03069E42B7
:100BF00020D183004FF00F0C0CFA03F7BC4305FA29
:100C000003FC4CEA040491F803C0BCF1280F06D1A0
:100C10004FF0010C0CFA00FCC2F814C00AE091F885
:100C200003C0BCF1480F05D14FF0010C0CFA00FCD9
:100C3000C2F810C0401C0828D1D31460B1F800C01D
:100C4000BCF1FF0F34DD546800202EE000F1080CE9
:100C50004FF0010808FA0CF3B1F800C00CEA0306E3
:100C60009E4221D183004FF00F0C0CFA03F7BC43D6
:100C700005FA03FC4CEA040491F803C0BCF1280F08
:100C800005D100F1080C08FA0CF8C2F8148091F8AC
:100C900003C0BCF1480F07D100F1080C4FF0010868
:100CA00008FA0CF8C2F81080401C0828CED3546013
:100CB000BDE8F0810246002093680B400BB1012093
:100CC00000E000207047416170470161704700BF3C
:100CD000FEE70146CA1701EB92729210A1EB820265
:100CE00092B9642091FBF0F200FB121050B94FF45E
:100CF000C87091FBF0F200FB121008B90120704798
:100D00000020FCE70120FAE70020F8E700BFFEE73B
:100D1000704710B54FF4407000F03AF810BD000075
:100D200070B5002100230F22C47804B3154C246849
:100D300004F4E064C4F5E064210AC1F10403CA408C
:100D4000447804FA03F184781440214309010E4CDD
:100D50000678A155047804F01F050124AC400578FD
:100D60006D11AD0005F1E025C5F8004109E00478FA
:100D700004F01F050124AC40044D0678761145F8B7
:100D8000264070BD0CED00E000E400E080E100E0F2
:100D900002490143024A1160704700000000FA0551
:100DA0000CED00E010B500F013F800F07FFD00F04E
:100DB000A7FD00F0C7FD00F04FFD00F021FD00F0A1
:100DC0005BFE00F0FFFD00F025FE00F002F810BD14
:100DD0007047704706480078012808D10548007818
:100DE000FF2804D203480078401C0249087070476D
:100DF000360100202901002010B500241A4800788F
:100E0000012830D1FFF722FA04461848007820B1B3
:100E100016480078401E1549087014480078F8B943
:100E200013480078E0B900F089FE124812490978A9
:100E300050F82100114908600F48007810490978DE
:100E400088420DD00D480068806B401C0B49096832
:100E500088630C480068401C0A490860FFF715FACF
:100E60002046FFF7F7F910BD3601002029010020C8
:100E70002A010020741F00202C01002044010020C2
:100E80002B0100201001002070B5054600260F48F8
:100E9000007808B1002070BDFFF7D8F906460C486D
:100EA0000468006820B10A48006840680849086082
:100EB0003046FFF7CFF93CB1032020702581002098
:100EC0006060204600F08EFC2046E4E72901002007
:100ED000140100202DE9F04105460E461446002776
:100EE0002878032803D001202070BDE8F081314824
:100EF000007810B102202070F7E72F48007810B179
:100F00000D202070F1E7FFF7A1F90746288940B1CD
:100F10002889401E28813846FFF79CF90020207060
:100F2000E3E72648006890F8300040F001002349CC
:100F3000096881F8300000202049096881F83100F3
:100F40001E480068C662284600F00EFC3846FFF7CF
:100F500081F900F0B9FDFFF779F9074617480068F5
:100F600090F8310020B1012809D0022806D102E012
:100F7000002020700BE00E20207008E000BF294602
:100F80000E48006800F0DAFB0A20207000BF00BFA6
:100F900000200A49096881F830000849096881F889
:100FA000310006490968C8613846FFF753F900BFA8
:100FB0009BE70000290100202A0100203C010020BD
:100FC00070B5044600252078032801D0012070BDAB
:100FD000FFF73CF90546A07A60B1002301221946CB
:100FE000204600F069FB2846FFF734F900F06CFD5D
:100FF0000020ECE720894FF6FF71884207D2208954
:10100000401C20812846FFF725F90020DFE728460D
:10101000FFF720F93320DAE710B50020FFF734FF9F
:101020000F4908600020FFF72FFF0E4908600020DD
:10103000FFF72AFF0C4908600020FFF725FF0B4946
:1010400008600020FFF720FF094908600020FFF733
:101050001BFF08490860084801F052FA10BD000063
:1010600004000020080000200C00002010000020D8
:1010700014000020180000204C0B002010B50B4875
:10108000007890B900F05AFD0948007809490870C5
:1010900009480749097850F82100084908600846BE
:1010A000006807490860FFF7D8F810BD3601002036
:1010B0002C0100202B010020741F0020440100207F
:1010C0003C01002010B50024022000F0F5F9FFF7E4
:1010D000BDF8044600200B4908602046FFF7BAF827
:1010E000642000F0E9F9FFF7B1F80446054800680C
:1010F000054908600120054908702046FFF7AAF855
:1011000010BD00003801002020010020280100202F
:10111000704700002DE9FE4F06460F4690461C46DC
:101120004FF00009FFF792F881461F48007828B178
:101130004846FFF78FF83C20BDE8FE8F1B4850F86B
:10114000240060BB0120194941F824004846FFF7FC
:1011500081F8002342463946304600F009F98246BC
:10116000002000900190034602465146029020461E
:1011700000F0FAFC054635B90D48007801280CD17D
:1011800000F0A2FC09E0FFF761F881460020074962
:1011900041F824004846FFF75DF82846CCE748466A
:1011A000FFF758F82820C7E729010020741F002006
:1011B000360100202DE9F04F85B081468A469346DE
:1011C0001C46DDE90F78129D00200390FFF73EF8E2
:1011D00003902348007830B10398FFF73BF83C2098
:1011E00005B0BDE8F08F1F4850F8240088BB0120EF
:1011F0001C4941F824000398FFF72CF82A46414681
:10120000384600F0C1FD2B465A465146484600F08C
:10121000AFF804901198CDE9008002953A46204637
:101220000E9B049900F0A0FC064636B90E480078E3
:1012300001280CD100F048FC09E0FFF707F8039003
:101240000020084941F824000398FFF703F83046CE
:10125000C6E7FFE70398FEF7FDFF2820C0E7000080
:1012600029010020741F00203601002070477047BC
:101270002DE9F04106460F4614464FF00008154888
:10128000007818B112202070BDE8F081FEF7DEFF73
:101290008046FF2E03D11048006890F832600F4856
:1012A00050F826502DB94046FEF7D4FF4320207059
:1012B000EAE7012D05D14046FEF7CCFF4320207020
:1012C000E2E7EF644046FEF7C5FF0020207000BF54
:1012D000DAE70000290100203C010020741F0020F3
:1012E000704700002DE9F04707460D464FF0000A11
:1012F000002028606860FEF7A9FF8246FF2F03D117
:101300001948006890F83270184850F827402CB9F6
:101310005046FEF79FFF4320BDE8F087012C04D123
:101320005046FEF797FF4320F6E7207C00F00100CF
:1013300020B95046FEF78EFF4520EDE70026D4F891
:101340000C90D4F808805046FEF784FF00E0761C2D
:1013500058F8041B0029FAD0B0002860A9EB060059
:10136000800068600020D7E73C010020741F002047
:1013700070B5044610464FF080750560051F28467D
:101380002C606FF00106051F28462E604FF01236C4
:10139000051F28462E604FF00336051F28462E6095
:1013A0004FF00236051F28462E607610051F28468E
:1013B0002E60051F284629604FF01136051F28466C
:1013C0002E604FF01036051F28462E604FF009366C
:1013D000051F28462E604FF00836051F28462E6050
:1013E0004FF00736051F28462E604FF00636051FC2
:1013F00028462E604FF00536051F28462E604FF018
:101400000436051F28462E6070BD00002DE9F0410E
:1014100005464FF00008FEF719FF8046FF2D05D165
:101420002048006890F83250012608E01D48006806
:1014300090F83200A84201D1012600E000261A48A7
:1014400050F825402CB94046FEF704FF4820BDE87F
:10145000F081012C04D14046FEF7FCFE4320F6E764
:1014600094F834701148C05D94F8351088430F49E2
:10147000C8550846C05D30B994F836100C4800785D
:1014800088430B49087094F8300040F0080084F855
:1014900030004046FEF7DEFE012E01D100F014FBC5
:1014A0000020D4E73C010020741F00202E01002002
:1014B0002D0100207047000070B505460026174832
:1014C000007800B170BD1648007800B1FAE71DB38E
:1014D000FEF7BCFE06461348006890F834401248F8
:1014E000005D1049096891F8351088430E49085588
:1014F0000846005D40B90B48006890F836100B486C
:10150000007888430949087006480068C56230467B
:10151000FEF7A0FE00F0D8FA00BFD3E729010020B3
:101520002A0100203C0100202E0100202D01002076
:101530002DE9F04105460E4617461C461248007834
:1015400010B15520BDE8F0811048007808B1322074
:10155000F8E74FF47A7060434FF47A71B0FBF1F121
:101560004FF461606843C6EB061200EB820038441A
:1015700000EB4002C2EBC01001EBC0084046FFF791
:101580009BFF0020DEE70000290100202A01002047
:1015900070B50025FEF75AFE054603480468284644
:1015A000FEF758FE204670BD5401002070B5044679
:1015B0000025FEF74BFE0546024804602846FEF76C
:1015C00049FE70BD5401002070B5002600F072F88D
:1015D000FEF73CFE064631480068401C2F49086073
:1015E0003046FEF737FE2E480078012853D12D48AB
:1015F000007820B1012804D0022809D103E0012598
:101600000BE0002509E0012501202649087004E0CF
:10161000012500202349087000BF00BF05B970BD37
:101620002148046833E0FEF711FE0646E06A50B335
:10163000E06A401EE062E06A28BB94F8300000F0E7
:10164000370040B114F8300F00F0C80020700120BE
:101650006070303C02E0002084F8310094F83000E3
:1016600000F0080078B93434A078104909780843AC
:101670000E49087020780E49085C6178084314F818
:1016800034190B4A505464693046FEF7E3FD94F870
:1016900032003F28C7D100BFC1E70000540100203D
:1016A000360100204C010020480100202D010020BF
:1016B0002E010020704700002DE9F04F05460F462F
:1016C00090469946A87A19490E5C05F10B00805D99
:1016D00011F800B00BEBC60000F0FF0A144850F8F8
:1016E0002A4000202034E0602760207C20EA0800A7
:1016F000207484F81190207C203C00F0080068B928
:1017000094F836000B49097808430A4908700A48DA
:10171000805D94F8351008430749885529462046CE
:1017200000F00CF85046BDE8F08F0000043A0008C5
:10173000741F00202D0100202E01002010B590F80C
:10174000342001F10B039B5C90F83540A34301F179
:101750000B04A35423469B5C23B98B7A90F8364044
:10176000A3438B7210BD000010B51B4A1268D061F4
:10177000194A126892F8343000F10B02D25C164B11
:101780001B6893F835301A43134B1B6893F83440A9
:1017900000F10B031A55827A0F4B1B6893F8363011
:1017A0001A4382720C4A126892F834100B4A525C47
:1017B000094B1B6893F835309A43084B5A541A4624
:1017C000525C42B9044A126892F83630044A1278E0
:1017D0009A43034B1A7010BD3C0100202E010020DB
:1017E0002D010020014600228A72002005E000231E
:1017F00001F10B021354421CD0B20828F7D37047F2
:101800002DE9F0415021114800F02CF900250DE0A0
:10181000681C86B20D4800EB051400EB061700208B
:10182000207067600AA0E060681C85B2042DEFD3C9
:10183000064800EB051400202070606004A0E06002
:10184000024804490860BDE8F0810000241B002024
:101850003F0000001801002070B54FF420711148BE
:1018600000F000F900230FE0581C85B203EB830061
:101870000C4901EB800405EB850001EB800600209C
:1018800020706660581C83B21F2BEDD303EB8300DE
:10189000044901EB80040020207060600846024982
:1018A000086070BDA41800201401002000200A491F
:1018B00008600A4908700A4908700A4908700A490C
:1018C00008700A4908600A4908600A4908600A491C
:1018D00008600A490870704754010020290100205F
:1018E0002A010020370100203601002010010020CD
:1018F00038010020240100202001002028010020C0
:1019000000210A4A1170002004E00021084A115405
:10191000411CC8B20828F8D30021064A1170064AB3
:101920001170064A1160064A116070472D010020AF
:101930002E0100202B0100202C010020440100205A
:101940003C01002070B54FF47C71194800F08AF812
:101950004FF48071174800F085F8002413E0601CF4
:10196000C5B2C4EBC40000EB4000114901EB800399
:10197000C5EBC50000EB400001EB80065E610EA0E8
:10198000D864601CC4B20B2CE9D3C4EBC40000EBD8
:101990004000074901EB80030020586106A0D8648D
:1019A00000200649086002480549086070BD000033
:1019B00074200020741F00203F0000004801002018
:1019C0004001002000B587B00320002180220A4B8F
:1019D000CDE90132CDE903104FF6FF703F23074AEE
:1019E00000900748FFF7E6FB06AA06A13F20FFF795
:1019F0003FFC07B000BD0000741D0020701F0020D8
:101A00009D1C000875432F4F532D49492049646C94
:101A10006500000000B587B00320002180220A4B3A
:101A2000CDE90132CDE903104FF6FE703E23074A9F
:101A300000900748FFF7BEFB06AA06A13E20FFF76D
:101A400017FC07B000BD0000741B0020701D0020B3
:101A5000C51C000875432F4F532D4949205374610D
:101A60007400000004E0002200F8012B4A1E91B22D
:101A70000029F8D1704700002DE9F0417821104885
:101A8000FFF7F0FF00240DE0601C86B204EB440079
:101A90000B4901EBC00506EB460001EBC0072F60C8
:101AA000601C84B2042CEFD304EB4400044901EB26
:101AB000C00500202860084602490860BDE8F081A2
:101AC000642400205001002010B50024FEF7BEFB66
:101AD000044613480078F8B912480078E0B900F0DD
:101AE0002DF811481149097850F821001049086073
:101AF0000E4800780F49097888420DD00C480068DC
:101B0000806B401C0A49096888630B480068401CC8
:101B100009490860FEF7B2FB2046FEF79BFB10BDAB
:101B2000290100202A010020741F00202C01002020
:101B3000440100202B010020100100200649074A23
:101B40001278885C0649095C034A515C01EBC001CC
:101B5000044A117070470000043A00082D0100206B
:101B60002E0100202C0100202DE9F84F05460F46DC
:101B700090469946DDE90AAB00200090FEF766FB2F
:101B800000903F480468002C74D0183454F8040CBA
:101B90003B4908600098FEF75DFB44F8187CA57689
:101BA000002020766076606144F814BC44F80CACE8
:101BB00044F8108C0C9824F8080C24F8069C00209B
:101BC000E077E810207705F00700E076217F01201C
:101BD0008840A077E17E0120884060770020606027
:101BE000E060A0602062A0626062E062206325A0E5
:101BF0006063183C002606E0002104F1500040F824
:101C00002610701CC6B2002EF6D02046FFF780FAD0
:101C10002046FFF72BFBFEF719FB00901A4840F80F
:101C200025401A48006860610020A06117480068DC
:101C300010B1164800688461144804603434A078F8
:101C40001349097808431249087020781149085C43
:101C50006178084314F834190E4A50540E4800783D
:101C6000401C0D4908700098FEF7F4FA0020BDE80A
:101C7000F88FFFE70098FEF7EDFA4220F7E7000043
:101C8000400100203F000000741F00204801002098
:101C90002D0100202E01002037010020002400BF6C
:101CA00000BFFEF7D3FA044605480068401C04490B
:101CB00008602046FEF7CEFAFFF7D9FAF1E70000F8
:101CC00038010020002400BF02E0C820FFF7F4FB29
:101CD000194800780028F8D0184800686421B0FB43
:101CE000F1F0164908600846006828B90020144938
:101CF0000870FF20FFF78AFB00BFFEF7A7FA044633
:101D0000104800681049086000200E49086020460D
:101D1000FEF7A0FA0C48006808490968B0FBF1F02A
:101D2000C0F1640006490870FFF7DAFA00F00EF817
:101D30006420FFF7C1FBE0E728010020200100201C
:101D40001C01002038010020240100207CB5002562
:101D500014E069462846FFF7C5FA064666B9094801
:101D600050F8254044B1012C06D0D4E9020100EB23
:101D7000810060640198A064681CC5B23F2DE8D959
:101D80007CBD0000741F002002F0010343B102F08B
:101D900002032BB102E0491E002308C00029FAD13A
:101DA00070470000014908627047000000000E42C1
:101DB00029B1064A52690243044B5A6104E0034ABE
:101DC00052698243014B5A61704700000010024083
:101DD00029B1064AD2690243044BDA6104E0034A9E
:101DE000D2698243014BDA61704700000010024063
:101DF00029B1064A92690243044B9A6104E0034AFE
:101E000092698243014B9A617047000000100240C2
:101E100001490860704700004004424230B500218B
:101E20000022002400232D4D6D6805F00C0121B126
:101E3000042905D0082923D105E0294D056022E0B9
:101E4000274D05601FE0254D6D6805F47012234D88
:101E50006D6805F48034022505EB92421CB9214DD2
:101E6000554305600BE01D4D6D6805F400351DB14F
:101E70001C4D5543056002E0194D5543056002E0D5
:101E8000174D056000BF00BF144D6D6805F0F001EF
:101E90000909154D6B5C0568DD4045600F4D6D68A7
:101EA00005F4E061090A104D6B5C4568DD40856012
:101EB0000A4D6D6805F46051C90A0B4D6B5C4568AD
:101EC000DD40C560054D6D6805F44041890B074D47
:101ED0006B5CC568B5FBF3F5056130BD00100240D1
:101EE00000127A0000093D00FC0000200C010020D7
:101EF00010B501460022002300204A11012A02D118
:101F0000094C236806E0022A02D1074C236A01E04B
:101F1000054C636A01F01F02012494401C400CB17F
:101F2000012000E0002010BD0010024001490860BF
:101F30007047000080044242014908607047000079
:101F40003C0442420249096A0143014A1162704756
:101F500000100240024909888143014A11807047FC
:101F6000042800407CB500240420FEF767FB45F2FE
:101F7000510188424AD001214FF0C050FFF728FF9D
:101F80000120FFF70FFFFEF751FB0120FFF7CEFF07
:101F900004E0601CC4B20A2000F0EEFF6120FFF7ED
:101FA000A7FF08B9FA2CF4DBFA2C01DB01207CBD79
:101FB0004FF40070FFF7C6FF0120FFF7BDFF00F0F0
:101FC000E7F900F0EFF90121084600F039F900F0D7
:101FD000DFF900F03BF849F63F4000F0C9F900F0A6
:101FE000D7F91948807818494978174DCDE900107C
:101FF0002B78EA79A979A88800F048F900F030F840
:1020000045F250010420FEF727FB16E000F01EF811
:102010000D4880780C4949780B4DCDE900102B789C
:10202000EA79A979A88800F031F900F019F80121BE
:10203000084600F005F900F0ABF900F015F900F0E2
:1020400019F80020B3E700009A1400200348008824
:1020500040F010000149088070470000042800404B
:10206000034800884FF6EF71084001490880704727
:102070000428004070B500260024002500F07AF8FE
:1020800006463848B6FBF0F437480088A0423CD0FA
:1020900035490C8040F2B27510E02846FEF719FE73
:1020A00040B1B4F5B77F02D3A4F5B77404E0681C5F
:1020B00085B206E0A4F26D14681C85B2B4F5B67F53
:1020C000EBD800BF29488580002516E0274988887D
:1020D000FEF7FFFD30B1012D04D11D2C01D31D3CB5
:1020E00009E00CE02248405DA04203D82048405D52
:1020F000241A00E003E0681C85B21C2CE6D200BF65
:10210000681C1A498871601CC8711648B6FBF0F14A
:1021100000FB11644FF46160B4FBF0F013490870E8
:102120004FF46160B4FBF0F100FB11403C21B0FBC7
:10213000F1F00E4948704FF46160B4FBF0F100FB20
:1021400011403C21B0FBF1F201FB120007498870FD
:102150000B46DA799979988800F028F803490872D3
:10216000002070BD80510100FA0000209014002072
:10217000F8390008002103480188001F008841EA5F
:10218000004070471C28004001460020064A128883
:102190000A40D0B2044A121F12880A4012B108B194
:1021A000012000E00020704704280040F0B50346FD
:1021B0000C461546642093FBF0F0C6B2642093FBF6
:1021C000F0F700FB1730C1B2132E02DD01F16400FD
:1021D000C1B20846CF1701EB977701EBA707BAB258
:1021E000072092FBF0F700FB172082B25719601E00
:1021F000DFF82CC01CF80000384482B2CF1701EB86
:102200009777BF10A1EB87071FB9032C01DA501E87
:1022100082B2072092FBF0F700FB1720C0B2F0BD9E
:10222000EC39000810B50120FFF7AEFF08B1FFF749
:1022300021FF0120FFF78EFE00F0AAF810BD00007C
:1022400029B1064A12880243044B1A8004E0034A6B
:1022500012888243014B1A8070470000002800401A
:1022600010B5FFF77FFE10BD08B503208DF8000004
:1022700006208DF8010000208DF8020001208DF865
:1022800003006846FEF74CFD08BD00002DE9F05F35
:1022900006460F4690469946DDE90AAB002440F217
:1022A000B270864203DB40F63300864202DD012035
:1022B000BDE8F09F40F2B2750AE02846FEF709FD3E
:1022C00010B12048044401E01F480444681C85B252
:1022D000B542F2DB781EC7B2002510E01B48405D16
:1022E00040F2A321484304EBC0143046FEF7F1FC52
:1022F00018B1012D01D116480444681C85B2BD42B5
:10230000ECDBA8F1010040F2A321484304EBC01428
:10231000C9EB4910C0EB092004EB0014CAEB0A100A
:1023200004EB80045C4401214FF0C050FFF750FDE6
:102330000120FFF737FD204600F00CF800F028F8E8
:102340000020B5E70085E2018033E101F83900089B
:102350008051010000B50246FFF778FE100C0349DA
:102360000880091D0A80FFF77BFE00BD1828004089
:1023700000B50246FFF76AFEC2F303400349088036
:10238000091D0A80FFF76CFE00BD00000828004010
:1023900000BF0348008800F020000028F9D07047F3
:1023A00004280040074800884FF6F77108400549A7
:1023B000088000BF0348008800F008000028F9D01A
:1023C000704700000428004030B503460C4615460F
:1023D000002207E0184600F008F824F812009B1CC1
:1023E000501C82B2AA42F5DB30BD01460888704716
:1023F0002DE9F05F80468A461746B8F1006F02D398
:102400003348804501D3BDE8F09FFEF7A9FBA8F152
:10241000006B4FEA9B25CBF34809C9F50074A7422E
:1024200000DC3C464DE04FF0006101EB85208A1452
:102430002849FFF7C9FF00260BE009EB06002549F4
:1024400031F810004FF6FF71884200D003E0701C95
:1024500086B2A642F1DB00BFA6421BDA4FF0006154
:1024600001EB8520FEF712FB002608E03AF8160083
:1024700006EB0901174A22F81100701C86B2A64229
:10248000F4DB4FF0006101EB85208A14114900F064
:1024900023F804E022465146404600F01DF8A742CA
:1024A00000D10FE06D1C4FF000090AEB440AA04474
:1024B000381B87B2B7F5007F02DD4FF4007400E0EF
:1024C0003C46B0E700BFFEF721FB00BF9BE70000E2
:1024D00000000208A41400202DE9F04105460E4634
:1024E0001746002407E036F814102846FEF718FBBC
:1024F000AD1C601C84B2BC42F5DBBDE8F0817047C6
:1025000010B50446034860600020FEF7BDFCA060E3
:1025100010BD0000580B002010B500F001F810BDF0
:102520000CB50020019000903348006840F48030E2
:102530003149086000BF3048006800F40030009066
:102540000198401C0190009818B90198B0F5A06F4F
:10255000F1D12948006800F4003010B1012000904A
:1025600001E0002000900098012843D12348006832
:1025700040F01000214908600846006820F0030080
:1025800008600846006840F0020008601A48406889
:10259000194948600846406848600846406840F469
:1025A000806048600846406820F47C104860084617
:1025B000406840F4E81048600846006840F08070C9
:1025C000086000BF0C48006800F000700028F9D0D7
:1025D0000948406820F00300074948600846406801
:1025E00040F00200486000BF0348406800F00C0063
:1025F0000828F9D10CBD0000001002400020024064
:10260000042808D14FF0E021096941F004014FF09E
:10261000E022116107E04FF0E021096921F0040197
:102620004FF0E0221161704710B5FEF7D3FBFEF7C3
:10263000CBFFFEF7E1FB10BD10B51348006840F07A
:1026400001001149086008464068104908400E49D9
:102650004860084600680E4908400B490860084673
:10266000006820F4802008600846406820F4FE00DE
:1026700048604FF41F008860FFF74EFF4FF0006086
:102680000449086010BD0000001002400000FFF87F
:10269000FFFFF6FE08ED00E00025002400230122E4
:1026A00019461846FEF744FFFFF7DAFD00F0DCFCA0
:1026B00000F0ACFC0020FEF779FF01209349087080
:1026C00022E10123002211461046FEF731FF904817
:1026D0000068012802D1681CC5B200E000258C48C2
:1026E00000688A480078072871D2DFE800F070049B
:1026F0001EF3FAEDEC0086480068A8B94FF480712B
:102700008448FEF7E0FA3223002211461046FEF715
:102710000FFF4FF480717F48FEF7D7FA02207B4904
:10272000087000207C490870EDE07B48007806289E
:1027300078D2DFE800F0036D42CC98C40A2000F0A4
:10274000C1FE00B92CE0754A1178506800F0C4FC55
:1027500000B125E07248C079032805D1704800898E
:1027600040F20121884200D01AE06D4890F88A00BA
:1027700028B16B4890F88A100A3000F0B7FE68481C
:1027800090F88B0018B905206349087007E0644889
:1027900090F88B00012802D102205F49087000BF29
:1027A000FEF7F6FEB0F57A7F06D35E48417800F07A
:1027B0009DFE0020FEF7FAFE8AE04CB95A484178A7
:1027C00000F094FE01240020FEF7F0FE06E099E000
:1027D000FEF7DEFEB0F5FA7F00D900240A2000F0F3
:1027E00071FE00B974E04D4A1178506800F074FC35
:1027F00000B16DE04A48C07920B949480089B0F578
:10280000807F00D064E001204349087000245FE02D
:102810004CB94648417800F069FE01240020FEF7DB
:10282000C5FE06E053E0FEF7B3FEB0F5FA7F00D92F
:1028300000240A2000F046FE00B949E0374A11782A
:10284000506800F049FC00B142E03548C07920B939
:1028500033480089B0F5807F00D039E004202E494C
:102860000870002434E044B92E48417800F03EFE60
:1028700001240020FEF79AFE05E0FEF789FEB0F580
:10288000FA7F00D900240A2000F01CFE00B91FE0E6
:10289000224A1178506800F01FFC00B118E020486F
:1028A000C079032805D11E48008940F201218842E1
:1028B00000D00DE0052018490870002408E003202E
:1028C0001249087004E019E017E00AE002E000BFD6
:1028D00000BF18E00A2000F0F5FD0A2000F0C6FD58
:1028E00011E00A2000F0EEFD30B10C4B1A78596867
:1028F0000F4B9868FDF746FE05E004E00A2000F063
:102900008DFD00E000BF00BFDBE600001C000020E2
:10291000240122420008014000000020880C002011
:10292000B60A00206A000020880000205B0000201A
:10293000680C002008B50020009020E00123002250
:1029400011461046FEF7F4FD0D496A46C8680A2193
:10295000FEF7C0FA9DF8000018B90A480068FEF7B3
:102960002FFB6A460A2108480068FEF7B3FA9DF873
:10297000000020B9024A5178906800F0CBFDDDE7F5
:10298000580C0020040000200800002008B500209A
:10299000009020E00123002211461046FEF7C8FDFA
:1029A0000D496A46C8680A21FEF794FA9DF80000AE
:1029B00018B90A480068FEF703FB6A460A2108486E
:1029C0000068FEF787FA9DF8000020B9024A5178A6
:1029D000906800F0CFFDDDE7880C00201400002097
:1029E0001800002008B5002000903BE001230022E1
:1029F00011461046FEF79CFD1B496A46C8680A212D
:102A0000FEF768FA9DF8000018B918480068FEF74C
:102A1000D7FA154A1178506800F037FAA0B1124A77
:102A20001178506800F056FA70B10F4A117850686A
:102A300000F03CFA40B10C48027841680C4800F0C4
:102A4000EDFD0B4800F059FA6A460A210948006872
:102A5000FEF740FA9DF8000020B9034A51789068CB
:102A600000F070FDC2E70000680C00200C000020A0
:102A70004C0B00201000002010B50024FEF7AAF92E
:102A800040F22441184800F02EF9012828D11648B8
:102A90000088C4B21448001D0088C4B20021134845
:102AA000FDF74AFE002240210F4800F006F90F48CA
:102AB000FDF7F4FEC0F1FF00C4B2FF200B49091D71
:102AC00008600B48047001224021074800F0F5F827
:102AD00001210648FDF730FE0549C868FEF770FA87
:102AE000FEF78AF910BD0000004C0040300402409F
:102AF000880C002010B50024FEF76CF940F2244148
:102B0000184800F0F0F8012828D116480088C4B20F
:102B10001448001D0088C4B200211348FDF70CFEC4
:102B2000002240210F4800F0C8F80F48FDF7B6FE1C
:102B3000C0F1FF00C4B2FF200B495839C8650B48EB
:102B4000047001224021074800F0B7F8012106482F
:102B5000FDF7F2FD0549C868FEF732FAFEF74CF9B9
:102B600010BD00000038014058000240580C002001
:102B700010B50024FEF72EF940F224411C4800F065
:102B8000B2F8012831D11A480088C4B21848001D93
:102B90000088C4B240F22441164800F073F80021C6
:102BA0001548FDF7C9FD00224021114800F085F8C5
:102BB0001148FDF773FEC0F1FF00C4B200200F49B9
:102BC00049680855FF200C496C3908670B480470A8
:102BD00001224021064800F070F801210648FDF767
:102BE000ABFD0649C868FEF7EBF9FEF705F910BD25
:102BF00000440040004800406C000240680C002087
:102C000010B50024FEF7E6F840F224411A4800F01F
:102C10006AF801282CD118480088C4B21648001D53
:102C20000088C4B200211548FDF786FD002240212E
:102C3000114800F042F81148FDF730FEC0F1FF00E6
:102C4000C4B200200E4949680855FF200B493039AD
:102C500048630B48047001224021074800F02DF81A
:102C600001210648FDF768FD0549C868FEF7A8F987
:102C7000FEF7C2F810BD00000048004030000240DE
:102C8000780C002010B50022002340F66A14A142FF
:102C900000D100BF0A1201249440A3B2DC43048097
:102CA00010BD21B1828942F40052828104E0828900
:102CB0004DF6FF731A40828170471AB1838A0B4325
:102CC000838202E0838A8B4383827047024600201E
:102CD000B1F5007F00D100BF13880B400BB101207C
:102CE00000E00020704770B5024600240023002554
:102CF000002040F66A16B14200D100BFC1F3421570
:102D000001F01F03012606FA03F3012D02D1968973
:102D1000334006E0022D02D1168A334001E0968A44
:102D200033400C12012606FA04F41688344013B11D
:102D30000CB1012000E0002070BDF0B50346002476
:102D400000260025002040F66A17B94200D100BFD6
:102D50001846C1F3421401F01F06012707FA06F5D1
:102D6000012C01D10C3004E0022C01D1103000E024
:102D700014301AB107682F43076002E00768AF43B9
:102D80000760F0BD2DE9F04786B005460E460024E9
:102D9000A24600BFA1460027B08900B100BF2F4660
:102DA0002C8A4CF6FF700440F08804432C82AC89D6
:102DB0004EF6F3100440B088318908437189084306
:102DC0000443AC81AC8A4FF6FF400440B089044311
:102DD000AC8201A8FFF722F81F48874202D1DDF834
:102DE00010A001E0DDF80CA0A88900F4004040B17B
:102DF0000AEBCA0000EB0A1031684900B0FBF1F899
:102E000007E00AEBCA0000EB0A1031688900B0FB4A
:102E1000F1F86420B8FBF0F004012009642101FB03
:102E20001089A88900F4004040B1322000EBC900AD
:102E3000B0FBF1F000F00700044308E0322000EBA3
:102E400009106421B0FBF1F000F00F0004432C8165
:102E500006B0BDE8F087000000380140C1F3080269
:102E60008280704700BFFEE770B504460D46681FBC
:102E7000C1B2E01C00F0D5F80646A81E205CB042A6
:102E800001D1012070BD0020FCE70246072901DACC
:102E9000002070471078FB2801D00020F9E7507817
:102EA000FB2801D00020F4E70120F2E710B502462C
:102EB0000023002404E0D05C2044C4B2581CC3B2F8
:102EC000C81E9842F7DC105CA04201D1012010BD61
:102ED0000020FCE70246072901DA00207047881E1F
:102EE000105CFE2801D00020F8E7481E105CFE2888
:102EF00001D00020F2E70120F0E70178012906D097
:102F0000022905D0032904D0042904D102E003E0FA
:102F100002E001E000E000BF00BF704710B56FF0B5
:102F20000400FFF76DFB104800681049B0FBF1F09A
:102F30000F4908700C4800680C49B0FBF1F44FF4DD
:102F40007A70444301200B4908804FF0E02000696B
:102F500040F002004FF0E02108610846446100693A
:102F600040F00100086110BDDC00002000127A0072
:102F7000F0000020F200002070B504460E480078F2
:102F8000012811D10D480088844206DB0B480088D7
:102F900094FBF0F52846FEF78FFA0848008894FB6A
:102FA000F0F100FB114084B24FF47A7104FB01F0A0
:102FB00000F006F870BD000036010020F20000208D
:102FC00070B5034600224FF0E02675690E4E367844
:102FD00003FB06F400BF4FF0E026B16910E04FF0AC
:102FE000E026B06988420BD0884202D20E1A3244E1
:102FF00002E02E1A0E4432440146A24200D300E001
:10300000EDE700BF70BD0000F000002070470146F2
:10301000887A70470146087BCA7A00EB022080B2AA
:10302000704710B502460B460021002004E0545CB6
:103030000444E0B24C1CE1B29942F8DBC0B210BDCE
:1030400010B5FDF717FBFDF7ADFE0A23044A00217A
:103050000448FEF75FF8FEF711F8002010BD0000ED
:1030600054020020A535000810B517220249034874
:10307000FFF7AAF910BD0000870A00200000010830
:1030800008B501211420FEF7B3FE4FF40070ADF82F
:10309000000004208DF8030003208DF8020069462B
:1030A0000B48FDF77CFD4FF48070ADF80000102058
:1030B0008DF8030003208DF8020069460548FDF7EE
:1030C0006EFD4FF480710348FDF7FDFD08BD000063
:1030D000001001400008014070B504460D462078FC
:1030E000682874D1681E205C1628FAD1294620462B
:1030F000FFF7BAFE08B9002070BD2046FFF787FF32
:10310000C149C8712046FFF785FFBF490881E078B3
:103110000870481C6168016021898180401EC07967
:10312000162870D2DFE800F00B253740A6B8D46F20
:103130006F6F6F6F6F6F6F6FF6EDECEBEAE9B24890
:103140000089B0F5807F03D0B0F5007F0ED106E096
:103150000020AD4981F88B0081F88A0007E000204B
:10316000A94981F88B0081F88A0000E000BF00BF08
:1031700047E1A5480089B0F5807F06D0B0F5007F13
:1031800004D0B0F5806F03D101E002E001E000E07F
:1031900000BF00BF35E19C480089B0F5807F00D1B9
:1031A00000E000BF00BF2CE19748008940F20142D7
:1031B000811A90425AD012DCB0F5007F25D007DC8E
:1031C000B0F5807F20D0A0F20110A8BB24E019E167
:1031D000A0F2012008B3A0F2FF1068BB16E041F690
:1031E000FF32881A914214D006DCA1F2FF3171B18E
:1031F000B1F5006F3BD10BE0B0F5005F0AD0B0F540
:10320000C04F34D107E0FBE032E031E030E02FE0A6
:103210002EE02DE02CE02BE02AE004F10D00FDF77C
:103220004DF92E2279497A48FDF76AF828B900202D
:10323000754981F88B0009E019E00120724981F895
:103240008B00172272497348FFF7D2F86E48007856
:10325000C1280AD115206C4981F88A00084690F8E7
:103260008A206D490A30FDF777F801E000E000BFE1
:1032700000BFC6E064480089B0F5807F06D0B0F595
:10328000007F04D0B0F5806F03D101E002E001E0DF
:1032900000E000BF00BFB4E05B480089B0F5806F7C
:1032A00010D006DCB0F5807F0AD0B0F5007F0CD1DD
:1032B00007E0B0F5006F06D0B0F5805F05D103E000
:1032C00004E003E002E001E000E000BF00BF98E09E
:1032D0004D480089B0F5806F16D006DCB0F5807FD0
:1032E0000AD0B0F5007F12D10DE0B0F5006F0CD020
:1032F000B0F5805F0BD109E00AE078E065E05BE0C3
:1033000048E027E006E003E002E001E000E000BF63
:1033100000BF76E03C480089B0F5006F14D009DCAE
:10332000B0F5807F0DD0B0F5007F0BD0B0F5806F89
:103330000DD108E0B0F5805F07D0B0F5005F06D191
:1033400004E005E004E003E002E001E000E000BF8B
:1033500000BF56E02C480089B0F5006F14D009DC9E
:10336000B0F5807F0DD0B0F5007F0BD0B0F5806F49
:103370000DD108E0B0F5805F07D0B0F5005F06D151
:1033800004E005E004E003E002E001E000E000BF4B
:1033900000BF36E01C480089B0F5807F06D0B0F54C
:1033A000007F04D0B0F5806F03D101E002E001E0BE
:1033B00000E000BF00BF24E013480089B0F5807F23
:1033C00000D100E000BF00BF1BE00F480089B0F54E
:1033D000807F06D0B0F5007F04D0B0F5806F03D1B8
:1033E00001E002E001E000E000BF00BF09E00648A4
:1033F0000089B0F5807F00D100E000BF00BF00E091
:1034000000BF00BF002077E6B60A0020870A002030
:10341000580A0020000001082800002038B50446A2
:10342000002000906A4621460C480068FDF752FDD6
:103430009DF8000080B90A4B1A785968094B9868C2
:10344000FCF78AFF0648007806494870064800687D
:10345000FDF7B6FD012038BD0020FCE70400002088
:10346000580C0020880C00201800002038B50446B5
:10347000002000906A4621460D480068FDF72AFDAD
:103480009DF8000088B90B4B1A7859680A4B986868
:10349000FDF798F80849487008480068FDF790FD66
:1034A000042007490870012038BD0020FCE7000017
:1034B0000C000020680C0020880C00201800002060
:1034C0001C00002038B50446002000906A462146C2
:1034D00005480068FDF7FEFC9DF8000008B90120D2
:1034E00038BD0020FCE700001400002070B5054640
:1034F0000C460649224688682946FCF72DFF0348FA
:10350000447003480068FDF75BFD70BD880C002027
:103510001800002070B505460E4600240CE0295D19
:103520000748FFF79BFC00BF40210548FFF7CEFB93
:103530000028F9D0601CC4B2B442F0DB70BD0000BA
:103540000038014070B505460E4600240CE0295DA8
:103550000748FFF783FC00BF40210548FFF7B6FB93
:103560000028F9D0601CC4B2B442F0DB70BD00008A
:103570000044004070B505460E4600240CE0295D6D
:103580000748FFF76BFC00BF40210548FFF79EFB93
:103590000028F9D0601CC4B2B442F0DB70BD00005A
:1035A000004C004070B50446002500BFFDF78AFDC1
:1035B000FCF74CFE05460123104A00211048FDF798
:1035C000A9FD02230F4A00210F48FDF7A3FD0323A5
:1035D0000E4A00210E48FDF79DFD04230D4A0021EF
:1035E0000D48FDF797FD00F095F9FDF715FD0A2050
:1035F000FDF70CFF2846FCF72DFE70BD540400209B
:103600009926000854060020352900085408002097
:103610008D290008540A0020E529000870B50446E9
:103620000D461646A8782070E87860706278291DEB
:103630006068FCF791FE70BD10B586B004460121AC
:103640001020FEF7D5FB01210846FEF7D1FB012132
:10365000C804FEF7BDFB18208DF817004FF48060FA
:10366000ADF8140001208DF8160005A91F48FDF7DC
:1036700096FA4FF40060ADF8140004208DF817009E
:1036800005A91A48FDF78BFA34208DF800000420B4
:103690008DF8010002208DF8020001208DF8030052
:1036A0006846FDF73DFB01944FF48050ADF80800EB
:1036B0000020ADF80A004FF48060ADF80C00002047
:1036C000ADF810000C20ADF80E0001A90848FFF776
:1036D00059FB012240F224410548FFF72EFB01214E
:1036E0000348FFF7DEFA06B010BD000000100140ED
:1036F000004C004010B586B00446012144F204009D
:10370000FEF776FB18208DF817004FF40070ADF827
:10371000140001208DF8160005A91D48FDF73FFA99
:103720004FF48060ADF8140004208DF8170005A94F
:103730001748FDF734FA25208DF8000001208DF898
:10374000010000208DF8020001208DF8030068467A
:10375000FDF7E6FA01940020ADF80800ADF80A0084
:10376000ADF80C00ADF810000C20ADF80E0001A96A
:103770000848FFF707FB012240F224410548FFF704
:10378000DCFA01210348FFF78CFA06B010BD0000F7
:10379000000801400038014010B586B00446012100
:1037A0000420FEF725FB01214804FEF711FB182039
:1037B0008DF817000420ADF8140001208DF81600D4
:1037C00005A91F48FDF7EBF90820ADF81400042007
:1037D0008DF8170005A91A48FDF7E1F926208DF8A4
:1037E000000002208DF8010000208DF80200012069
:1037F0008DF803006846FDF793FA01944FF480506A
:10380000ADF808000020ADF80A004FF48060ADF874
:103810000C000020ADF810000C20ADF80E0001A93E
:103820000848FFF7AFFA012240F224410548FFF7AC
:1038300084FA01210348FFF734FA06B010BD0000F6
:10384000000801400044004010B586B00446012144
:103850008804FEF7BDFA01210820FEF7C9FA1020FE
:103860008DF817000220ADF8140003208DF8160023
:1038700005A92648FDF793F94FF48060ADF81400D0
:1038800003208DF8160018208DF8170005A91F4891
:10389000FDF785F94FF40060ADF8140004208DF8B1
:1038A000170005A91948FDF77AF927208DF80000BF
:1038B00003208DF8010000208DF8020001208DF812
:1038C00003006846FDF72CFA01944FF48050ADF8E0
:1038D00008000020ADF80A004FF48060ADF80C003D
:1038E0000020ADF810000C20ADF80E0001A908482A
:1038F000FFF748FA012240F224410548FFF71DFA7C
:1039000001210348FFF7CDF906B010BD000C0140BE
:103910000048004010B54FF4E130FFF7EBFE4FF4E4
:103920001660FFF739FF4FF41650FFF78DFF4FF485
:103930001650FFF781FEFCF7A7FEFCF7BBFEFCF775
:10394000CFFEFCF7E3FEFF231E4A1F491F48FCF78A
:10395000C7FF0120FCF7F0FF1D48FF231D49426807
:103960001A481430FCF7BCFF0220FCF7E5FF1A48A8
:10397000FF231A49426815482838FCF7B1FF032095
:10398000FCF7DAFF1648FF23164942681648FCF791
:10399000A7FF0420FCF7D0FF40210B48001FFFF7D2
:1039A00095F940210B48001FFFF790F940210B4883
:1039B000001FFFF78BF940210A48001FFFF786F927
:1039C00010BD0000980C002004380140580002404F
:1039D000680C002004440040780C0020044800409B
:1039E000880C0020044C0040300402400003030611
:1039F00001040602050003051F1C1F1E1F1E1F1FBA
:103A00001E1F1E1F00000100020001000300010034
:103A10000200010004000100020001000300010097
:103A20000200010005000100020001000300010086
:103A30000200010004000100020001000300010077
:103A40000200010006000100020001000300010065
:103A50000200010004000100020001000300010057
:103A60000200010005000100020001000300010046
:103A70000200010004000100020001000300010037
:103A80000200010007000100020001000300010024
:103A90000200010004000100020001000300010017
:103AA0000200010005000100020001000300010006
:103AB00002000100040001000200010003000100F7
:103AC00002000100060001000200010003000100E5
:103AD00002000100040001000200010003000100D7
:103AE00002000100050001000200010003000100C6
:103AF00002000100040001000200010003000100B7
:103B000002000100243B00080000002058010000D2
:103B10006C010008AC3B000858010020E8290000B7
:103B2000C8010008011C1201180D0102030405065A
:103B30000708091068150F114A40171AFF012115CF
:103B40003E16680F5241140201018A450F14030109
:103B5000028A470F140401048A4A0FAE01030201CE
:103B6000480F12081B4D1660490F1B0505775119A8
:103B7000156924140610016D58166812331B1002C3
:103B8000245E0F6416681D122407050413682B1A9F
:103B900041072172083BA24A0F393319CA29C9F9D2
:0C3BA000E41918691C6C0204063A01418B
:0400000508000131BD
:00000001FF
